:200000000C940B630C943C630C943C630C943C630C943C630C943C630C943C630C943C6319
:200020000C943C630C943C630C943C630C943C630C943C630C945A720C943C630C943C639B
:200040000C943C630C94A2860C943C630C943C630C943C630C943C630C94F7810C9404746D
:200060000C943C630C94CD810C949D810C943C630C943C630C943C630C943C630C943C635A
:200080000C943C630C943C630C943C630C943C630C943C630C943C630C943C630C943C6368
:2000A0000C943C630C943C630C943C630C943C630C943C630C943C630C943C630C943C6348
:2000C0000C943C630C943C630C943C630C943C630C943C630C943C630C943C630C943C6328
:2000E0000C943C63084AD73B3BCE016E84BCBFFDC12F3D6C74319ABD56833DDA3D00C77FE1
:2001000011BED9E4BB4C3E916BAAAABE000000803F05A84CCDB2D44EB93836A9020C50B9C0
:20012000918688083CA6AAAA2ABE000000803F000C94C1730C94E2960C9438810C94ED95D4
:200140000C945F960C94C8630C94F3930C949F960C94036C0C94BA630C948D630C94AF7326
:200160000C94B6630C941A660C949C810C943D690C94A0690C94406C0C944C950C943095C8
:200180000C94647D0C943F630C942C920C94E7730C94D2630C94126C0C94C3950C947F7DBD
:2001A0000C9446690C941B690C9476690C9427960C94B2630C94B0960C9476730C94529644
:2001C0000C9442690C94A2630C949B630C9439960C94D76B0C94336D0C9419950C94976318
:2001E0000C94617D0C94C7730C94F5730C94FB6F0C941B950C9439810C948E6A0C94FD6F47
:200200000C943E630C9444690C9441630C94AC630C9417960C94CE630C9493630C94C063E6
:200220000C941A690C94D2960C94D0950C945A730C94FF6F0D9469400C94A8630C940A96DE
:200240000C949F630C94B7730C942B6C0C9470960C94FD950C946E690C947D960C94B39511
:200260000C9481690C94CD630C94C1960C948E960C94D3CA0C9486810C94E0950C94C463A9
:200280000C9442634E414E494E495459494E46CDCCCC3D0AD7233C17B7D13877CC2B3295E4
:2002A00095E6241FB14F0A000020410000C84200401C4620BCBE4CCA1B0E5AAEC59D74258D
:2002C00000F00F2C00A00F3300500F3A00000F4300B00E4D00600E5800100E6300C00D7097
:2002E00000700D7E00200D9000D00CA300800CB900300CD200E00BF000900B1101400B376A
:2003000001F00A6301A00A9801500AD601000A1E02B0096F026009D00210094003C008C196
:2003200003700854042008FC04D007B70580078C0630076807E006550890064E0940064BAF
:200340000AF005320BA005140C5005D80C00058C0DB004180E60048F0E1004F00EC0033ADB
:200360000F7003730F2003BD0F8002DC0F0802E90FB801F20F6801F80F1801FC0FC800FF06
:200380000F00004800901A4800A00F5800000F6C00600E8400C00DA400200DD000800C1096
:2003A00001E00B5801400BC001A00A4C02000A08036009F803C00828052008B006800754CD
:2003C00008E006180A4006C80BA005300D0005400E6004FC0EC003740F2003BC0F8002E0BB
:2003E0000FE001F40FF000FB0FC800FC0FA0000400501D7C00D009A4001009CC008008F4D2
:200400000010081C01B807440168076C0128079401E806BC01B806E40188060C026006347F
:200420000238065C0218068402F005AC02D805D402B805FC0298052403800574035005C490
:20044000032805140400056404D804B404B0042C058004A40558041C062804940600040CED
:2004600007D803AC07A8034C087803EC0848038C092003A40AD0021C0BA802AC0C2802FC47
:200480000C0802C40DB801140E9801B40E38012C0FE000540FB8007C0F8800A40F4800F4CE
:2004A0000F28FFFC0FC0F9000000008C030800AE035000D603A000F703F0001804400138B2
:2004C0000490015904E0017A0430029A048002BB04D002FC0470032605C00386063007972D
:2004E00009A00F750D201C520E401F1F0F6022FF0F803E0400081D900058091C01B007A8B5
:2005000001C80634023006C002C0054C036805D80318056404D004F00498047C05600408AC
:20052000063004940600042007D003AC07A80338088003C408580350093003DC09080368BD
:200540000AD802F40AB002800B88020C0C6002980C3002240DF801B00DC0013C0E8001C867
:200560000E3001540FB800B40F2800E00F00000400401D900060091C01B007A801D0063466
:20058000023806C002C8054C036805D80318056404D804F00498047C056004080630049449
:2005A0000600042007D003AC07A80338088003C408580350093003DC090803680AE002F42B
:2005C0000AB802800B88020C0C6002980C3002240DF801B00DC0013C0E8001C80E30015424
:2005E0000FB800B40F2800E00F000004000016D800C006AC0178058002C004540348042867
:2006000004E803FC049803D0055003A40618037807D8024C08A80220097002F4093802C872
:200620000A08029C0BD001700C9001440D5001180EF800EC0E8800C00F00000400681D4C3B
:2006400000500B94005809DC0050082401A8076C012807B401C006FC017006440228068CB8
:2006600002F005D402B8051C03880564035805AC033005F40310053C04E8048404C804CC44
:2006800004A804140590045C057004A4055804EC053804340620047C060804C406F0030C41
:2006A00007D8035407C8039C07B003E40798032C08800374087003BC085803040948034CED
:2006C00009300394091803DC090803240AF0026C0AE002B40AC802FC0AB002440BA0028C01
:2006E0000B8802D40B70021C0C5802640C4002AC0C2802F40C10023C0DF001840DD801CC7C
:200700000DB801140E98015C0E7001A40E4801EC0E1801340FD8007C0F8800C40F0800FC6A
:200720000F00000000000000000000000000000000000000000000000000000000000000AA
:20074000000000000000000000401F450060094F0010095C00C0086B0070087D00200892E6
:2007600000D007AC008007CC003007F400E006230190065E014006A601F005FF01A0056D85
:20078000025005F30200059603B0045A046004400510044806C0036E077003A8082003EBE9
:2007A00009D002230B8002410C3002390DE001040E9001A20E4001170FF000690FA000A2A4
:2007C0000F5000C60F0000DD0FB0FFEB0F60FF0400700DD8004804AC0158038002D8025494
:2007E00003800228043802FC040002D005C801A4069801780770014C08480120091801F468
:2008000009F000C80AC8009C0BA000700C7000440D3800180E0000EC0EA8FFC00FE8FE0409
:2008200000001B54006009640010097400C008840070089C002008B800D007D80080070079
:200840000130072C01E00668019006AC0140060002F0056802A005E002500574030005247E
:2008600004B004F0046004DC051004E406C0030408700330092003780B8002600DE001A8F0
:200880000E4001680FA000C00F0000E80F60FF0400801AD8009808AC0120078002500654B7
:2008A00003C80528045805FC040005D005B004A4066804780728044C08E8032009B003F481
:2008C000097003C80A38039C0BF802700CB002440D6802180E0802EC0E8801C00F8800F00B
:2008E0000F00000000A00F5C006009690010097900C0088C007008A2002008BD00D007DE72
:20090000008007050130073401E0066D019006B20140060702F0056D02A005E80250057B2F
:200920000300052B04B004F8046004EB06C003350920037F0B8002650DE001B00E40011DDC
:200940000FF000480FC8006C0FA000ED0F60FFFE0F48FEC1D1E0DEE120DDD0E1E2E0DED55C
:20096000DA00BDD0E1E2E0DED9DAD800C1D1E0DEE120454550524F4D0025656A20BADEDD62
:20098000E2E0DEDBEC20D7D0DCEFE2D8EF00C2D5DCDF3A20256F6D252525202020204C616C
:2009A000733A256F70205700C2D5DCDF3A20256F6D252525202020205370693A256F7052B7
:2009C000504D20005A773A2578372020205A3A2578320059773A257836202020593A25784B
:2009E000310058773A257835202020583A25783000C1E2D0E0E2205A2DDFE0DED1EB00B83F
:200A0000D7DCD5E0D5DDD8D5202E2E2E005A2DC1DCD5E9D5DDD8D53A25587A00B7D0DAE0B2
:200A2000EBE2EC00BFDEDBE3D0D2E2DE2DD7D0DFE0D0D2DAD000C4D0DAE22E5A2DDFDED7C8
:200A4000D8E6D8EF3A2557306D6D00C2D5DC2EDDD0D3E02E202565632F254563024300B71D
:200A6000D0DCD5E020D2EBE1DEE2EB20DFE0DED1EB00C1E2DEDB2020203A202570620243E1
:200A800000C1DEDFDBDE20363A2020257035024300C1DEDFDBDE20353A202025703402432C
:200AA00000C1DEDFDBDE20343A2020257033024300C1DEDFDBDE20333A2020257032024314
:200AC00000C1DEDFDBDE20323A2020257031024300C1DEDFDBDE20313A20202570300243FC
:200AE00000C3E1E2D0DDDED2DAD820E2D5DCDFD5E0D0E2E3E000C3E1E2D0DDDED2DAD020F8
:200B0000DFDED7D8E6D8D820D2203000B0D2E2DEDAD0DBD8D1E0DED2DAD020E1E2DEDBD07B
:200B200000BEE8D8D1DAD020DAD0DBD8D1E0DED2DAD800BAD0DBD8D1E0DED2DAD020E1E201
:200B4000DEDBD000202020203E3E3E20B3DEE2DED2203C3C3C00BEE8D8D1DAD020D2EBE005
:200B6000D0D2DDD8D2D0DDD8EF00BDD8E2EC20DFE0DEE1DAD0DBECD7EBD2D0D5E200BED1BC
:200B8000E0EBD220D4D0E2E7D8DAD020DDD0D3E0D5D2D000BFDEDBDEDCDAD020D4D0E2E749
:200BA000D8DAD020E2D5DCDF2E00C3D2D5D4DEDCDBD5DDD8D53A00DFDEE1E2DEE0DEDDDDB1
:200BC000D8D520DFE0D5D4DCD5E2EB00E3D1D5E0D8E2D520E1DE20E1E2DEDBD020D2E1D577
:200BE00000BFD5E0D5D420DFDED4E2D2D5E0D6D4D5DDD8D5DC002A2A2A20B220DFE0DEE6E6
:200C0000D5E1E1D52E2E2E202A2A2A00BEE2DCD5DDD000BAE3DBD5E020322E3A2546532578
:200C2000252500C1D5E2DAD020DAE0D8D2D8D7DDEB3A25446500B8E1DF2EDAE0D8D2D8D78C
:200C4000DDEB20E1E2DEDBD000C3E1E2D0DDDED2DAD820DFE0D8DDE2D5E0D00025506E00ED
:200C600025507025252500C1DBDED92025506C2F25504C00BADEDDE6D5D2D8DA3A256470F5
:200C800000C3E1E2D0DDDED22E5A2DC1DCD5E9213A2554326D6D00C3E1E2D0DDDED22E5917
:200CA0002DC1DCD5E9213A2554316D6D00C3E1E2D0DDDED22E582DC1DCD5E9213A255430D8
:200CC0006D6D00C3E1E2D0DDDED2D8E2EC20E1DCD5E9D5DDD8EF2100B2EBE1DEE2D0205AF4
:200CE0002DDFE0DED1EB3A257A6800254433203320DADEDFD8D800254432203220DADEDF33
:200D0000D8D800254431203120DADEDFD8EF0025443020BDD5E220DADEDFD8D90025583573
:200D200020B2EBD1E0D0E2EC20E1DEDFDBDE20360025583420B2EBD1E0D0E2EC20E1DEDF5F
:200D4000DBDE20350025583320B2EBD1E0D0E2EC20E1DEDFDBDE203400B2EBDADBEEE7D8FF
:200D6000E2EC20E1DEDFDBDE203600B2EBDADBEEE7D8E2EC20E1DEDFDBDE203500B2EBDAC8
:200D8000DBEEE7D8E2EC20E1DEDFDBDE203400C2D5DC2E2036203A2565352F25453502430F
:200DA00000C2D5DC2E2035203A2565342F254534024300C2D5DC2E2034203A2565332F25B3
:200DC0004533024300202542436D6D00052565630200052565632F254563020000256F73C7
:200DE00000255566206D20BFE0DED4D0D2DBD5DDDE00255566206D0025557400583A25787E
:200E00003020593A25783100C2D5DCDF3A20256F6D202020453A257834005A3A2578322041
:200E200020BAEDE8203A20256F4200422565422F2545620200052565632F25456302422551
:200E400065422F2545620200256F7300BAEDE83A20256F4200C2D5DCDF3A20256F6D252531
:200E60002520FD2020453A20202578346D00466C6F773AFD20256F662525252020205A3AA7
:200E8000257832000E202565622F254562B020593A257831000A202565302F25453002206E
:200EA000583A25783000CFD7EBDA00B4E0E3D3D0EF3A20202542436D6D00B4E0E3D3D8D56A
:200EC00020DDD0E1E2E0DED9DAD800BADBD5D92DDAD0E0D0DDD4D0E800B7D5DBD5DDD0EF2E
:200EE0002050455420DBD5DDE2D000C1D8DDEFEF20D1E3DCD0D62EDBD5DDE2D000BAD0DF0A
:200F0000E0DEDDDED2EBD920E1DADEE2E700BFDED4DBDED6DAD0204275696C6454616B0066
:200F2000B1D5D720DFDEDAE0EBE2D8EF0000C3E1E2D0DDDED2DBD5DDDE20DFDEDAE0EBE277
:200F4000D8D500BFDEDAE0EBE2D8D520E1E2DEDBD000BED6D8D4D0DDD8D500B7D0DCEFE2D9
:200F6000D8D520EDDAE1E2E02E00E2D5DCDFD5E0D0E2E3E0D02E2E2E00B6D4D0E2EC20E6E8
:200F8000D5DBD800EDDAE1E2E0E3D4D5E0EB00B2DADBEEE7D8E2EC20DDD0D3E0D5D2D0E24D
:200FA000D5DBD800B8D3DDDEE02EDADEDCD0DDD4204D3130362025466900BFDED7D8E6D83E
:200FC000EF20E1D5E0D2DE3A20256F5300B0D2E2DEE3E0DED2D5DDEC3A20256C6C003E3E55
:200FE000BDD0D6D0E2EC20D4DBEF20D2EBE5DED4D03C3C00EDDDDADED4D5E0D020D2DBD5F9
:20100000D2DE2FD2DFE0D0D2DE00E120DFDEDCDEE9ECEE20E0E3DADEEFE2DAD800BCD5DD19
:20102000EFD9E2D520DDD0DFE0D0D2DBD5DDD8D500B7D0D3E0E3D7DAD020E4D8DBD0DCD5F3
:20104000DDE2D0005A2DDCD8DAE0DEE8D0D33A2020256F596D6D00BEE1E2D0DDDED2D8E2CA
:20106000EC20DFD5E7D0E2EC00BCD5D4DB2EDFD5E0D5DADBEEE7D5DDD8D500C0D5D62E448E
:2010800065616454696D6500C3DFE02EB1DB2E20DFD8E2D8DDD8EF00BFE0DED4D0D2DBD555
:2010A000DDDE00BFDEE2E0D0E7D5DDDE20E4D8DBD0DCD5DDE2D000B2E0D5DCEF20DFD5E71B
:2010C000D0E2D800003A0020B4DDD5D92000BFE0D8DDE2D5E020D3DEE2DED22E0053442D8D
:2010E000DAD0E0E2D020DFDED4DADBEEE7D5DDD00053442DDAD0E0E2D020D8D7D2DBD5E7BF
:20110000D5DDD000B6D4D0E2EC20E0D5E2E0D0DAE23A20255855206D6D00B6D4D0E2EC2094
:20112000E2D5DC2E3A202020255854024300C3E0DED2D5DDEC2064656C746100C0D0E1E7CB
:20114000D5E220E3E0DED2DDEF00B7D0D4D0E2EC20503300B7D0D4D0E2EC20503200B7D0BB
:20116000D4D0E2EC20503100BAD0DBD8D1E0DED2DAD020DEE1D8205A00B7D0DFD8E1D0E212
:20118000EC205A3D3000C1D1E0DEE120D8D7DCD5E0D5DDD8EF00BCD5D4DBD5DDDDDED520D0
:2011A000D8D7DCD5E0D5DDD8D500BFDED4D0E7D020DFE0E3E2DAD03A2020256F6625252567
:2011C00000C2D5DCDF20DFD5E7D0E2D83A20202020256F6D25252500C1E2DEDB3A256562CC
:2011E0002F25456202437E256F6200C2D5DC20333A2565322F25453202437E256F3200C269
:20120000D5DC20323A2565312F25453102437E256F3100C2D5DC20313A2565302F25453003
:2012200002437E256F3000C2D5DC2E3A2565632F25456302437E256F4300BAEDE83A256F6C
:201240004200B7D0D3E0E3D7DAD02E2E2E00D7D0D3E0E3D6D5DDDE20D8D720454550524F17
:201260004D00BDD0E1E2E0DED9DAD800D7D0DFD8E1D0DDDE20D220454550524F4D00BDD057
:20128000E1E2E0DED9DAD800BCDEE2DEE0EB20DEE2DADBEEE7D5DDEB00BFE0DEE6D5E1E11C
:2012A00020E3D1D8E200BDD0E1E2E0DED9DAD820D4DBEF20E1E2DEDBD000BDD0D3E0D5D2F6
:2012C000D0E2D5DBD800B0DAE2D8D2DDDE3A256C6100BFB8B42DE0D5D3E3DBEFE2DEE000AA
:2012E000BFDE20E2D8DFE320E0D5DBD500592DC1DCD5E9D5DDD8D53A25587900582DC1DC9E
:20130000D5E9D5DDD8D53A25587800BFB8B42DBCD0DAE12E3A20202020202025584400BC3D
:20132000D0DAE12EDDD0DFE0EFD6D5DDD8D53A25584D00BCD8DD2EDDD0DFE0EFD6D5DDD806
:20134000D5203A25586D00BFB8B42DB4D8E4E4D5E02E3A25586400BFB8B42DB8DDE2D5D353
:20136000E03A2025586900BADEDDE2E0DEDBEC20C8B8BC3A25584D004465616474696D65F4
:201380003A25587000BFB8B42DBFE0DEDFDEE0E63A25587000C0D5D3E3DB2E3A2558680034
:2013A000416476616E636520717561643A20202025586100416476616E6365206C696E3AE9
:2013C0002020202025586C00B2E0D5DC2EE1E2D0D13A202020202025587700C3E1DADEE0C5
:2013E000D5DDD8D53A2020202025584100BCD0DAE12EE1DADEE0DEE1E2EC3A25584600BDE1
:20140000D0E72EE1DADEE0DEE1E2EC203A25586600C8D0D3D82F4D4D3A2020202025536501
:2014200000C1DADEE02EDFDEE0E2D03A256F6300BED1E9D8D520DDD0E1E2E0DED9DAD800A7
:201440005B6D696E5D30202DDDD520DEE2DADBEEE7D0E2EC00BEE2DADB2E20E7D5E0D5D76E
:201460002025697020DCD8DD2E00BCD0DAE12ED2E0D5DCEF20DFE0DEE1E2DEEF005B6D692A
:201480006E5D30202DDDD520DEE2DADBEEE7D0E2EC00BEE2DADB2E20E7D5E0D5D7202569B1
:2014A0007320DCD8DD2E00C3E1E22EB2E0D5DC2ED4DBEF20DCDEE2DEE0DED200BFDEDBDD98
:2014C000D0EF20C1DAE02EDEE5DBD0D6D4D5DDD8EF00C1DAE02EDEE5DBD0D6D4D5DDD8EFB9
:2014E00020373525252500C1DAE02EDEE5DBD0D6D4D5DDD8EF20353025252500C1DAE02E1A
:20150000DEE5DBD0D6D4D5DDD8EF20323525252500BEE2DADBEEE7D8E2EC20DAE3DBD5E007
:20152000EB00C1DADEE0DEE1E2EC20DAE3DBD5E0D03A25467325252500C1DADEE0DEE1E21C
:20154000EC20DAE3DBD5E0D000BCD8DD2E3A25737A20BCD0DAE12E3A25735A005A3A257885
:201560003220DCDC00BCD8DD2E3A25737920BCD0DAE12E3A25735900593A25783120DCDC7E
:2015800000BCD8DD2E3A25737820BCD0DAE12E3A25735800583A25783020DCDC2000BCD8B8
:2015A000DD2E3A25737A20BCD0DAE12E3A25735A005A3A25783220DCDC00BCD8DD2E3A25DA
:2015C000737920BCD0DAE12E3A25735900593A25783120DCDC00BCD8DD2E3A25737820BC61
:2015E000D0DAE12E3A25735800583A25783020DCDC003120E9D5DBE7D5DA203D203120DCA7
:20160000DC00C0D0E1E1E2DEEFDDD8D53A257833206D6D0000BADEDDE6D5D2D8DA20BCD0FF
:20162000DAE12E3A25735A00BADEDDE6D5D2D8DA20BCD8DD2E203A25737A005A3A25783253
:2016400020DCDC0000BADEDDE6D5D2D8DA20BCD0DAE12E3A25735900BADEDDE6D5D2D8DA8A
:2016600020BCD8DD2E203A25737900593A25783120DCDC0000BADEDDE6D5D2D8DA20BCD0A7
:20168000DAE12E3A25735800BADEDDE6D5D2D8DA20BCD8DD2E203A25737800583A257830FB
:2016A00020DCDC0000BADEDDE6D5D2D8DA20BCD0DAE12E3A25735A00BADEDDE6D5D2D8DA29
:2016C00020BCD8DD2E203A25737A005A3A25783220DCDC2025647A25645A0000BADEDDE643
:2016E000D5D2D8DA20BCD0DAE12E3A25735900BADEDDE6D5D2D8DA20BCD8DD2E203A25736C
:201700007900593A25783120DCDC202564792564590000BADEDDE6D5D2D8DA20BCD0DAE1F8
:201720002E3A25735800BADEDDE6D5D2D8DA20BCD8DD2E203A25737800583A25783020DC19
:20174000DC2025647825645800C1DADEE02ED4DEDCDED93A2025665A00C1DADEE02ED4DE67
:20176000DCDED920DFDE205A3A25665A00C1DADEE02ED4DEDCDED920DFDE20593A25665920
:2017800000C1DADEE02ED4DEDCDED920DFDE20583A25665800BCD0DAE1D8DCD0DBECDDD0CC
:2017A000EF3A25667A00BCD0DAE12EDFDE205A3A25667A00BCD0DAE12EDFDE20593A2566A0
:2017C0007900BCD0DAE12EDFDE20583A25667800C1DADEE0DEE1E2EC00C3D4D0DBD8E2ECDB
:2017E00020E4D0D9DB00BFDED4DADBEEE7D8E2EC2053442DDAD0E0E2E300B8D7D2DBD5E795
:20180000EC2053442DDAD0E0E2E300B2DED7DED1DDDED2D8E2EC20DFD5E7D0E2EC00BFDE6A
:20182000E1E2D0D2D8E2EC20DDD020DFD0E3D7E300BFD5E7D0E2EC20E4D0D9DBD000B0DD66
:20184000E2D82DE3E2D5E7DAD0004D6F76652061667465723A254F6100BCD8DD2E20D4D833
:20186000E1E2D0DDE6D8EF3A254F64004261636B736C2E2020203A254F6200B2E2EFD3D81D
:20188000D2D0DDD8D53A254F7200254F32204F5053206661737400254F31204F505320633C
:2018A0006C617373696300254F30204F5053206F666600BFE0DED1DDEBD920D7D0DFE3E13F
:2018C000DA3A25646400BEE8D8D1DAD0203A25646500B8DDE4DE2020203A25646900BED154
:2018E000E0D0E2DDD0EF20E1D2EFD7EC3A25646F00B7D0D3E0E3D7D8E2EC20D8D7204545F0
:2019000050524F4D00C1DEE5E0D0DDD8E2EC20D220454550524F4D00C3E1DADEE0D5DDD832
:20192000D5005A2DC0EBD2DEDA203A25614A00C0EBD2DEDA3A20202020202025616A00BF0E
:20194000D5E0D5DCD5E9D5DDD8D53A25615A00BFD5E0D5DCD5E92EDFDE205A203A25615A68
:2019600000BFD5E0D5DCD5E92EDFDE2059203A25615900BFD5E0D5DCD5E92EDFDE20582081
:201980003A25615800BFD5E7D0E2EC3A202020202025617A00BFD5E7D0E2EC20DFDE205ACC
:2019A0003A25617A00BFD5E7D0E2EC20DFDE20593A25617900BFD5E7D0E2EC20DFDE2058D7
:2019C0003A25617800C3E1E2D0DDDED22ED8D7DCD5DDD5DDD8D5210025583220B2EBD1E0E4
:2019E000D0E2EC20E1DEDFDBDE20330025583120B2EBD1E0D0E2EC20E1DEDFDBDE203200FC
:201A000025583020B2EBD1E0D0E2EC20E1DEDFDBDE203100B2EBDADBEEE7D8E2EC20E1DE99
:201A2000DFDBDE203300B2EBDADBEEE7D8E2EC20E1DEDFDBDE203200B2EBDADBEEE7D8E244
:201A4000EC20E1DEDFDBDE203100C1DEDFDBDE20333A2565322F254532024300C1DEDFDBE9
:201A6000DE20323A2565312F254531024300C1DEDFDBDE20313A2565302F254530024300A8
:201A8000C1E2DEDB2020203A2565622F254562024300C3DFE0D0D2DB2EEDDAE1E2E0E3D4D6
:201AA000D5E0DEDC00B1EBE1E2E0DED520DFDED720DFDE205A00BFDED72E20DFDE205A00C1
:201AC000B1EBE1E2E0DED520DFDED720DFDE205900BFDED72E20DFDE205900B1EBE1E2E0D3
:201AE000DED520DFDED720DFDE205800BFDED72E20DFDE205800BEE2DADB2EDFD8E2D0DD6A
:201B0000D8D520DCDEE2DEE0DED200C3E1E2D0DDDED2D8E2EC20D7DDD0E7D5DDD8EF210040
:201B2000BEE2DADB2E20DDD0D3E0D5D2D0E2D5DBD800C1D2D5E23A256C6F00B2DADB2ED2D6
:201B4000E1D520DDD0D3E0D5D2D0E2D5DBD800B2DADB2E3120E1DEDFDBDE20D820E1E2DE78
:201B6000DB00B4DEDCDED920DFDE205A00B4DEDCDED920DFDE205900B4DEDCDED920DFDE91
:201B8000205800B4DEDCDED900C3E1E2D0DDDED2DAD020DFDED7D8E6D8D82E2E2E00BEE2CF
:201BA000DBD0D4DAD000534420DAD0E0E2D000BDD0D3E0D5D2D0E2D5DBD800BFDED7D8E6B6
:201BC000D8DEDDD8E0DED2D0DDD8D500BDD0E1E2E0DED9DAD800256F6500CDDBD5DCD5DD13
:201BE000E2EB20E3DFE0D0D2DBD5DDD8EF00BDD0D7D0D42001002A2A2A2A20BEC8B8B1BAC6
:201C0000B0202A2A2A2A00BDD5E220534420DAD0E0E2EB00B3DEE2DED200BFD5E7D0E2D08A
:201C2000D5DC00BFD5E7D0E2D0D5DC2E2E2E00BDD5E200B4D000BDD520D8E1DF2E00B2CBCE
:201C4000BABB00B2BABB0052657365742066726F6D20436F6E66696700436F6E66696775D0
:201C6000726174696F6E00526573657420454550524F4D0025656A204A616D20436F6E740C
:201C8000726F6C004D756C3A20256F6D252525202020204C61733A256F702057004D756C7C
:201CA0003A20256F6D252525202020205370693A256F7052504D20005A773A257837202042
:201CC000205A3A2578320059773A257836202020593A2578310058773A2578352020205850
:201CE0003A257830005374617274205A2D50726F6265004D6561737572696E67202E2E2EDB
:201D0000005A2D4F66667365743A25587A00436C6F736500436F6E74696E75650052656151
:201D20006C205A20506F733A2557306D6D0054656D702E202565632F2545630243004D65E7
:201D400061732E2050726F62652048656967687400426564202020203A20257062024300CF
:201D6000457874722E20363A20257035024300457874722E20353A20257034024300457888
:201D800074722E20343A20257033024300457874722E20333A202570320243004578747247
:201DA0002E20323A20257031024300457874722E20313A2025703002430050726568656163
:201DC000742054656D70657261747572657300486F6D696E672E2E2E004175746F6C6576A2
:201DE000656C206265640043616C6962726174696F6E204572726F720043616C6962726187
:201E000074696E672062656400202020203E3E3E204F6B203C3C3C004C6576656C696E67A7
:201E2000206572726F720046696C616D656E7420736C697070696E67004865617465722029
:201E40006465636F75706C65640054656D702E2073656E736F7220646566656374004E6F07
:201E600074696669636174696F6E3A006F62737472756374696F6E73006265642069732088
:201E8000636C656172206F6620616E79004D616B65207375726520746865206865617465F9
:201EA00064002A2A2A20506C656173652077616974202A2A2A0043616E63656C0046616EF8
:201EC00020322073706565643A25465325252500446973746F7274696F6E20636F72722EE5
:201EE0003A254465004D656173757265207A2D646973746F7274696F6E00536574757000E1
:201F000025506E00255070252525004B61746D616E2025506C2F25504C00456E6453746FF0
:201F200070203A25647000536574205A206F66667365743A2554326D6D005365742059200D
:201F40006F66667365743A2554316D6D005365742058206F66667365743A2554306D6D0034
:201F6000536574207072696E74206F666673657473005A2D70726F622079756B73656B6C6C
:201F80006967693A257A68002544332033206B6F707961002544322032206B6F7079610063
:201FA0002544312031206B6F70796100254430204B6F7079616C616D61002558352045780B
:201FC000742E2036E280997969207365632000255834204578742E2035E2809969207365D0
:201FE000632000255833204578742E2034E2809975207365632000204578742E2036E280B9
:20200000997969206B617061742000204578742E2035E2809969206B6170617420004578AE
:20202000742E2034E2809975206B61706174005369632E2036203A2025453502430053694C
:20204000632E2035203A202545340243005369632E2034203A2025453302430020256F4349
:202060006D6D00052565630200052565632F254563020000256F7300255566206D20796134
:202080007A696C646900255566206D0025557400583A25783020593A257831004D756C3A81
:2020A00020256F6D202020453A257834005A3A2578322020427566203A20256F42004225D8
:2020C00065422F2545620200052565632F25456302422565422F2545620200256F73004218
:2020E00075663A20256F42004D756C3A20256F6D25252520FD202020453A202578346D0083
:2021000050727A65703AFD20256F6625252520205A3A257832000E202565622F254562B086
:2021200020593A257831000A202565302F254530B020583A2578300044696C0044696765B0
:2021400072203A20256F436D6D0044696765720059617069736B616E00596573696C205041
:2021600045542054617065004D61766920426F7961204B6167696469004B6170746F6E000E
:202180004275696C6454616B004B61706C616D6120596F6B00004B61706C616D61204B61A2
:2021A0006C696E6C696769005461626C612075737475206B61706C616D610042656B6C6588
:2021C0006D65204D6F64750045787472756465722074616B696C6469006963696E20626599
:2021E0006B6C6579696E004973746E696C656E20736963616B6C696B6C61720069736974AA
:202200006D616B206963696E2074696B6C6179696E0045787472756465726C6172692074AE
:20222000656B726172004D31303659692061746C612025466900536572766F20706F732E7E
:202240003A20256F53004F746F207365766979653A20256C6C0054616D616D6C616E646907
:2022600067696E6461206275746F6E6120626173696E00616C6D616B206963696E206365D4
:20228000766972696E0046696C616D6574692079756B6172692061736167690046696C6195
:2022A0006D656E742064656769737469720046696C616D656E742064656769737469720044
:2022C0005A2042616279737465702E3A256F596D6D0059617A6469726D617969206475728D
:2022E00064757200536C6F7742616E6700426F737461205A616D616E00415458206775631A
:2023000075206F6E2F6F66660079617A696C64690046696C616D656E742068617263616E2E
:2023200064690059617A6469726D61205A616D616E6900003A002067756E200059617A69AE
:2023400063692048617A697200534420436172642054616B696C646900534420436172644F
:202360002043696B6172696C64690042656B6C653A20255855206D6D0042656B6C65205352
:2023800069632E2025585402430044656C74617969207365766979656C65005365766965BF
:2023A00079692048657361706C6100536574205033005365742050320053657420503100F3
:2023C0005A204B616C69622E005A3D30276120617961726C61004F6C63756D7520536966D2
:2023E00069726C61004F6C63756D7520476F7374657200416B697320436172702E203A2551
:202400006F662525250048697A20436172702E3A256F6D2525250020423A2565622F2545AE
:202420006202437E256F620045333A2565322F25453202437E256F320045323A2565312F24
:2024400025453102437E256F310045313A2565302F25453002437E256F300020453A256576
:20246000632F25456302437E256F43004F6E62656C6C656B3A256F420059756B6C75796F25
:20248000722E2E2E00454550524F4D2764616E2063616772696C6469004B6F6E66696775EC
:2024A000726173796F6E00454550524F4D2761206B6179646564696C6469004B6F6E666905
:2024C0006775726173796F6E004D6F746F726C6172204B6170616C690044555244550042FC
:2024E0006564204973696E69796F72004578747275646572204973696E69796F7200457916
:202500006C656D3A256C61005049440042616E6742616E6700592D4F667365743A255879CD
:2025200000582D4F667365743A25587800504944204D61783A255844005375727563752021
:202540004D61783A25584D00537572756375204D696E3A25586D0050494420443A25586406
:202560000050494420493A255869004B6F6E74726F6C2050574D3A25584D00426F73205A56
:20258000616D6E3A2558700050494420503A255870004B6F6E74726F6C3A255868004765B0
:2025A0006C69736D697320717561643A2558610047656C69736D6973206C696E3A25586CE4
:2025C00000537461622E54696D653A2558770049766D653A255841004D61782046523A25C0
:2025E0005846004261736C616E6769632046523A255866004164696D2F4D4D3A2553650089
:2026000042617564726174653A256F630047656E656C005B6D696E5D20303D4B6170616C04
:2026200069004B6170616D61207375722E3A20256970004D61782E20426F737461005B6DB1
:20264000696E5D20303D4F6666004D6F746F72204B6170613A20256973004D6F746F726C18
:20266000617220426F7374610046616E2054616D204163696B0046616E276920417961722D
:202680006C612037352525250046616E276920417961726C612035302525250046616E2723
:2026A0006920417961726C612032352525250046616E2769204B617061740046616E20480E
:2026C000697A693A2546732525250046616E2048697A69004D696E3A25737A204D61783A6E
:2026E00025735A005A3A257832206D6D004D696E3A257379204D61783A25735900593A25F3
:202700007831206D6D004D696E3A257378204D61783A25735800583A257830206D6D004D92
:20272000696E3A25737A204D61783A25735A005A3A257832206D6D004D696E3A2573792018
:202740004D61783A25735900593A257831206D6D004D696E3A257378204D61783A257358EF
:2027600000583A257830206D6D00312074696B203D2031206D6D00453A257833206D6D0076
:20278000004D617820656E6473746F703A25735A004D696E20656E6473746F703A25737A3D
:2027A000005A3A257832206D6D00004D617820656E6473746F703A257359004D696E2065A5
:2027C0006E6473746F703A25737900593A257831206D6D00004D617820656E6473746F7078
:2027E0003A257358004D696E20656E6473746F703A25737800583A257830206D6D00004D7E
:20280000617820656E6473746F703A25735A004D696E20656E6473746F703A25737A005AAF
:202820003A257832206D6D2025647A25645A00004D617820656E6473746F703A2573590021
:202840004D696E20656E6473746F703A25737900593A257831206D6D20256479256459008D
:20286000004D617820656E6473746F703A257358004D696E20656E6473746F703A25737860
:2028800000583A257830206D6D202564782564580044656C7461205369662E476F6E2E48E9
:2028A000697A3A25665A005A2769205369662E476F6E2E48697A3A25665A0059277969209E
:2028C0005369662E476F6E2E48697A2E3A25665900582769205369662E476F6E2E48697A0A
:2028E0002E3A256658004D61783A25667A004D6178205A3A25667A004D617820593A2566E5
:2029000079004D617820583A25667800496C65726C656D6500446F73796179692053696C0A
:20292000004B61727469204261676C61004B617274692043696B6172004261736B697961DC
:2029400020446576616D004261736B69796920447572616B6C617400446F7379612059616C
:202960007A64697200416E7469204F6F7A65004D6F76652061667465723A254F61004D69C7
:202980006E2E204D65736166653A254F6400456B73656E20426F736C2E3A254F6200476588
:2029A00072692043656B6C2E3A254F7200254F32204F50532048697A6C6900254F31204F63
:2029C0005053204B6C6173696B00254F30204F5053204B6170616C6900426F737461204351
:2029E000616C69733A25646400486174616C6172203A2564650042696C67692020203A255C
:202A00006469004563686F202020203A25646F00454550524F4D2764616E20636167697270
:202A200000454550524F4D2761206B61796465740049766D65005A2D4A65726B203A256120
:202A40004A00582D59204A65726B203A25616A00486172656B6574203A25615A004861723F
:202A6000656B6574205A203A25615A00486172656B65742059203A25615900486172656B98
:202A800065742058203A2561580059617A6D6120482E3A25617A0059617A6D6120482E2023
:202AA0005A3A25617A0059617A6D6120482E20593A2561790059617A6D6120482E20583AEE
:202AC000256178004F726967696E206920417961726C610025583220457874722E20332773
:202AE00075205365630025583120457874722E2032277969205365630025583020457874F3
:202B0000722E203127692053656300457874722E20332769204B61706100457874722E20B7
:202B2000322769204B61706100457874722E20312769204B617061005369632E2033203AED
:202B4000202545320243005369632E2032203A202545310243005369632E2031203A20253E
:202B600045300243005461626C61205369633A20254562024300486172656B657469005A86
:202B80002048697A6C6920486172656B657469005A20486172656B65746900592048697A7D
:202BA0006C6920486172656B657469005920486172656B65746900582048697A6C6920486D
:202BC0006172656B657469005820486172656B657469004D6F746F7275204B6170617400D4
:202BE0004F72696A696E6520617961726C6100536F67756D61004973696B6C6172203A25B1
:202C00006C6F005072656865617420416C6C20457874722E00507265686561742053696ED3
:202C2000676C6520457874722E005A20532E476F6E646572005920532E476F6E64657200B8
:202C40005820532E476F6E6465720048657073696E6920532E476F6E6465720044656C74C3
:202C600061796920536966722E20476F6E642E00446562756767696E67005344204B6172F8
:202C800074004578747275646572004B6F6E756D2D486172656B657400596170696C616EA4
:202CA0006469726D6100256F6500436F6E74726F6C00476572692001002A2A2A2A20484134
:202CC0005441202A2A2A2A005344204B61727420596F6B00426F7374610059617A69796F7D
:202CE000720059617A69796F722E2E2E0048617969720045766574004E2F41004B61706115
:202D00006C69004163696B0052657365746561646120646573646520436F6E6669670043FA
:202D20006F6E66696775726163696F6E00526573657465617220454550524F4D0025656A78
:202D4000204A616D20436F6E74726F6C004D756C3A20256F6D252525202020204C61733A68
:202D6000256F702057004D756C3A20256F6D252525202020205370693A256F7052504D20E7
:202D8000005A773A2578372020205A3A2578320059773A257836202020593A25783100589B
:202DA000773A257835202020583A25783000496E6963696172205A2D50726F6265004D69BD
:202DC0006469656E646F202E2E2E005A2D4F66667365743A25587A00436572726172004315
:202DE0006F6E74696E75617200506F732E205A207265616C3A2557306D6D0054656D702E41
:202E0000202565632F2545630243004D6561732E2050726F6265204865696768740043617B
:202E20006D612020203A20257062024300457874722E20363A20257035024300457874729B
:202E40002E20353A20257034024300457874722E20343A20257033024300457874722E200A
:202E6000333A20257032024300457874722E20323A20257031024300457874722E20313AD5
:202E80002025703002430054656D702E205072656865617400486F6D696E672E2E2E00412E
:202EA00075746F6E69762E2063616D61004572726F722064652043616C6962726163696F91
:202EC0006E0043616C696272616E646F2063616D6100202020203E3E3E204F6B203C3C3CFB
:202EE000004572726F72206465206E6976656C61632E004465736C697A616D2E206465203F
:202F000066696C616D656E746F0043616C656E7461746F7220646573636F6E656374616448
:202F20006F0053656E736F722054656D7020646566656374756F736F00417669736F3A0065
:202F400020206465206F6273746163756C6F73002063616D612065737461206C696272655C
:202F60000041736567757265736520717565206C61002A2A20506F72206661766F7220450D
:202F80007370657265202A2A0043616E63656C61720056656C2E2046616E20323A254653B1
:202FA00025252500446973746F7263696F6E20636F72722E3A254465004D65646972206403
:202FC0006973746F7263696F6E2D5A0053657475700025506E002550702525250043617034
:202FE000612025506C2F25504C00456E6453746F703A2564700020205A206F66667365744E
:203000003A2554326D6D00202059206F66667365743A2554316D6D00202058206F6666738D
:2030200065743A2554306D6D004F666673657420696D70726573696F6E00416C7475726134
:20304000205A2D50726F62653A257A6800254433203320436F706961730025443220322015
:20306000436F7069617300254431203120436F70696100254430204E6F2048617920436F70
:2030800070696173002558352053656C65632E20457874722E2036002558342053656C65F6
:2030A000632E20457874722E2035002558332053656C65632E20457874722E20340045784D
:2030C000747275736F722036204F6666004578747275736F722035204F6666004578747211
:2030E00075736F722034204F66660054656D702E2036203A2565352F254535024300546579
:203100006D702E2035203A2565342F25453402430054656D702E2034203A2565332F25455D
:2031200033024300202542436D6D00052565630200052565632F254563020000256F730088
:20314000255566206D20696D707265736F00255566206D0025557400583A25783020593A76
:20316000257831004D756C3A20256F6D202020453A257834005A3A25783220204275662068
:203180003A20256F4200422565422F2545620200052565632F25456302422565422F25455D
:2031A000620200256F73004275663A20256F42004D756C3A20256F6D25252520FD202020E2
:2031C000453A202578346D00466C756A6F3AFD20256F6625252520205A3A257832000E2081
:2031E0002565622F254562B020593A257831000A202565302F254530B020583A25783000DB
:203200004964696F6D61005065736F6E616C697A61646F3A2542436D6D00506572736F6E3D
:20322000616C697A61646F00426172726120646520706567616D656E746F0043696E74610A
:20324000205045540043696E746120616468657369766120617A756C004B6170746F6E00C8
:203260004275696C6454616B0053696E20726563756272696D69656E746F00005265632E34
:203280002063616D6120616A75737461646F206100526563756272696D69656E746F2063A5
:2032A000616D61005374616E6462790041746173636F20656E206578747275736F72006FA1
:2032C000626A657469766F202E2E2E0045737065726520612074656D702E00526563616C81
:2032E000656E74617220657874722E004861676120636C696320706172610049676E6F72B4
:203300006172204D31303620636D642025466900506F732E20736572766F3A20256F53009E
:203320004175746F6C6576656C3A20256C6C00436C6963207061726120636F6E6669726D38
:2033400061720066696C616D2E206172726962612F6162616A6F004769726520706172615B
:20336000206D6F7665720043616D62696F2066696C616D656E746F0043616D62696172200B
:2033800066696C616D656E746F004D6963726F7061736F73205A3A256F596D6D00446574B6
:2033A000656E657220696D70726573696F6E00536C6F7742616E67005469656D706F206D55
:2033C000756572746F004675656E746520415458206F6E2F6F666600696D707265736F00E4
:2033E00046696C616D656E746F20696D707265736F007469656D706F20646520696D7072C0
:203400006573696F6E00003A0020646961732000496D707265736F7261206C697374612E56
:203420002E2E005461726A65746120534420696E73657274616461005461726A65746120E8
:203440005344207265746972616461004573706572616E646F20556E696461643A25585547
:203460006D6D004573706572616E646F2054656D702E2558540243004E6976656C206465F0
:203480006C74610043616C63756C6172206E6976656C6163696F6E0053657420503300535A
:2034A000657420503200536574205031005A2063616C69622E00536574205A3D3000526557
:2034C000736574656172206D65646963696F6E004D6F7374726172206D65646963696F6EB0
:2034E000004D756C742E20466C756A6F203A20256F66252525004D756C742E2056656C6F73
:20350000632E3A20256F6D2525250020433A2565622F25456202437E256F620045333A253C
:2035200065322F25453202437E256F320045323A2565312F25453102437E256F310045316C
:203540003A2565302F25453002437E256F300020453A2565632F25456302437E256F430005
:203560004275666665723A256F420041637475616C697A616E646F2E2E2E0063617267617A
:20358000646120646520454550524F4D002020436F6E66696775726163696F6E00616C6DD4
:2035A0006163656E61646120656E20454550524F4D002020436F6E66696775726163696F5A
:2035C0006E004D6F746F72657320646573686162696C697461646F730041626F72746164F7
:2035E0006F0043616C656E74616E646F2043616D610043616C656E74616E646F2045787487
:203600007275736F7200416363696F6E3A256C61005049440042616E6742616E6700592DA3
:203620004F66667365743A25587900582D4F66667365743A25587800504944204D61783A7B
:20364000255844004472697665204D61783A25584D004472697665204D696E3A25586D0003
:2036600050494420443A2558640050494420493A2558690050574D20636F6E74726F6C3A39
:2036800025584D005469656D706F206D756572746F3A2558700050494420503A255870009B
:2036A000436F6E74726F6C3A255868004176616E636520717561643A255861004176616E53
:2036C0006365206C696E3A25586C005469656D706F2045737461622E3A25587700416365BA
:2036E0006C657261632E3A255841004D61782046522020203A2558460053746172742046EE
:2037000052203A255866005061736F732F4D4D203A2553650042617564726174653A20256D
:203720006F630047656E6572616C005B6D696E5D20303D4F6666004465732E20446573705F
:203740007565733A20256970004D61782E20496E61637469766F005B6D696E5D20303D4F3B
:203760006666004465732E20446573707565733A20256973004D6F746F7220496E616374BF
:2037800069766F0056656E74696C61646F7220616C203130302525250056656E74696C61E3
:2037A000646F7220616C2037352525250056656E74696C61646F7220616C203530252525E3
:2037C0000056656E74696C61646F7220616C203235252525004170616761722076656E74C5
:2037E000696C61646F720056656C2E2076656E742E20203A2546732525250056656C6F632E
:203800006964612076656E74696C61646F72004D696E3A25737A204D61783A25735A005AE6
:203820003A257832206D6D004D696E3A257379204D61783A25735900593A257831206D6D4A
:20384000004D696E3A257378204D61783A25735800583A257830206D6D004D696E3A25733B
:203860007A204D61783A25735A005A3A257832206D6D004D696E3A257379204D61783A25EB
:20388000735900593A257831206D6D004D696E3A257378204D61783A25735800583A2578F4
:2038A00030206D6D003120636C69636B203D2031206D6D00453A257833206D6D0020202036
:2038C0004D61783A25735A002020204D696E3A25737A0046696E2043617272657261005A6F
:2038E0003A257832206D6D2025647A25645A002020204D61783A257359002020204D696E8A
:203900003A2573790046696E204361727265726100593A257831206D6D2025647925645900
:20392000002020204D61783A257358002020204D696E3A2573780046696E204361727265DF
:20394000726100583A257830206D6D20256478256458002020204D61783A25735A00202047
:20396000204D696E3A25737A0046696E2043617272657261005A3A257832206D6D202564B4
:203980007A25645A002020204D61783A257359002020204D696E3A2573790046696E2043CA
:2039A00061727265726100593A257831206D6D20256479256459002020204D61783A202526
:2039C0007358002020204D696E3A202573780046696E204361727265726100583A257830D2
:2039E000206D6D2025647825645800486F6D653A25665A005A20486F6D653A25665A0059A8
:203A000020486F6D653A256659005820486F6D653A256658004D61783A25667A005A204D95
:203A200061783A25667A0059204D61783A2566790058204D61783A256678004665656472D0
:203A400061746500426F72726172206172636869766F00436F6E656374616E646F205461E5
:203A6000726A65746120534400457472616572205461726A65746120534400436F6E746977
:203A80006E75617220696D70726573696F6E0050617573617220696D70726573696F6E0018
:203AA000496D7072696D6972206172636869766F00416E7469204F6F7A65004D6F7665725F
:203AC00020646573707565733A254F61004D696E2E646973743A254F64004261636B736C56
:203AE0002E203A254F620052657472616363696F6E203A254F7200254F32204F50532052F4
:203B0000617069646100254F31204F505320436C61737369636100254F30204F5053204F87
:203B2000666600456A65637563696F6E20766163696F3A256464004572726F726573203A8F
:203B400025646500496E666F202020203A256469004563686F202020203A25646F0043616A
:203B60007267617220646520454550524F4D00416C6D6163656E617220656E204545505205
:203B80004F4D004163656C65726163696F6E005A2D4A65726B3A25614A004A65726B3A252B
:203BA000616A004D6F7665723A25615A004D6F766572205A3A25615A004D6F7665722059F8
:203BC0003A256159004D6F76657220583A256158005072696E743A25617A005072696E74DF
:203BE000205A3A25617A005072696E7420593A256179005072696E7420583A25617800464F
:203C0000696A6172204F726967656E002558322053656C65637420457874722E20330025E2
:203C200058312053656C65637420457874722E2032002558302053656C65637420457874BA
:203C4000722E203100417061676172204578747275736F722033004170616761722045781F
:203C6000747275736F72203200417061676172204578747275736F7220310054656D702E56
:203C80002045333A2565322F25453202430054656D702E2045323A2565312F254531024327
:203CA0000054656D702E2045313A2565302F25453002430054656D702E43616D3A256562AD
:203CC0002F2545620243004578747275697200506F736963696F6E205A00506F736963698C
:203CE0006F6E205A2066696E6100506F736963696F6E205900506F736963696F6E20592015
:203D000066696E6100506F736963696F6E205800506F736963696F6E20582066696E6100CF
:203D200044657361637469766172206D6F746F7265730046696A612061206F726967656EB5
:203D400000456E6672696172004C756365733A256C6F0050726563616C656E746172207461
:203D60006F646F730050726563616C656E746172204578742E005A20486F6D6500592048DA
:203D80006F6D65005820486F6D6500546F646F20486F6D650044656C746120486F6D65000F
:203DA000446562756767696E67005461726A657461205344004578747275736F7200506FCA
:203DC000736963696F6E00436F6E66696775726163696F6E00256F6500436F6E74726F6C3D
:203DE0000041747261732001002A2A2A2A204552524F52202A2A2A2A0053696E20746172FC
:203E00006A6574612053440049646C6500496D7072696D69656E646F00496D7072696D6975
:203E2000656E646F2E2E2E004E6F005369004E2F41004F6666004F6E0077696564657220A3
:203E400068657267657374656C6C74004B6F6E66696775726174696F6E005265736574203C
:203E6000454550524F4D0025656A20426C6F636B6164656EFC626572772E004D756C3A2081
:203E8000256F6D252525202020204C61733A256F702057004D756C3A20256F6D2525252045
:203EA0002020205370693A256F7052504D005A773A2578372020205A3A2578320059773A9D
:203EC000257836202020593A2578310058773A257835202020583A257830005374617274A6
:203EE000205A2D50726F6265004D65737365202E2E2E005A2D4F66667365743A25587A005D
:203F00004162627275636800576569746572004563687465205A20506F732E3A2557306D44
:203F20006D0054656D702E202565632F2545630243004D6573732E2050726F62656E68F658
:203F4000686500426564202020203A20257062024300457874722E20363A202570350243E3
:203F600000457874722E20353A20257034024300457874722E20343A2025703302430045E2
:203F80007874722E20333A20257032024300457874722E20323A2025703102430045787423
:203FA000722E20313A20257030024300566F726865697A74656D70657261747572656E00A9
:203FC000486F6D696E672E2E2E004175746F6C6576656C2042657474004B616C69627269D7
:203FE0006572756E67736665686C6572004B616C6962726965726520426564002020202012
:204000003E3E3E204F6B203C3C3C004C6576656C696E67204665686C65720046696C616DA3
:20402000656E742072757473636874004865697A656C656D2E20656E746B6F7070656C7445
:204040000054656D702E2D53656E736F7220646566656B74004D69747465696C756E673A06
:20406000006175662064656D20426574742073696E642E0064617373206B65696E65204FBD
:20408000626A656B7465005374656C6C656E20536965207369636865722C002A2A2A2042E9
:2040A000697474652077617274656E202A2A2A0041626272756368004CFC667465722032F9
:2040C0003A254653252525005A2D4B6F7272656B7475723A254465004D65737365205A2D7D
:2040E0005665727A657272756E670053657475700025506E00255070252525004C617965B3
:20410000722025506C2F25504C00456E6453746F70202020203A256470005A2D4F666673B7
:2041200065743A2554326D6D00592D4F66667365743A2554316D6D00582D4F666673657450
:204140003A2554306D6D00536574207072696E74206F666673657473005A2D50726F626590
:204160006E68F668653A257A68002544332033204B6F7069656E002544322032204B6F70B9
:2041800069656E002544312031204B6F70696500254430204B65696E65204B6F7069656EB5
:2041A000002558352057E4686C6520457874722E2036002558342057E4686C6520457874DC
:2041C000722E2035002558332057E4686C6520457874722E203400457874727564657220EE
:2041E000362041757300457874727564657220352041757300457874727564657220342088
:204200004175730054656D702E2036203A2565352F25453502430054656D702E2035203ABC
:204220002565342F25453402430054656D702E2034203A2565332F254533024300202542E7
:20424000436D6D00052565630200052565632F254563020000256F7300255566206D206762
:2042600065647275636B7400255566206D0025557400583A25783020593A257831004D754F
:204280006C3A20256F6D202020453A257834005A3A2578322020427566203A20256F420097
:2042A000422565422F2545620200052565632F25456302422565422F2545620200256F73F1
:2042C000005075663A20256F42004D756C3A20256F6D25252520FD202020453A202578349E
:2042E0006D00466C7573733AFD20256F6625252520205A3A257832000E202565622F25452E
:2043000062B020593A257831000A202565302F254530B020583A25783000537072616368CD
:204320006500496E6469762E3A2542436D6D00496E646976696475656C6C004B6C656265D6
:204340007374696674004772FC6E6573205045542042616E6400426C61756573204B7265FC
:20436000707062616E64004B6170746F6E004275696C6454616B00556E62657363686963B7
:2043800068746574000042657474626573636869636874756E673A0042657474626573637C
:2043A0006869636874756E67005374616E64627900457874727564657273746175005A69FB
:2043C000656C74656D706572617475722E2E2E0057617274652061756600646572204578C2
:2043E0007472756465722E004B6C69636B65207A756D2041756677E4726D656E0049676EC3
:204400006F7269657265204D3130362025466900536572766F20506F732E3A20256F53004E
:204420004175746F6C6576656C3A20256C6C00576569746572206D6974204B6C69636B008C
:204440004D656EFC6B6E6F70662064726568656E005A756D206D616E2E2066F6726465729D
:204460006E0046696C616D656E747765636873656C3A0046696C616D656E7477656368732F
:20448000656C005A2042616279736368722E3A256F596D6D00447275636B2061626272655F
:2044A0006368656E004C616E67732E424200546F747A65697400415458204E65747A74653D
:2044C000696C20616E2F617573006765647275636B740046696C616D656E74206765647255
:2044E00075636B74004765732E20447275636B7A65697400003A0020546167652000447232
:2045000075636B6572206265726569742E005344204B617274652065696E67656C65677436
:20452000005344204B6172746520656E746665726E740052FC636B7A2E20756D3A25585575
:20454000206D6D00576172746574656D702E2558540243004C6576656C2064656C74610042
:204560004265726563686E65204C6576656C696E67005365747A65205033005365747A6510
:20458000205032005365747A65205031005A204B616C69622E005365747A65205A3D300050
:2045A0005265736574204D657373756E67005A65696765204D657373756E6700466C6F7768
:2045C000204D756C2E3A256F66252525004765736368772E4D756C3A256F6D252525002035
:2045E000423A2565622F25456202437E256F620045333A2565322F25453202437E256F32DD
:204600000045323A2565312F25453102437E256F310045313A2565302F25453002437E25C1
:204620006F300020453A2565632F25456302437E256F43005075666665723A256F420048F9
:204640006F63686C6164656E2E2E2E0067656C6164656E2E004B6F6E666967757261746911
:204660006F6E0067657370656963686572742E004B6F6E66696775726174696F6E004D6F80
:20468000746F72656E2041757300416E676568616C74656E004865697A6520447275636BA4
:2046A00062657474004865697A6520457874727564657200416B74696F6E3A256C61005001
:2046C00049440042616E6742616E6700592D4F66667365743A25587900582D4F66667365C8
:2046E000743A25587800504944204D61783A255844004472697665204D61783A25584D00B5
:204700004472697665204D696E3A25586D0050494420443A2558640050494420493A2558DE
:204720006900436F6E74726F6C6C2D50574D3A25584D00546F747A6569743A255870005034
:20474000494420503A255870005265676C65723A25586800416476616E6365207175616438
:204760003A25586100416476616E6365206C696E3A25586C00537461622E5A6569743A2536
:2047800058770042657363686C2E3A255841004D61782046523A25584600537461727420CA
:2047A00046523A25586600536368722F4D4D3A2553650042617564726174653A256F63007B
:2047C000416C6C67656D65696E005B6D696E5D20303D41757300417573206E6163683A205C
:2047E000256970004D61782E20496E616B746976005B6D696E5D20303D4175730041757396
:20480000206E6163683A20256973004D6F746F7220496E616B746976004CFC667465722063
:20482000566F6C6C004CFC6674657220617566203735252525004CFC667465722061756636
:20484000203530252525004CFC6674657220617566203235252525004CFC667465722041BF
:204860007573004CFC667465723A254673252525004CFC66746572004D696E3A25737A2047
:204880004D61783A25735A005A3A257832206D6D004D696E3A257379204D61783A25735989
:2048A00000593A257831206D6D004D696E3A257378204D61783A25735800583A2578302040
:2048C0006D6D004D696E3A25737A204D61783A25735A005A3A257832206D6D004D696E3A61
:2048E000257379204D61783A25735900593A257831206D6D004D696E3A257378204D617827
:204900003A25735800583A257830206D6D0031206B6C69636B203D2031206D6D00453A2569
:204920007833206D6D00004D617820456E6473746F70703A25735A004D696E20456E647345
:20494000746F70703A25737A005A3A257832206D6D00004D617820456E6473746F70703A1E
:20496000257359004D696E20456E6473746F70703A25737900593A257831206D6D00004DC2
:20498000617820456E6473746F70703A257358004D696E20456E6473746F70703A257378CC
:2049A00000583A257830206D6D00004D617820456E6473746F70703A25735A004D696E209B
:2049C000456E6473746F70703A25737A005A3A257832206D6D2025647A25645A00004D612D
:2049E0007820456E6473746F70703A257359004D696E20456E6473746F70703A25737900CB
:204A0000593A257831206D6D2025647925645900004D617820456E6473746F70703A2573D2
:204A200058004D696E20456E6473746F70703A25737800583A257830206D6D2025647825A4
:204A4000645800486F6D653A25665A00486F6D65205A3A25665A00486F6D6520593A256609
:204A60005900486F6D6520583A256658004D61783A25667A004D6178205A3A25667A004D2E
:204A8000617820593A256679004D617820583A25667800466565647261746500446174650D
:204AA00069206CF6736368656E004D6F756E74204B6172746500556E6D6F756E74204B610E
:204AC00072746500447275636B20466F7274732E00447275636B2050617573696572656E71
:204AE00000447275636B6520446174656900416E7469204F6F7A65005374617274206E610B
:204B000063683A254F61004D696E2E416273742E203A254F64004261636B736C2E202020A1
:204B20003A254F620045696E66616872656E203A254F7200254F32204F5053205363686E31
:204B4000656C6C00254F31204F5053204B6C6173736973636800254F30204F505320417510
:204B6000730054726F636B656E6C6175663A256464004665686C657220202020203A256464
:204B80006500496E666F202020202020203A256469004563686F202020202020203A2564F6
:204BA0006F004C61646520766F6D20454550524F4D005369636865726520454550524F4D0B
:204BC0000042657363686C65756E6967756E67005A2D5275636B2020203A25614A005275D5
:204BE000636B20202020203A25616A004265776567653A25615A00426577656765205A3AB1
:204C000025615A0042657765676520593A2561590042657765676520583A2561580044723E
:204C200075636B656E3A25617A00447275636B656E205A3A25617A00447275636B656E20B8
:204C4000593A25617900447275636B656E20583A256178005365747A65204E756C6C70759B
:204C60006E6B74002558322057E4686C6520457874722E2033002558312057E4686C6520FE
:204C8000457874722E2032002558302057E4686C6520457874722E203100457874727564F2
:204CA000657220332041757300457874727564657220322041757300457874727564657240
:204CC0002031204175730054656D702E2033203A2565322F25453202430054656D702E2019
:204CE00032203A2565312F25453102430054656D702E2031203A2565302F25453002430027
:204D00004265642054656D703A2565622F254562024300457874722E20506F736974696F94
:204D20006E005A20506F732E205363686E656C6C005A20506F736974696F6E005920506F3B
:204D4000732E205363686E656C6C005920506F736974696F6E005820506F732E20536368E5
:204D60006E656C6C005820506F736974696F6E004D6F746F72656E204175737363682E0022
:204D80005365747A65204E756C6C70756E6B740041626BFC686C656E004C616D70656E3AD3
:204DA00020256C6F00566F726865697A656E20616C6C6500566F726865697A656E204578C4
:204DC00074722E203100486F6D65205A00486F6D65205900486F6D65205800486F6D6520BF
:204DE000416C6C6500486F6D652044656C746100446562756767696E67005344204B617241
:204E0000746500457874727564657200506F736974696F6E0045696E7374656C6C756E6787
:204E2000656E00256F6500537465756572756E67005A7572FC636B2001002A2A2A2A2046AA
:204E400045484C4552202A2A2A2A004B65696E65205344204B61727465004C6565726C610B
:204E6000756600447275636B656E00447275636B652E2E2E004E65696E004A61006E76008A
:204E800041757300416E0052657365742066726F6D20436F6E66696700436F6E6669677522
:204EA000726174696F6E00526573657420454550524F4D0025656A204A616D20436F6E749A
:204EC000726F6C004D756C3A20256F6D252525202020204C61733A256F702057004D756C0A
:204EE0003A20256F6D252525202020205370693A256F7052504D20005A773A2578372020D0
:204F0000205A3A2578320059773A257836202020593A2578310058773A25783520202058DD
:204F20003A257830005374617274205A2D50726F6265004D6561737572696E67202E2E2E68
:204F4000005A2D4F66667365743A25587A00436C6F736500436F6E74696E756500526561DF
:204F60006C205A20506F733A2557306D6D0054656D702E202565632F2545630243004D6575
:204F800061732E2050726F62652048656967687400426564202020203A202570620243005D
:204FA000457874722E20363A20257035024300457874722E20353A20257034024300457816
:204FC00074722E20343A20257033024300457874722E20333A2025703202430045787472D5
:204FE0002E20323A20257031024300457874722E20313A20257030024300507265686561F1
:20500000742054656D70657261747572657300486F6D696E672E2E2E004175746F6C65762F
:20502000656C206265640043616C6962726174696F6E204572726F720043616C6962726114
:2050400074696E672062656400202020203E3E3E204F6B203C3C3C004C6576656C696E6735
:20506000206572726F720046696C616D656E7420736C697070696E670048656174657220B7
:205080006465636F75706C65640054656D702E2073656E736F7220646566656374004E6F95
:2050A00074696669636174696F6E3A006F62737472756374696F6E73006265642069732016
:2050C000636C656172206F6620616E79004D616B6520737572652074686520686561746587
:2050E00064002A2A2A20506C656173652077616974202A2A2A0043616E63656C0046616E86
:2051000020322073706565643A25465325252500446973746F7274696F6E20636F72722E72
:205120003A254465004D65617375726520646973746F7274696F6E005365747570002550A0
:205140006E00255070252525004C617965722025506C2F25504C00456E6453746F703A2583
:20516000647000536574205A206F66667365743A2554326D6D005365742059206F666673DC
:2051800065743A2554316D6D005365742058206F66667365743A2554306D6D005365742024
:2051A0007072696E74206F666673657473005A2D70726F6265206865696768743A257A682F
:2051C00000254433203320636F7069657300254432203220636F70696573002544312031C2
:2051E00020636F707900254430204E6F20636F70696573002558352053656C656374206504
:205200007874722E2036002558342053656C65637420657874722E2035002558332053658D
:205220006C65637420657874722E2034005475726E20657874722E2036206F66660054752D
:20524000726E20657874722E2035206F6666005475726E20657874722E2034206F66660044
:2052600054656D702E2036203A2565352F25453502430054656D702E2035203A2565342F88
:2052800025453402430054656D702E2034203A2565332F254533024300202542436D6D0047
:2052A000052565630200052565632F254563020000256F7300255566206D207072696E7449
:2052C000656400255566206D0025557400583A25783020593A257831004D756C3A20256FAE
:2052E0006D202020453A257834005A3A2578322020427566203A20256F4200422565422F44
:205300002545620200052565632F25456302422565422F2545620200256F73004275663A66
:2053200020256F42004D756C3A20256F6D25252520FD202020453A202578346D00466C6F04
:20534000773AFD20256F662525252020205A3A257832000E202565622F254562B020593ADB
:20536000257831000A202565302F254530B020583A257830004C616E6775616765004375A7
:2053800073746F6D3A2542436D6D00437573746F6D00476C756520737469636B0047726528
:2053A000656E20504554207461706500426C75652070617065722074617065004B6170742D
:2053C0006F6E004275696C6454616B004E6F20636F6174696E67000042656420636F61744C
:2053E000696E672073657420746F0042656420636F6174696E67005374616E6462790045D6
:2054000078747275646572206A616D0074656D706572617475726573202E2E2E005761693A
:205420007420666F7220746172676574006578747275646572732E00436C69636B20746FED
:20544000207265686561740049676E6F7265204D31303620636D6420254669005365727663
:205460006F20706F732E3A20256F53004175746F6C6576656C3A20256C6C00436C69636BEE
:20548000207768656E20646F6E650066696C616D656E742075702F646F776E00526F7461A2
:2054A000746520746F206D6F7665004368616E67652066696C616D656E74004368616E67A2
:2054C000652066696C616D656E74005A2062616279737465702E3A256F596D6D0053746FBE
:2054E00070205072696E7400536C6F7742616E6700446561642074696D6500415458207038
:205500006F776572206F6E2F6F6666007072696E7465640046696C616D656E7420707269D6
:205520006E746564005072696E74696E672074696D6500003A002064617973200050726950
:205540006E7465722072656164792E005344206361726420696E73657274656400534420A9
:20556000636172642072656D6F766564005761697420726574722E3A255855206D6D005782
:205580006169742074656D702E202558540243004C6576656C2064656C74610043616C63FE
:2055A000756C617465206C6576656C696E6700536574205033005365742050320053657491
:2055C000205031005A2063616C69622E00536574205A3D30005265736574206D6561732E7D
:2055E0000053686F77206D6561732E00466C6F77206D756C2E203A256F662525250053705C
:20560000656564206D756C2E3A256F6D2525250020423A2565622F25456202437E256F62DA
:205620000045333A2565322F25453202437E256F320045323A2565312F25453102437E258A
:205640006F310045313A2565302F25453002437E256F300020453A2565632F254563024323
:205660007E256F43004275666665723A256F420055706C6F6164696E672E2E2E006C6F6102
:2056800064656420662E20454550524F4D00436F6E66696775726174696F6E0073746F7221
:2056A000656420696E20454550524F4D00436F6E66696775726174696F6E005374657070DE
:2056C00065722064697361626C6564004B696C6C65640048656174696E67206265640048F3
:2056E000656174696E6720657874727564657200416374696F6E3A256C61005049440042F6
:20570000616E6742616E6700592D4F66667365743A25587900582D4F66667365743A25581B
:205720007800504944204D61783A255844004472697665204D61783A25584D0044726976FA
:2057400065204D696E3A25586D0050494420443A2558640050494420493A25586900436F08
:205760006E74726F6C2050574D3A25584D004465616474696D653A25587000504944205051
:205780003A25587000436F6E74726F6C3A25586800416476616E636520717561643A2558AE
:2057A0006100416476616E6365206C696E3A25586C00537461622E54696D653A25587700DB
:2057C000416363656C3A255841004D61782046523A2558460053746172742046523A2558A1
:2057E000660053746570732F4D4D3A2553650042617564726174653A256F630047656E657C
:2058000072616C005B6D696E5D20303D4F6666004469732E2061667465723A2025697000CD
:205820004D61782E20696E616374697665005B6D696E5D20303D4F6666004469732E20612E
:20584000667465723A20256973005374657070657220696E61637469766500536574206634
:20586000616E2066756C6C005365742066616E203735252525005365742066616E20353004
:20588000252525005365742066616E203235252525005475726E2066616E204F66660046A3
:2058A000616E2073706565643A2546732525250046616E207370656564004D696E3A257325
:2058C0007A204D61783A25735A005A3A257832206D6D004D696E3A257379204D61783A256B
:2058E000735900593A257831206D6D004D696E3A257378204D61783A25735800583A257874
:2059000030206D6D004D696E3A25737A204D61783A25735A005A3A257832206D6D004D6968
:205920006E3A257379204D61783A25735900593A257831206D6D004D696E3A257378204D07
:2059400061783A25735800583A257830206D6D003120636C69636B203D2031206D6D0045A7
:205960003A257833206D6D00004D617820656E6473746F703A25735A004D696E20656E6439
:2059800073746F703A25737A005A3A257832206D6D00004D617820656E6473746F703A25F6
:2059A0007359004D696E20656E6473746F703A25737900593A257831206D6D00004D61780E
:2059C00020656E6473746F703A257358004D696E20656E6473746F703A25737800583A253E
:2059E0007830206D6D00004D617820656E6473746F703A25735A004D696E20656E64737434
:205A00006F703A25737A005A3A257832206D6D2025647A25645A00004D617820656E647308
:205A2000746F703A257359004D696E20656E6473746F703A25737900593A257831206D6D01
:205A40002025647925645900004D617820656E6473746F703A257358004D696E20656E645A
:205A600073746F703A25737800583A257830206D6D2025647825645800486F6D653A25666D
:205A80005A00486F6D65205A3A25665A00486F6D6520593A25665900486F6D6520583A250A
:205AA0006658004D61783A25667A004D6178205A3A25667A004D617820593A256679004DBA
:205AC000617820583A2566780046656564726174650044656C6574652066696C65004D6F49
:205AE000756E74206361726400556E6D6F756E74206361726400436F6E74696E7565207010
:205B000072696E74005061757365207072696E74005072696E742066696C6500416E746924
:205B2000206F6F7A65004D6F76652061667465723A254F61004D696E2E6469737420203A30
:205B4000254F64004261636B736C2E2020203A254F6200526574726163742020203A254F9C
:205B60007200254F32204F5053206661737400254F31204F505320636C617373696300254F
:205B80004F30204F5053206F6666004472792072756E3A256464004572726F7273203A2552
:205BA000646500496E666F2020203A256469004563686F2020203A25646F004C6F61642053
:205BC000662E20454550524F4D0053746F726520746F20454550524F4D00416363656C6514
:205BE000726174696F6E005A2D4A65726B203A25614A004A65726B2020203A25616A004D78
:205C00006F76653A25615A004D6F7665205A203A25615A004D6F76652059203A256159008C
:205C20004D6F76652058203A256158005072696E743A25617A005072696E74205A3A25618F
:205C40007A005072696E7420593A256179005072696E7420583A25617800536574204F7241
:205C60006967696E002558322053656C65637420657874722E2033002558312053656C6593
:205C8000637420657874722E2032002558302053656C65637420657874722E203100547572
:205CA000726E20657874722E2033206F6666005475726E20657874722E2032206F666600DE
:205CC0005475726E20657874722E2031206F66660054656D702E2033203A2565322F254598
:205CE0003202430054656D702E2032203A2565312F25453102430054656D702E2031203A84
:205D00002565302F2545300243004265642074656D703A2565622F2545620243004D6F7642
:205D200065204578747275646572004D6F7665205A2066617374004D6F7665205A004D6FDF
:205D4000766520592066617374004D6F76652059004D6F766520582066617374004D6F7602
:205D60006520580044697361626C6520737465707065720053657420746F206F7269676906
:205D80006E00436F6F6C646F776E004C69676874733A256C6F005072656865617420416C15
:205DA0006C20457874722E00507265686561742053696E676C6520457874722E00486F6D26
:205DC00065205A00486F6D65205900486F6D65205800486F6D6520616C6C00486F6D652056
:205DE00064656C746100446562756767696E67005344206361726400457874727564657269
:205E0000004D6F76650053657474696E677300256F6500436F6E74726F6C004261636B202F
:205E200001002A2A2A2A204552524F52202A2A2A2A004E6F20534420636172640049646C00
:205E400065005072696E74696E67005072696E74696E672E2E2E004E6F00596573004E2F52
:205E600041004F6666004F6E00431C3E1C361C331C2F1C231C1A1C141C071CF61BEE1BDAA8
:205E80001BD61BCC1BBB1BAF1BA61B9E1B891B831B781B6D1B621B4F1B3B1B321B201B0BC8
:205EA0001BF61AEC1ADB1AD11AC01AB61AA51A921A801A6E1A5C1A4A1A381A261A141A0000
:205EC0001AEC19D819C519B519A51995198519731961194F193F192F19221918190519F173
:205EE00018DE18D218C618B318A71897188A187B186C1859184A183E1831181E180B18FA15
:205F000017E617D917D017C217B417A617951781176D1759174917391726171317121702BB
:205F200017EF16DC16DB16CB16B816A516A4169B168816751674166B165816451644163BFB
:205F4000162816151614160216F215E915D615CD15BA15B1159E1594158115781565155CC4
:205F6000154915391522151115FC14E714D214BC14A71492147D146A1455144014301421B0
:205F8000141114FF13ED13DB13C813B413A01395138513781367135713471333131F130BE7
:205FA00013FC12ED12E012D212C612BA12A612991288127E126C1262124E1242123A1227A1
:205FC000121312FF11EB11D811C111AA1196118611791168115E1154114A113C112E111AF2
:205FE000110411F110DD10CE10C710C510C410B710A310981088107B106910571044103185
:20600000101D100A10F40FDE0FCD0FBA0FA40F8F0F840F790F6A0F5B0F520F430F2E0F2D28
:206020000F200F0E0FFD0EEB0ED90ECB0EBA0EAB0EA60E950E840E6E0E550E4C0E480E3513
:206040000E2B0E1A0E080EFC0DF80DF20DE10DDD0DDC0DD20DCC0DC50DB30DA10D8F0D7DDC
:206060000D6B0D590D450D310D1D0D0F0D030DF70CEB0CD80CC30CAD0C970C810C740C67D2
:206080000C600C5C0C490C360C230C130C0C0CF60BE10BCC0BB70BAA0B940B7E0B6A0B56F5
:2060A0000B440B330B210B0C0BF60AE10AD10AC10AB10AA10A910A810A720A5F0A4B0A3678
:2060C0000A240A1C0A0D0AFF09F109E209D309C409A8098E0979096C0962095309032DFC83
:2060E0002CF82CF32CED2CE22CDA2CD42CC82CB92CB22CAA2CA62C992C8B2C822C7A2C7065
:206100002C5C2C4B2C402C352C2A2C152C032CF62BEF2BE02BD32BC82BB72BAC2B9B2B907B
:206120002B7F2B762B652B562B472B382B292B1A2B0B2BF92AE62AD42AC42AB52AA62A97CF
:206140002A8A2A7B2A6C2A5D2A502A422A362A312A212A102A032AF629E929D929CA29BB6B
:2061600029AD299E298E297E296F2965295829472939292D29212915290C290229F828EE36
:2061800028E628D128BB28A728912881287128612860285028402830282F281F280F28FF06
:2061A00027FE27F527E527D527D427CB27BB27AB27AA27A12791278127802777276A27619E
:2061C000275127482738272F271F2716270627FD26ED26E426D426CB26BB26AF269C268920
:2061E00026762669265A264A263E263326222613260D260026F425E325D825CF25C125B01F
:20620000259E25922588257B256B2561255725482539252D25212515250C250825FE24ECF7
:2062200024DF24D924C924BB24A7249924852479246C245B244A243924282417240624F322
:2062400023E523D623C923C023B923B223AB239B238A2379236B23592349233C2336233463
:20626000233323232311230923F922ED22E422D222C022AE229C2286227322562246223618
:206280002226221222FC21E721D921C821BB21A8219621952189218021792168215921500E
:2062A000214A213C213821272116210021E820DF20DB20C820BE20AD209C2090208C2086C9
:2062C00020782074207320692063205C204D203E202F201E200B20F71FE31FCF1FBA1FAC49
:2062E0001FA01F941F881F721F601F4D1F3A1F271F1A1F0B1F041F001FFA1EE51ED01EBDE0
:206300001EB61EA21E8D1E791E6C1E5E1E4A1E391E271E181E091EF91DE71DD91DCF1DBA6C
:206320001DAB1D9C1D8D1D7E1D6F1D601D511D3E1D2E1D1D1D141D0E1D011DF31CE51CD6C3
:206340001CC71CB81C9D1C841C741C671C591C471C363E323E2E3E2B3E283E193E0D3E085D
:206360003EF93DE93DE13DD93DD53DC73DBE3DB53DAA3DA03D953D8B3D843D7D3D763D655B
:206380003D533D493D413D333D203D103D053DF53CEA3CDA3CCF3CC73CB43CA13C8E3C7B43
:2063A0003C693C573C453C323C1F3C0C3CFF3BF33BE73BDB3BD13BC53BB93BAD3BA33B9AD7
:2063C0003B8F3B833B6F3B5E3B513B443B373B233B173B063BF73AE73ADA3ACD3ABB3AB136
:2063E0003AA03A8F3A7B3A693A533A443A3B3A313A273A1D3A153A0A3AFF39F439EB39DBCE
:2064000039CF39C339B739A7399B3990398539753969395E395339433937392C39213911E5
:20642000390539FA38EF38DF38D338C838BD38B438A5389C388C38833873386A385A385129
:20644000384138383828381F380F38FB37E737D537C137AD3799378437753763375737493D
:206460003737372B37233715370737F936EB36DD36CB36BC36AC36A0369636843674366A89
:206480003660365236443638362B361E36153611360636F235E235D935C235B2359D358DB4
:2064A000357B356B3560354F353E352D351C350B35F634E134D034BE34B634AD34A6349F5F
:2064C0003498348434783463344C34383423341034093407340634F233E033D833C633B894
:2064E00033AF339D338A3378336733573343332F3320331033FB32EC32DB32CC32BF32ACCA
:2065000032A43291327C327B3269326032593245323B3228321A3207320032EF31DE31C8B1
:2065200031B031A731A3319031863175316431583154314E3140313C313B3131312B312431
:20654000311131FE30EB30DC30CD30BE30AB3098308530733067305A304D303A3029301814
:20656000300730F62FEA2FDD2FD62FD22FCC2FB92FA42F922F892F722F612F502F402F39DD
:206580002F222F0A2FF32EE12ED22EC22EAD2E9F2E952E872E782E692E5A2E4B2E3C2E2D2D
:2065A0002E1E2E0B2EFB2DE92DDF2DD82DCB2DBE2DAE2D9F2D902D812D662D4D2D3D2D2D40
:2065C0002D1F2D082D844E804E7D4E7A4E754E6B4E634E5A4E4B4E3A4E314E274E234E156A
:2065E0004E0C4E034EFA4DF04DE54DDB4DD44DCD4DC64DB44DA54D994D904D804D704D65D1
:206600004D564D4B4D3C4D314D224D134D004DED4CDA4CC74CB84CA94C9A4C884C764C6484
:206620004C544C464C384C2A4C1E4C114C044CF74BEC4BDE4BD04BC14BB24BA24B924B82B9
:206640004B724B624B564B444B344B254B164B074BF84AEE4AE14AD14AC44AB64AAA4A9C55
:206660004A934A894A7F4A754A6D4A624A574A4C4A434A334A224A114A104A004AEF49DE73
:2066800049DD49CD49BC49AB49AA49A14990497F497E49754964495349524949493849275B
:2066A0004926491D490E490549F548EC48DC48D348C348BA48AA48A14891488848784871A5
:2066C000486348584847483648254819480B48FD47F147E447D647CA47C047B347A7479A9B
:2066E000478F47834775476547544749473F473347224718470E470047F246E646D946CC6D
:2067000046C346BF46B446A54695468A467E467046634655464C463F463446234612460184
:2067200046F045DF45CD45BC45AE45A04596458D4584457B45724560455445444533452182
:20674000450E45FE44F744F544F444E544D344CA44B644AE44A54495448344734462445142
:206760004440442F4420441044FD43E843DA43D043BE43B143A94398438643854377436E16
:20678000436743564346433B432F4322431A430943F842E242CA42C142BD42AA42A0428F23
:2067A000427E4272426E4268425942554254424A4244423D422A4217420442F541E641D731
:2067C00041C541B341A1419041844177416A4159414741384129411A410A41FC40F540F196
:2067E00040EB40D840C840B840B0409B40874074406140554041402C401B400B40FC3FEDDF
:206800003FD93FCA3FC03FAC3F9D3F8E3F7F3F703F613F523F433F323F223F0F3F083F00FE
:206820003FF33EE93EDB3ECC3EBD3EAE3E943E7B3E673E5A3E4C3E393E665E625E5E5E5A54
:206840005E575E4B5E425E3D5E325E225E1B5E135E0F5E065E015EF85DF05DE65DDB5DD228
:206860005DCB5DC45DBD5DA85D965D8B5D825D745D645D5D5D515D4A5D3E5D375D2B5D1D24
:206880005D0A5DF75CE45CD15CC05CAF5C9E5C8B5C785C655C5A5C4E5C425C365C2C5C209F
:2068A0005C145C085CFF5BF35BE75BDA5BCA5BBB5BAF5BA35B975B8B5B7F5B6F5B625B53BA
:2068C0005B445B355B265B1C5B115B055BF65AE95ADE5AD25AC95ABF5AB55AAB5AA35A988E
:2068E0005A8D5A825A795A695A595A495A485A385A285A185A175A075AF759E759E659DDE9
:2069000059CD59BD59BC59B359A3599359925989597959695968595F595059475937592EF8
:20692000591E5915590559FC58EC58E358D358CA58BA58B0589F5892588458765868585BDB
:20694000584A583A582E58205810580458FC57EF57E257D557CA57C057B257A25791578544
:20696000577B576E575E5754574A573C572E57225715570857FF56FB56F056DF56D356CCB6
:2069800056BB56AD569C568E567D567056655654564356325621561056FE55EC55E155D51C
:2069A00055CD55C455BD55B655AF559C5590557F556D555D554C553D553655345533552514
:2069C0005514550C55FB54F154E854DD54CB54BB54AB549C548B547B546C545C5448543888
:2069E000542D541D540C54FF53F753EB53D853D753CC53C353BC53AC539D5392538B537E4E
:206A0000537553645353533D5325531C5318530553FB52EA52D952CD52C952C352B552B109
:206A200052B052A652A05299528652735260524F523E522D521A520752F451E651DB51CEF3
:206A400051C151AE519C518951765163515751495142513E51385125511051FD50F650E259
:206A600050CD50B950AC509E508A5079506750585049503950275019500F50FA4FEB4FDCF4
:206A80004FCD4FBE4FAF4FA04F914F7E4F6E4F5D4F544F4E4F414F334F254F164F074FF802
:206AA0004EDD4EC44EB44EA74E994E874EFA8FEF8FE48FD98FCE8F4865617465722F7365F9
:206AC0006E736F72206572726F720044697361626C696E6720616C6C2068656174657273B8
:206AE0002064756520746F2064657465637465642073656E736F72206465666563742E0060
:206B0000486561746572206465636F75706C656420647572696E6720686F6C6400206465EE
:206B2000672E204300206D6561737572656420004572726F723A436F756C64206E6F7420FB
:206B4000686F6C642074656D70657261747572652000486561746572206465636F75706C3B
:206B6000656420647572696E6720726973696E6700206D730020616674657220004572727C
:206B80006F723A54656D702E2072616973656420746F20736C6F772E2052697365203D2038
:206BA000004F6E6520686561746572207365656D73206465636F75706C65642066726F6D34
:206BC00020746865726D6973746F72202D2064697361626C696E6720616C6C20666F72204A
:206BE0007361666574792100486561746572206465636F75706C656400486561746564204F
:206C0000626564206578636565646564206D61782074656D70657261747572652100204538
:206C20003A00205A3A0020593A00583A002044303A0020403A002042403A002052415700D3
:206C40002044423A0020423A00202F00543A0053706565644D756C7469706C793A00466C9E
:206C60006F774D756C7469706C793A0046616E73706565643A00206D696E0020686F7572F2
:206C8000732000206461797320005072696E74696E672074696D653A006D20005072696EF6
:206CA0007465642066696C616D656E743A00456E642066696C65206C6973740042656769C3
:206CC0006E2066696C65206C697374005344207072696E74696E67206279746520004E6FD7
:206CE00074205344207072696E74696E670057726974696E6720746F2066696C653A2000DD
:206D00006F70656E206661696C65642C2046696C653A20004372656174696F6E2066616991
:206D20006C6564004469726563746F72792063726561746564002020202020202020202031
:206D40002E2020202020202020202E2E20202020202020202E2E2E202020202020202E2EC3
:206D60002E2E2020202020202E2E2E2E2E20202020202E2E2E2E2E2E202020202E2E2E2E25
:206D80002E2E2E2020202E2E2E2E2E2E2E2E20202E2E2E2E2E2E2E2E2E202E2E2E2E2E2E87
:206DA0002E2E2E2E2E2E2E3130302E2E2E2E657874727564657220636F6F6C65722073702E
:206DC000656564205B302D3235355D0064697374616E636520746F20726574726163742031
:206DE0007768656E2068656174696E67205B6D6D5D0074656D702E20666F72207265747207
:206E0000616374696F6E207768656E2068656174696E67205B646567435D0074656D702EF3
:206E20002073746162696C697A652074696D65205B735D005A2D6F6666736574205B7374E1
:206E40006570735D00592D6F6666736574205B73746570735D00582D6F6666736574205BF2
:206E600073746570735D00504944206D61782076616C7565205B302D3235355D0050494458
:206E800020442D6761696E0050494420492D6761696E0050494420502D6761696E2F64659F
:206EA00061642D74696D6500504944206472697665206D696E00504944206472697665207F
:206EC0006D61780068656174206D616E61676572205B302D335D005072656865617420740A
:206EE000656D702E205B646567435D00616363656C65726174696F6E205B6D6D2F735E3266
:206F00005D007374617274206665656472617465205B6D6D2F735D006D61782E206665656E
:206F20006472617465205B6D6D2F735D00737465707320706572206D6D00526574726163FC
:206F400074696F6E20756E646F20737065656400457874726120657874727573696F6E203B
:206F60006F6E20756E646F2072657472616374205B6D6D5D0052657472616374696F6E205C
:206F80007A2D6C696674205B6D6D5D0052657472616374696F6E207370656564205B6D6D48
:206FA0002F735D0052657472616374696F6E206C656E677468205B6D6D5D00456E61626C81
:206FC000652072657472616374696F6E20636F6E76657273696F6E205B302F315D0042657C
:206FE0006420504944206D61782076616C7565205B302D3235355D00426564205049442094
:20700000442D6761696E004265642050494420492D6761696E004265642050494420502D7E
:207020006761696E0042656420504944206472697665206D696E004265642050494420647F
:2070400072697665206D6178004265642048656174204D616E61676572205B302D335D0024
:2070600042656420507265686561742074656D702E205B646567435D00436F6174696E6708
:2070800020746869636B6E657373205B6D6D5D005A2D617869732074726176656C20616384
:2070A00063656C65726174696F6E205B6D6D2F735E325D00592D6178697320747261766549
:2070C0006C20616363656C65726174696F6E205B6D6D2F735E325D00582D61786973207488
:2070E000726176656C20616363656C65726174696F6E205B6D6D2F735E325D005A2D617828
:20710000697320616363656C65726174696F6E205B6D6D2F735E325D00592D61786973204A
:20712000616363656C65726174696F6E205B6D6D2F735E325D00582D617869732061636300
:20714000656C65726174696F6E205B6D6D2F735E325D005061726B20706F736974696F6E65
:20716000205A207261697365205B6D6D5D005061726B20706F736974696F6E2059205B6D2B
:207180006D5D005061726B20706F736974696F6E2058205B6D6D5D005A206D6178206C6527
:2071A0006E677468205B6D6D5D0059206D6178206C656E677468205B6D6D5D0058206D6113
:2071C00078206C656E677468205B6D6D5D005A206D696E20706F73205B6D6D5D0059206D1B
:2071E000696E20706F73205B6D6D5D0058206D696E20706F73205B6D6D5D004D61782E2040
:207200005A2D6A65726B205B6D6D2F735D004D61782E206A65726B205B6D6D2F735D005A19
:207220002D6178697320686F6D696E67206665656472617465205B6D6D2F735D00592D612F
:2072400078697320686F6D696E67206665656472617465205B6D6D2F735D00582D617869BD
:207260007320686F6D696E67206665656472617465205B6D6D2F735D005A2D6178697320E9
:207280006D61782E206665656472617465205B6D6D2F735D00592D61786973206D61782EF7
:2072A000206665656472617465205B6D6D2F735D00582D61786973206D61782E20666565FC
:2072C0006472617465205B6D6D2F735D005A2D6178697320737465707320706572206D6D5E
:2072E00000592D6178697320737465707320706572206D6D00582D6178697320737465708D
:207300007320706572206D6D0053746F70207374657070657220616674657220696E6163E3
:20732000746976697479205B6D732C303D6F66665D004D61782E20696E6163746976652031
:2073400074696D65205B6D732C303D6F66665D005072696E74657220616374697665205BF7
:20736000735D0046696C616D656E74207072696E746564205B6D5D0042617564726174658A
:20738000004C616E677561676500504944204175746F74756E652066696E697368656420ED
:2073A0002120506C61636520746865204B702C204B6920616E64204B6420636F6E737461A1
:2073C0006E747320696E2074686520436F6E66696775726174696F6E2E68206F7220454547
:2073E00050524F4D00504944204175746F74756E65206661696C6564212074696D656F75A4
:207400007400504944204175746F74756E65206661696C6564212054656D70657261747529
:20742000726520746F6F206869676800204B643A2000204B693A2000204B703A2000205443
:2074400079726575732D4C7962656E20504944002050657373656E20496E74656772616CEC
:207460002052756C652050494400204E6F204F76657273686F6F74205049440020536F6D45
:2074800065204F76657273686F6F74205049440020436C61737369632050494400205475D9
:2074A0003A2000204B753A2000206D61783A2000206D696E3A200020643A20002062696190
:2074C000733A2000504944204175746F74756E65207374617274004E6F2063617365206C3A
:2074E0006967687473004D617854656D703A004469616D657465723A00416363656C657263
:207500006174696F6E3A004D617853706565643A004A65726B3A004D617842656454656DA8
:20752000703A005072696E746572547970653A43617274657369616E005A54726176656C7F
:20754000416363656C3A005954726176656C416363656C3A005854726176656C416363650E
:207560006C3A005A5072696E74416363656C3A00595072696E74416363656C3A005850725A
:20758000696E74416363656C3A005A53697A653A005953697A653A005853697A653A005AAA
:2075A0004D61783A00594D61783A00584D61783A005A4D696E3A00594D696E3A00584D697D
:2075C0006E3A0052657472616374696F6E556E646F53706565643A005265747261637469E9
:2075E0006F6E556E646F45787472614C6F6E674C656E6774683A0052657472616374696F3B
:207600006E556E646F45787472614C656E6774683A0052657472616374696F6E5A4C696636
:20762000743A0052657472616374696F6E53706565643A0052657472616374696F6E4C6F80
:207640006E674C656E6774683A0052657472616374696F6E4C656E6774683A004A65726B76
:207660005A3A004B656570416C697665496E74657276616C3A004A65726B58593A00507248
:20768000696E746C696E6543616368653A00454550524F4D3A004175746F6C6576656C3AFC
:2076A000005A50726F62653A00436173654C69676874733A00537570706F72744C6F6361A1
:2076C0006C46696C616D656E746368616E67653A00537570706F72744731304731313A00E6
:2076E0005A486F6D65506F733A0059486F6D65506F733A0058486F6D65506F733A005A48FE
:207700006F6D654469723A0059486F6D654469723A0058486F6D654469723A00536F6674BE
:2077200077617265506F7765725377697463683A004C43443A0046616E323A300046616E0E
:207740003A005344436172643A004865617465644265643A004D6978696E67457874727590
:207760006465723A004E756D45787472756465723A00496E7075744275666665723A0042F1
:20778000617564726174653A00696E666F3A436F6E74696E75652066726F6D20666174610E
:2077A0006C207374617465000054657374696E6720666174616C206572726F7200436F6EAC
:2077C00066696775726174696F6E206C6F616465642066726F6D20454550524F4D2E0043BB
:2077E0006F6E66696775726174696F6E2073746F72656420746F20454550524F4D2E004367
:207800006F6C6420657874727573696F6E20646973616C6C6F77656400436F6C6420657851
:2078200074727573696F6E20616C6C6F776564005761746368646F672066656174757265EF
:2078400020776173206E6F7420636F6D70696C656420696E746F207468697320766572734D
:20786000696F6E21004175746F726574726163743A00205A4A65726B3A004A65726B3A00D3
:2078800020746F200053657420766F6C756D657472696320657874727573696F6E20666F29
:2078A00072206578747275646572200044697361626C656420766F6C756D65747269632001
:2078C000657874727573696F6E20666F722065787472756465722000205052454845415474
:2078E00000505245484541545F4245443A00205A533A002059533A0058533A00454D455200
:2079000047454E43595F5041525345523A3100505245484541543A310050415553455354C1
:207920004F503A3100544F47474C455F4C49474854533A3000534F4654574152455F504F7E
:207940005745523A30005A5F50524F42453A30004155544F4C4556454C3A300045455052ED
:207960004F4D3A3100484F53545F5245534355453A31004155544F5245504F52545F544524
:207980004D503A310050524F47524553533A31004649524D574152455F4E414D453A526531
:2079A0007065746965725F312E302E3420434F4D50494C45443A53657020203520323032F6
:2079C00030204649524D574152455F55524C3A68747470733A2F2F6769746875622E636F20
:2079E0006D2F72657065746965722F52657065746965722D4669726D776172652F205052C1
:207A00004F544F434F4C5F56455253494F4E3A312E30204D414348494E455F545950453A58
:207A20004D656E64656C2045585452554445525F434F554E543A312052455045544945528B
:207A40005F50524F544F434F4C3A330050696E2063616E206E6F7420626520736574206229
:207A600079204D34322C20697320696E2073656E7369746976652070696E732120002069FD
:207A8000732000496C6C6567616C20532076616C756520666F72204D34320020746F20008C
:207AA000536574206F75747075743A2000000136372603023C3D380E0F2E303E12130D0C2E
:207AC0000A081A1C180D0E35496E76616C69642061726300205A5F4F46465345543A0020DF
:207AE000595F4F46465345543A00585F4F46465345543A0052656C617469766520706F7367
:207B00006974696F6E696E67004162736F6C75746520706F736974696F6E696E6700556E2F
:207B20006B6E6F776E20636F6D6D616E643A004361703A00436F6E6669673A00496E666F75
:207B40003A004572726F723A00494E46004E414E00436F6E66696775726174696F6E207203
:207B60006573657420746F2064656661756C74732E0050726F746F636F6C20766572736910
:207B80006F6E206368616E6765642C20757067726164696E6700446574656374656420458A
:207BA0004550524F4D2076657273696F6E3A00457874722E004550523A3320004550523A7C
:207BC0003220004550523A3120004550523A3020007A5F6D696E3A004C2000482000795F6D
:207BE0006D696E3A00785F6D696E3A00656E6473746F7073206869743A200053656C656397
:207C00007445787472756465723A0054617267657445787472005461726765744265643AAD
:207C200000E3088F081F08CF0700000000000047073B06EB056F05F304A704EF038303BFF9
:207C4000021C151C140000002243141F1F132E1B315072696E7465722073657420696E74C2
:207C60006F206472792072756E206D6F646520756E74696C20726573746172742100206DCD
:207C800061726B6564206465636F75706C656400206D61726B656420646566656374003AAF
:207CA00020776F726B696E67003A2074656D702073656E736F722064656665637400657871
:207CC000747275646572200068656174656420626564000000420FA1071605D0030D038BB6
:207CE000022E02E801B2018601630145012C0117010401F400000000000000000000000047
:207D0000000000000024F403D950C38EB1C2A23D96828B3582127AE372816CCB66A8610119
:207D20005DC758EB546151204E1E4B5648C14559431A41013F093D2F3B7139CD374036C987
:207D40003465331432D430A32F802E6B2D632C672B752A8E29B028DC2710274B268F25D96E
:207D6000242B248223E0224322AC211A218D200420801F001F841E0C1E971D261DB81C4E08
:207D80001CE61B821B201BC11A641A0A1AB2195D190A19B9186A181C18D11788174017FAAE
:207DA00016B51673163116F115B31576153A150015C7148F1458142214EE13BA1388135676
:207DC000132513F612C71299126C1240121512EB11C1119811701148112111FB10D610B1B0
:207DE000108D106910461024100210E10FC00FA00F800F610F420F230F060FE80ECB0EAF3E
:207E00000E930E770E5C0E410E270E0D0EF30DDA0DC10DA80D900D780D600D490D320D1B7C
:207E20000D050DEF0CD90CC30CAE0C990C850C700C5C0C480C350C210C0E0CFB0BE80BD6F5
:207E40000BC40BB20BA00B8E0B7D0B6B0B5A0B4A0B390B290B180B080BF80AE90AD90ACA3F
:207E60000ABB0AAC0A9D0A8E0A800A710A630A550A470A390A2C0A1E0A110A040AF709EA68
:207E800009DD09D009C409B709AB099F09920987097B096F09630958094C09410936092B34
:207EA00009200915090A090009F508EB08E008D608CC08C208B808AE08A4089A089008871F
:207EC000087D0874086B08610858084F0846083D0834082C0823081A08120809080108F88A
:207EE00007F007E807E007D807D007C807C007B807B007A807A10700000000000000000095
:207F00000000010000FF0044656275674C6576656C3A005072696E7465724D6F64653A4362
:207F20004E43005072696E7465724D6F64653A4C61736572005072696E7465724D6F6465AD
:207F40003A464646005A206A65726B2077617320746F6F206C6F772C2073657474696E6756
:207F600020746F20005859206A65726B2077617320746F6F206C6F772C2073657474696E2F
:207F80006720746F20005344206361726420696E73657274656400534420636172642072A5
:207FA000656D6F766564005265717565737453746F703A00204F464600204C543A003A0049
:207FC000F003F203F403F603F803FA03FC035245534355455F53544154453A00627573792E
:207FE0003A70726F63657373696E6700627573793A68656174696E6700627573793A70615F
:208000007573656420666F72207573657220696E746572616374696F6E00526573656E6448
:208020003A006F6B200020676F7420004572726F723A6578706563746564206C696E652004
:2080400000736B697020006F6B004563686F3A00466F726D6174206572726F7200436865F3
:20806000636B73756D207265717569726564207768656E20737769746368696E67206261B7
:20808000636B20746F2041534349492070726F746F636F6C2E0057726F6E67206368656306
:2080A0006B73756D00204F00204C00204B0020420020410020480020430020440020520056
:2080C000204A00204900205000205300204600204500205A00205900205800202D20507285
:2080E000696E7465722073746F7070656420616E6420686561746572732064697361626C51
:2081000065642064756520746F2074686973206572726F722E20466978206572726F722034
:20812000616E6420726573746172742077697468204D3939392E00666174616C3A005344EC
:20814000206572726F7220646964206E6F74207265636F76657221005344206572726F72FB
:208160002066697865640053442052656164204572726F72005344207265616420657272B6
:208180006F7200446F6E65207072696E74696E672066696C6500FFD0FFE0FFCFFF64FFD17E
:2081A000FF32380C060201FF64FFD0FFFE0001050A0CFF3968C56500000000000051630078
:2081C00000000000000000DD600000695E00002200250028002B002E00310034000201006B
:2081E00000050108010B01000020002300260029002C002F00320000010000030106010930
:208200000100000A0B02090C0D0E08070304010000000000000000000000000000000000FF
:2082200000000000000000000000000000121110000000000000000000000000000000000B
:208240000000000000000002536F667477617265205265736574005761746368646F67205D
:2082600052657365740042726F776E206F75742052657365740045787465726E616C2052A3
:208280006573657400506F7765725570000D0E4B617074616E3344004D616368696E653A7B
:2082A0000056657220312E302E340052657065746965720000000000000000000000000040
:2082C00000000000000001FFFF0000000000078000FFFE0000003800000007800000C3E1B8
:2082E000F07F0FC000071F87C1FC3FC00038FFFFFFF0FE4001C3FFFFFFC1FC400F000000A7
:208300000007F0403FFFFF80001FE0403FFFFFFFFFFF80403FFFFFFFFFFF00403FFFFFFF7A
:20832000FFFE004030000001FFFC04403000000000FC0C403000000000381C403000000024
:2083400000383E403000000000387E4030FFFF800038FE4030FFFFF80038FE4030FFFFFE55
:208360000038E64030FFFFFF0038E64030FFFFFF8038C64030FFFFFF8038C64030FFBFFF51
:208380008038C44030FF80FFC038C44030FF80FFC038C44030FF807FC038CC4030FF807F6D
:2083A000C038FC4030FF807FC038F84030FF80FFC038F84030FFFFFFC038F04030FFFFFFCB
:2083C0008038E04030FFFFFF8038E04030FFFFFF0038C04030FFFFFE0038C04030FFFFF0D9
:2083E0000038C04030FF9FF00038C04030FF8FFC0038C04030FF87FC0038C04030FF87FEBF
:208400000038C04030FF83FF0038C08030FF83FF0038C08030FF81FF8038C10030FF81FFFB
:208420008038C20030FF80FFC038820030FF80FFC038840030FF807FE0380800307F807F74
:20844000E0380800300F803FE03810003000003FF038100038000003F03820003800000074
:20846000003840003C000000003840003FF80000003980003FFFF800003D000000FFFFF877
:20848000007F00000007FFFFF87E0000000007FFFFFC000000000003FFF8000000000000E7
:2084A0000DF8000000000000000000000000000000000000467265652052414D3A00820079
:2084C000000500AD6A4E65656473206C616E67756167652073656C656374696F6E00737460
:2084E00061727400000077616974004661696C206D6F6465206163746976652E2053656E2F
:2085000064204D39393920746F2064697361626C65206661696C6564206D6F64652100502D
:208520006F776572204C6F737300504F5745524C4F53535F44455445435445440001060C3B
:2085400000FE030229036300FF000AFE0800025767A80088008800A8025767F088E8A8E8AA
:2085600088F002576770A8F8A8F8A87002576770880808088870124565609010906001582E
:2085800068708880808878080802576720202020A87020026767F8FCFC9CFCFCF8025767E7
:2085A00070F8F8A8F8F870FFFFFFFFFFFFFF0355652040F840200257672070A8202020206D
:2085C0000355652010F8102002576720202020A8702004536350F8500257672070A820A8FC
:2085E0007020025969C0F0E0A020101008080259691878382820404080800259698080404F
:208600004020283878180259690808101020A0E0F0C00365652848FC50300365653028FCEC
:208620004850046363C0D8640463630C6C980365652850FC50280258682070A870A82020F7
:20864000200365655028FC2850025868202020A870A870200365652448F0482403656590DD
:20866000483C48900355652848F848280257672070A8202020F8035565A090F890A002574B
:2086800067F8202020A870200257672070A820A870F80365652844F8402003656550887C09
:2086A0000810036565204CFC482803656510C8FC485003646448DCEC480365650858FC6810
:2086C000400257678090B0D09038100258682040F848280808080258682010F890A0808076
:2086E000800258680808082848F840200257678080A090F81020035464F010381003556580
:20870000080848F840035565304848E848035565609090B810025868F880E0C0A02010105D
:20872000025969A0C0F8C0A818F818280256663830A8888870025666E060A8888870055399
:20874000632040F8035363F8402022386880C0A080808080800238682060A02020202020C9
:208760000553632010F8035363F810202238688080808080A0C0800238682020202020A031
:2087800060200259692010F8102040F8402002586850F05050505078500259692040F8403F
:2087A0002010F810200259692040F8402040F8402002586850F8505050505050025969207F
:2087C00010F8102010F81020025868505050505050F8500257672040F800F810200257673F
:2087E0002010F800F8402002676714287C907C20500267670858FCA4FC6840026767A050C1
:20880000F824F8102803556520788078200257672050D85050505003556520F008F0200270
:20882000576750505050D8502003656548FC84FC480258682050D85050D85020026666F861
:20884000A0D0A894080266667C142C54A44002666640A4542C147C0266660894A8D0A0F866
:20886000026767103C40FC403C1002676720F008FC08F02003646440E8D440036464085CE2
:20888000AC080258682070A820702070200258682070207020A870200365652040D440204F
:2088A00002586820708820002000200365651008AC08100258682000200020887020035543
:2088C00065A0C0F8C0A00355652818F8182803556520788878200258682050D85050505087
:2088E0007003556520F088F0200258687050505050D850200259692050D8507000705070ED
:208900000259692050D8505050D888F80259692050F8885050D888F80259692070F870702B
:2089200070F8A8F80259692050D850D8505050700259692050D850D850D888F8035565A062
:20894000F088F0A0025868F880B0A09010080802586880804048286808F80258682050D8F1
:208960005050D850200365651068FC6810025868507850505050F05002596910F81010F868
:208980001010F8100365652848FC48280365655048FC48500365653078FC783003656538EF
:2089A00058FC58380365657068FC68700365653078FC78300355652060B8602003556520EF
:2089C00030E830200365653078B47830066666FCFCFCFCFCFC006262FCFC006363FCFCFC2E
:2089E000006565FCFCFCFCFC006666FCFCFCFCFCFC006868FCFCFCFCFCFCFCFC006969FC8F
:208A0000FCFCFCFCFCFCFCFC006B6BFCFCFCFCFCFCFCFCFCFCFC006C6CFCFCFCFCFCFCFC10
:208A2000FCFCFCFCFC005C6CF8F8F8F8F8F8F8F8F8F8F8F8004C6CF0F0F0F0F0F0F0F0F0BA
:208A4000F0F0F0004C6CF0F0F0F0F0F0F0F0F0F0F0F0003C6CE0E0E0E0E0E0E0E0E0E0E006
:208A6000E0002C6CC0C0C0C0C0C0C0C0C0C0C0C0002C6CC0C0C0C0C0C0C0C0C0C0C0C000E6
:208A80001C6C808080808080808080808080303C6CE0E0E0E0E0E0E0E0E0E0E0E0016B6B1F
:208AA000A8005400A8005400A80054006C6CA854A854A854A854A854A854006C6C54FCA832
:208AC000FC54FCA8FC54FCA8FC0A6262FCFC501C6C80808080808080808080808000366678
:208AE000E0E0E0E0E0E0303666E0E0E0E0E0E0063666E0E0E0E0E0E0006C6CE0E0E0E0E010
:208B0000E0FCFCFCFCFCFC006C6CE0E0E0E0E0E01C1C1C1C1C1C006C6CFCFCFCFCFCFCE02D
:208B2000E0E0E0E0E0006C6CFCFCFCFCFCFC1C1C1C1C1C1C363666E0E0E0E0E0E0006C6C83
:208B40001C1C1C1C1C1CE0E0E0E0E0E0006C6C1C1C1C1C1C1CFCFCFCFCFCFC025565F8F819
:208B6000F8F8F8025565F8888888F80255657088888870025565F888A888F8025565F888F5
:208B8000F888F8025565F8A8A8A8F8025565F8A8F8A8F8025565F8C8A898F8025565F898C5
:208BA000A8C8F8025565F8D8A8D8F8143363E0E0E0143363E0A0E0036565FCFCFCFCFC0339
:208BC0006565FC848484FC114A6AF0F0F0F0F0F0F0F0F0F0114A6AF09090909090909090ED
:208BE000F00463633C78F00463633C48F002576720207070F8F8F802576720205050888861
:208C0000F803556520207070F803556520205050F812476780C0E0F0E0C08012476780C002
:208C2000A090A0C08013356580C0E0C08013356580C0A0C080036565C0F0FCF0C003656554
:208C4000C0B08CB0C0025767F8F8F870702020025767F8888850502020025565F870702084
:208C600020025565F850502020124767103070F07030101247671030509050301013356513
:208C80002060E060201335652060A060200365650C3CFC3C0C0365650C34C4340C03556580
:208CA0002070F8702003556520508850200355652050A850200266663048B4B448300257B3
:208CC000672050508850502002666630488484483002666620088004401002556570A8A819
:208CE000A8700257677088A8D8A888700266663078FCFC78300266663068E4E46830026640
:208D00006630589C9C5830026666304884FC78300266663078FC84483002666630589C8453
:208D200048300266663068E484483012596908387878F87878380802596980E0F0F0F8F05D
:208D4000F0E080006C6CFCFCFCFCCC8484CCFCFCFCFC006C6CFCFCFCCCB47878B4CCFCFCB7
:208D6000FC066666FCFCFCCCB47800666678B4CCFCFCFC0533632040803533638040203229
:208D8000336320408002336380402005636330488402636384483002556508183878F802D4
:208DA000556580C0E0F0F8025565F8F0E0C080025565F87838180802556570888888700273
:208DC0005565F8E8E8E8F8025565F8B8B8B8F8025565F8F8E8C8F8025565F898B8F8F80213
:208DE0005565F8A8A8A8F802576720205070A888F802576720207070E8E8F8025767202041
:208E00007070B8B8F802676730488484844830025565F8A8E888F8025565F888E8A8F80234
:208E20005565F888B8A8F8025565F8A8B888F802556570A8E888700255657088E8A87002A2
:208E400055657088B8A87002556570A8B88870035565F890A0C080035565F848281808039F
:208E6000556580C0A090F8144464F09090F0134464F0F0F0F0144464F09090F0144464F031
:208E8000F0F0F003556508182848F85275737369616E0054FC726B00457370616E6F6C00D9
:208EA0004465757473636800456E676C6973680000000426044000000096000000044C04C0
:208EC00000000000BB000000044D0400000000BC000000042E040000000090000000042AD2
:208EE00004000000008F000000042B04000000008E000000042C04000000008D0000000459
:208F00002904000000008C00000004130400000000550000000412040000000054000000BA
:208F20000411040000000053000000041604000000005100000004150400000000500000E9
:208F400000041404000000004F000000040F040000000038000000040E040000000037000A
:208F60000000040D040000000035000000040C040000000034000000040B04000000003319
:208F8000000000040A0400000000310000000409040000000030000000040804000000003D
:208FA0002F0000000000000000000089000000000000000000008800000000000000000071
:208FC00000860000000000000000000085008B8E03B026000000000000938E03AE2600009C
:208FE00000000000988E03A926000000000000A08E03A526000000000000A88E03A426007A
:209000000000000000000004D004000000002201000004CF04000000002801000001000054
:209020000000000021010000038204000000000A010000038104000000003F000000038030
:2090400004000000003E000000037F04000000003D000000037E04000000003C002F97FD87
:209060008EF28EE78EDC8ED18EC68EBB8EE992DE92D392C892BD92B292A792B08E9C922FF6
:20908000973F8F348F298F1E8F138F088F2F97978F8C8F818F768F6B8F608F558F4A8FAD9B
:2090A0008FA28FC38FB88F2F97FA8FEF8FE48FD98FCE8F1B902F97109005902F97529047BD
:2090C000903C903190269002000011005D9002000007007F9002000009008D90035804021C
:2090E000009F900320040200A3900200000600A7900200000400B3900200000600BB90000A
:209100000003DB040000000037010000030704000000003B000000030604000000003A00A5
:20912000000002C790000000000F00000002CE90000000004E00000002D590000000003979
:2091400000000002DC90000000008700000002E39000000000840000000410040000000009
:209160008B00000002EA9000000000E400000003B40400000000D200000002F190000000F4
:20918000002101000002F890000000001100000004BD0400001000E300000003B90400009A
:2091A0001000E100000003B80400001000E000000003B60400001000DF00000003B50400A7
:2091C000001000DE00000003BE0400001000DD00000003B70400001000DC00000004B60F7C
:2091E000000000000901000004B50F000000000801000004B40F00000000070100000000C5
:209200000000000000F200000000000000000000AB00000000000000000000700000000041
:209220000000000000006F00000003E803000000002D010000038813000000002C010000D8
:2092400004F203000000002A01000001000000000000CB002F97629157914C914191369107
:209260002B912091189B15910A91FF902F97839178916D912F97D091C591BA91AF91A491E0
:2092800099918E912F97F191E691DB911D9212920792FC9149923E92339228920000042F84
:2092A00004000000009B0000000422044000000095000000042604200000009A0000000424
:2092C0002504200000009900000004240420000000980000000423042000000097000000E6
:2092E0000422042000000094000000042D040000000093000200000C0054920200000400CE
:209300006C92020000080074920200000400849203F00304008C92820000040094922F9799
:20932000E992DE92D392C892BD92B292A7929C92000002F492000010000D00000002FB9255
:20934000000010000E01000002E39B000000001000000002029300001000D900000002A438
:209360009B000010000F000000029D9B000010000E00000004570410000000CA000000039F
:20938000B40410000000D2000000045204100000007E00000004480410000000B10000003A
:2093A00002179310000000CB000000041F0410000000B000000004610410000000240000A2
:2093C00000046204100000002500000003C404040000004A000000034B0410000400490026
:2093E000000003C50410000400C900000002AB9B000010000B00000000000000000000E081
:2094000000000000000000000000DA00000000000000000000DF0000000000000000000093
:20942000DA00000000000000000000E100000000000000000000DA00000000000000000097
:2094400000DE00000000000000000000DA00000000000000000000DD000000000000000077
:209460000000DA00000000000000000000DC00000000000000000000DA000000000000005C
:20948000000000CF00000000000000000000CE00000000000000000000CD00000000000062
:2094A00000000000CC000000020993000000000601000002C79B000000002100000002B202
:2094C0009B000000002200000002CE9B000000001F00000002B99B000000002000000002CD
:2094E000D59B000000001D00000002C09B000000001E000000030004000010001600000037
:2095000003FF03000010001500000003FE030000100014000000034404000000002E000080
:20952000000210930000000023000000033A0400000000280000000462040000000025006B
:2095400000000461040000000024000000034304000010001C000000033104000010001BA5
:20956000000000033804000000001A000000034704000000001800000003370400000000EE
:209580001700000002179300000000CB000000045204000000007E00000004480400000015
:2095A00000B1000000041F0400000000B000000004570400000000CA00000003FD030000F7
:2095C000100013000000000000000000006E000000000000000000006D000000000000008D
:2095E0000000006C000000000000000000006B000000000000000000006A0000000000002A
:20960000000000006900000000000000000000680000000000000000000067000000000012
:209620000000000000660000000000000000000065000000000000000000006400000000FB
:209640000000000000006300000000000000000000620000000000000000000061000000E4
:209660000000000000000060000000000000000000005F000000000000000000005E0000CD
:2096800000000000000000005D000000000000000000005C000000000000000000005B00B6
:2096A0000000000000000000005A000000000000000000005900000000000000000000589F
:2096C000000000000000000000005700000003C624100000000300000003E8030000000045
:2096E0000400000001000000000000C900000001000000000000F400000003F403010002AA
:20970000004D00000002DC9B02000000C900000003F703060000004A00000003F60302006D
:2097200004004900000003F503010002004800000003E803000000000A000000000000009E
:2097400000000039010000000000000000003801000000000000000000A8000000000000EE
:2097600000000000A700000000000000000000A600000000000000000000A50000000000F7
:2097800000000000001301000000000000000000F4000000000000000000002001000000A0
:2097A000000000000000F40002000009001E932F97EB93E093D593CA93BF93B493A9939E0A
:2097C00093939388937D937293249767935C93519346933B9330930194F69317940C942D18
:2097E0009422944394389459944E946F9464949B94909485947A942F97B9950995FE94F301
:2098000094E894DD94D294C794BC94B1941F95A6942F97409535952A951F9514952F97B983
:2098200095AE95A39598958D95829577956C95619556954B95E595DA95CF95C49511960691
:2098400096FB95F0953D96329627961C9669965E965396489695968A967F967496C196B622
:2098600096AB96A096ED96E296ED96D796CC962F97249719970E970397F8962F9745973AB4
:20988000975B975097719766979D97929787977C97000000000000000000F70000000000CE
:2098A0000000000000DA009C9891980000000000000000001C01000000000000000000F460
:2098C000000000000000000000001B01000000000000000000170100000000000000000054
:2098E0001C01000000000000000000F4000000000000000000001A0100000000000000003C
:209900000017010000000000000000001C01000000000000000000F400000000000000001E
:209920000000190100000000000000000017010000000000000000001C01000000000000D8
:20994000000000F40000000000000000000018010000000000000000001701CC98C198B66F
:2099600098AB98F898ED98E298D798249919990E990399509945993A992F990000000000FA
:2099800000000000F300000000000000000000F400000000000000000000F40000000000EC
:2099A0000000000000B10000000000000000000024000000000000000000002500000000AD
:2099C000000000000000F300000000000000000000B000000000000000000000AA0000003A
:2099E000000000000000005F000000000000000000005B0000000000000000000057000056
:209A00000000000000000000F300000000000000000000F400000000000000000000F1006E
:209A2000000000000000000000C400000000000000000000F000000000000000000000C3AF
:209A400000000000000000000000EA00000000000000000000E90000000000000000000033
:209A6000E800000000000000000000E700000000000000000000E600000000000000000031
:209A800000E500B299A7999C99919986997B99F499E999DE99D399C899BD99369A2B9A2066
:209AA0009A159A0A9AFF99789A6D9A629A579A4C9A419A0000000600839A00000006008FA2
:209AC0009A00000006009B9A0000000600A79A0000446F6E6520736176696E672066696CE1
:209AE000652E006572726F722077726974696E6720746F2066696C650052657175657374D9
:209B000050617573653A0052657175657374436F6E74696E75653A00000002A89700000064
:209B200000A20044656C6574696F6E206661696C65640046696C652064656C657465640053
:209B40000200001400AF970310270200D7970310270200DB970310270200DF970310270263
:209B600000E3970310270200E7970310270200EB970588130400EF97696D706F7274616E5F
:209B8000743A2046696C616D656E74206368616E676520726571756972656421000200009D
:209BA0000D00F797020000060011980200000C001D9803FC030400359803FB0304003D98E9
:209BC00003FA030400459803EF0304004D9803EE030400559803ED0304005D9802000005EE
:209BE00000659802000006006F9801000001007B9803102702007D9803102702008198039B
:209C00001027020085984A616D20636F6E74726F6C2064697361626C65643A0005CC04044A
:209C2000008998008025000040380000004B00008070000000960000C0DA000000E100009A
:209C4000002C010008B2010000C2010000F401000084030090D0030000E803000008070080
:209C600020A1070000100E0040420F0060E31600000000000310270200A7982F0005CB0496
:209C800004005B9905CB040400639905CB0404006B9905CB04040073995344204361726407
:209CA00020756E6D6F756E7465640043617264207375636365737366756C6C7920696E6986
:209CC0007469616C697A65642E0043616E2774206F70656E20726F6F742064697265637402
:209CE0006F72792E0A0043616E27742066696E6420612076616C69642046415431362F46DC
:209D00004154333220706172746974696F6E2E0A006572726F72436F64653A20000A534477
:209D200020696E697469616C697A6174696F6E206661696C65642E0A446F206E6F742072A8
:209D400065666F726D6174207468652063617264210A497320746865206361726420636F06
:209D600072726563746C7920696E7365727465643F0A4973206368697053656C6563742017
:209D800073657420746F2074686520636F72726563742076616C75653F0A446F657320616F
:209DA0006E6F746865722053504920646576696365206E65656420746F2062652064697371
:209DC00061626C65643F0A4973207468657265206120776972696E672F736F6C64657269FC
:209DE0006E672070726F626C656D3F00534420696E6974206661696C000046696C65207304
:209E0000656C6563746564002053697A653A0046696C65206F70656E65643A0066696C6582
:209E20002E6F70656E206661696C65640000002100240027002A002D003000330001010095
:209E400000040107010A01010210202008081020401020408002010201080402010102040B
:209E600008102040808040201008040201800402018040201008040201080402010102044F
:209E80000810204080010204081020408005050505070508080808020202020A0A0808045B
:209EA00004040401010101010101010303030303030303040707070C0C0C0C0C0C0C0C02FB
:209EC00002020206060606060606060B0B0B0B0B0B0B0B5344207072696E742073746F702A
:209EE00070656420627920757365722E00C89AC19ABA9AB39A453A2565632F254563022039
:209F00002D2D20533A256562002020203F2E3F3F0020486F6D696E670020646563200020F5
:209F200064656620002000040003000000003FCDCC4C3D0AD7A33B6F12033A17B75138ACCA
:209F4000C5A73600070A00FE07020F03A100FFFE08FE07FE050707060000A80088008800BB
:209F6000A80508080600000808082848F8402003030306010440A040050505060000F8F805
:209F8000F8F8F8050505060000F8888888F80508080600002050505070F8F8700705050927
:209FA00000001CFE8282FE0508080600008850208820508888FFFFFFFFFFFFFFFFFFFFFF75
:209FC000FFFFFFFFFFFFFFFFFFFFFFFFFF0000000605FF010707060200808080808000806D
:209FE000030303060104A0A0A00507070600005050F850F850500507070600002070A0701B
:20A0000028702005070706000048A8502050A89005070706000040A0A040A8906801030307
:20A02000060204808080030707060100204080808040200307070601008040202020408044
:20A040000505050600018850F850880505050600012020F820200303030601FF6040800481
:20A060000101060103F00101010601008005070706000008081020408080050707060000A8
:20A08000205088888850200507070600002060A0202020F8050707060000708808304080AE
:20A0A000F8050707060000F808103008887005070706000010305090F810100507070600E5
:20A0C00000F880B0C8088870050707060000304080B0C88870050707060000F808101020BE
:20A0E0004040050707060000708888708888700507070600007088986808106002060606BA
:20A1000001FFC0C00000C0C00307070601FF40E0400060408004070706010010204080405F
:20A120002010050303060002F800F8040707060100804020102040800507070600007088F2
:20A140001020200020050707060000708898A8B0807005070706000020508888F8888805F8
:20A160000707060000F04848704848F005070706000070888080808870050707060000F0C9
:20A180004848484848F0050707060000F88080F08080F8050707060000F88080F0808080ED
:20A1A00005070706000070888080988870050707060000888888F8888888030707060100A5
:20A1C000E04040404040E0050707060000381010101090600507070600008890A0C0A0903D
:20A1E00088050707060000808080808080F80507070600008888D8A888888805070706006C
:20A20000008888C8A898888805070706000070888888888870050707060000F08888F080EC
:20A2200080800508080600FF7088888888A87008050707060000F08888F0A0908805070780
:20A2400006000070888070088870050707060000F82020202020200507070600008888888E
:20A260008888887005070706000088888850505020050707060000888888A8A8D8880507A8
:20A28000070600008888502050888805070706000088885020202020050707060000F808BF
:20A2A00010204080F8030707060100E08080808080E00507070600008080402010080803C2
:20A2C0000707060100E02020202020E00503030600042050880501010600FFF802020206EC
:20A2E0000206804005050506000070087888780507070600008080B0C888C8B005050506EB
:20A3000000007088808870050707060000080868988898680505050600007088F880700522
:20A320000707060000304840F04040400507070600FE7888887808887005070706000080F1
:20A3400080B0C88888880307070601004000C0404040E00409090601FE100030101010909A
:20A36000906005070706000080808890E09088030707060100C04040404040E005050506B7
:20A380000000D0A8A8A888050505060000B0C88888880505050600007088888870050707A8
:20A3A0000600FEB0C888C8B080800507070600FE68988898680808050505060000B0C88065
:20A3C000808005050506000070807008F00507070600004040F0404048300505050600007A
:20A3E000888888986805050506000088885050200505050600008888A8A850050505060006
:20A400000088502050880507070600FE88889868088870050505060000F8102040F80407C5
:20A4200007060100304020C020403001070706020080808080808080040707060100C0209E
:20A4400040304020C005030306000448A890040606060101F090909090F0FFFFFFFFFFFFA5
:20A46000FFFFFFFFFFFFFFFFFFFFFFFFFFFFFFFFFFFFFFFFFFFFFFFFFFFFFF0508080600DC
:20A48000005000F880F08080F80509090600FEE040407048484808300508080600001020C6
:20A4A000F88080808080050707060000708880E0808870050707060000708880700888703A
:20A4C000030707060100E04040404040E0030808060100A000E040404040E00507070600D1
:20A4E000003808080808887006070706000030505098949498050707060000A0A0A0F0A839
:20A50000A8B0050707060000E040407048484805080806000010208890E090888805010138
:20A52000060003F805080806000050208888502040800508080600005000F880F08080F884
:20A5400005070706000020508888F88888050707060000F08080F08888F005070706000048
:20A56000F08888F08888F0050707060000F88080808080800508080600FF18282848484880
:20A58000F888050707060000F88080F08080F8050707060000A8A8A870A8A8A805070706B0
:20A5A000000070880830088870050707060000888898A8C88888050808060000502088987F
:20A5C000A8C888880507070600008890A0C0A0908805070706000038484848484888050765
:20A5E000070600008888D8A8888888050707060000888888F88888880507070600007088D4
:20A600008888888870050707060000F8888888888888050707060000F08888F080808005DB
:20A62000070706000070888080808870050707060000F82020202020200507070600008824
:20A640008888502040800507070600002070A8A8A870200507070600008888502050888890
:20A660000509090600FE909090909090F808080507070600008888887808080805070706FD
:20A680000000A8A8A8A8A8A8F80509090600FEA8A8A8A8A8A8F80808050707060000C040A6
:20A6A0004070484870050707060000888888E89898E8040707060100808080E09090E005BB
:20A6C00007070600007088083808887005070706000090A8A8E8A8A89005070706000078DC
:20A6E000888878284888050505060000700878887805070706000078807088888870050542
:20A7000005060000F088F088F0040505060100F0808080800506060600FF30505050F88893
:20A720000505050600007088F88070050505060000A8A870A8A8050505060000708830883A
:20A74000700505050600008898A8C88805070706000050208898A8C888050505060000881E
:20A7600090E09088050505060000384848488805050506000088D8A8888805050506000062
:20A780008888F888880505050600007088888870050505060000F8888888880507070600CE
:20A7A000FEB0C888C8B080800505050600007088808870050505060000F820202020050705
:20A7C000070600FE888888780888700509090600FE202070A8A8A8702020050505060000D6
:20A7E00088502050880507070600FE90909090F8080805050506000088887808080505056E
:20A80000060000A8A8A8A8F80507070600FEA8A8A8A8F80808050505060000C0407048709E
:20A820000505050600008888E898E80405050601008080E090E00505050600007088388859
:20A840007005050506000090A8E8A8900505050600007888788888FF050707060000500016
:20A860007088F880700509090600FE40F040704848480830040808060100204000F0808082
:20A8800080800405050601006090C0906005050506000070807008F003070706010040003E
:20A8A000C0404040E0030707060100A000C0404040E00409090601FE100030101010909075
:20A8C000600605050600003050989498050505060000A0A0F0A8B005070706000040F04098
:20A8E0007048484805070706000010208890E09088FFFFFF00070A00FE07026903FB00FF3C
:20A90000FE08FE07FE050707060000A80088008800A80508080600000808082848F84020BA
:20A9200003030306010440A040050505060000F8F8F8F8F8050505060000F8888888F80554
:20A9400008080600002050505070F8F8700705050900001CFE8282FE0508080600008850D8
:20A96000208820508888060808060000489048FCFC783030060808060000244824FCFC7887
:20A980003030060505060000FCFC783030060202060000FCFC06060606000048904890FCA5
:20A9A000FC06060606000024482448FCFC0707070700008244382838448207070707000057
:20A9C000101038EE381010FFFFFFFFFFFFFFFFFFFFFFFFFFFFFFFF0000000605FF010707D0
:20A9E00006020080808080800080030303060104A0A0A00507070600005050F850F85050C2
:20AA00000507070600002070A07028702006080806000044A44810204894880507070600CC
:20AA20000040A0A040A89068010303060204808080030707060100204080808040200307C1
:20AA400007060100804020202040800505050600018850F850880505050600012020F820DC
:20AA6000200303030601FF604080040101060103F00202020601FFC0C005070706000008DA
:20AA8000081020408080050707060000205088888850200507070600002060A0202020F81C
:20AAA000050707060000708808304080F8050707060000F808103008887005070706000023
:20AAC00010305090F81010050707060000F880B0C8088870050707060000304080B0C8882C
:20AAE00070050707060000F80810102040400507070600007088887088887005070706006B
:20AB00000070889868081060020505060201C0C000C0C00307070601FF40E0400060408019
:20AB200004070706010010204080402010050303060002F800F80407070601008040201090
:20AB400020408005070706000070881020200020050707060000708898A8B0807005070790
:20AB600006000020508888F88888050707060000F04848704848F00507070600007088802D
:20AB800080808870050707060000F04848484848F0050707060000F88080F08080F8050757
:20ABA00007060000F88080F080808005070706000070888080988870050707060000888856
:20ABC00088F8888888030707060100E04040404040E00507070600003810101010906005BF
:20ABE00007070600008890A0C0A09088050707060000808080808080F8050707060000885F
:20AC000088D8A88888880507070600008888C8A898888805070706000070888888888870B2
:20AC2000050707060000F08888F08080800508080600FF7088888888A870080507070600A8
:20AC400000F08888F0A0908805070706000070888070088870050707060000F820202020BA
:20AC6000202005070706000088888888888870050707060000888888505050200507070601
:20AC80000000888888A8A8D8880507070600008888502050888805070706000088885020DA
:20ACA000202020050707060000F80810204080F8030707060100E08080808080E0050707C8
:20ACC00006000080804020100808030707060100E02020202020E005030306000420508869
:20ACE0000501010600FFF8020202060206804005050506000070087888780507070600005E
:20AD00008080B0C888C8B00505050600007088808870050707060000080868988898680580
:20AD200005050600007088F88070050707060000304840F04040400507070600FE78888803
:20AD4000780888700507070600008080B0C88888880307070601004000C0404040E004098D
:20AD6000090601FE10003010101090906005070706000080808890E0908803070706010094
:20AD8000C04040404040E0050505060000D0A8A8A888050505060000B0C88888880505053A
:20ADA00006000070888888700507070600FEB0C888C8B080800507070600FE6898889868E7
:20ADC0000808050505060000B0C880808005050506000070807008F0050707060000404050
:20ADE000F040404830050505060000888888986805050506000088885050200505050600C4
:20AE0000008888A8A85005050506000088502050880507070600FE8888986808887005056C
:20AE200005060000F8102040F8040707060100304020C02040300107070602008080808097
:20AE4000808080040707060100C02040304020C005030306000448A890FFFFFFFFFFFFFF5B
:20AE6000FFFFFFFFFFFFFFFFFFFFFFFFFFFFFFFFFFFFFFFFFFFFFFFFFFFFFF0107070602D6
:20AE800000800080808080800507070600FF2078A0A0A07820050707060000304840E04099
:20AEA00048B005050506000088705070880508080600FF88885020F820202001070706023C
:20AEC00000808080008080800508080600FF7080E09048380870030101060107A00507073A
:20AEE0000600007088A8C8A888700406060601017090B05000F006050506000024489048E2
:20AF000024040202060102F010FF0507070600007088E8C8C88870050101060007F803036A
:20AF20000306010440A0400506060600002020F82020F804050506010360902040F00405FB
:20AF400005060103E0106010E00202020602064080FF05070706000078E8E868282828018D
:20AF60000101060203800202020602FE408003050506010340C04040E00406060601016089
:20AF800090906000F006050506000090482448900609090600FF40C04040E40C143C040670
:20AFA00009090600FF40C04040E81404081C0509090600FFC0204020C818287808050707DF
:20AFC000060000200020204088700508080600004020708888F88888050808060000102085
:20AFE000708888F888880508080600002050708888F8888805080806000048B0708888F82B
:20B0000088880508080600005000708888F888880508080600002050708888F8888806070D
:20B02000070600003C50909CF0909C0509090600FE70888080808870204005080806000029
:20B0400040F88080F08080F805080806000010F88080F08080F805080806000020F8808092
:20B06000F08080F805080806000050F88080F08080F80308080601008040E040404040E003
:20B080000308080601002040E040404040E003080806010040A0E040404040E003080806A3
:20B0A0000100A000E040404040E0050707060000F04848E84848F005080806000028508813
:20B0C000C8A898888805080806000040207088888888700508080600001020708888888802
:20B0E0007005080806000020507088888888700508080600002850708888888870050808AD
:20B1000006000050007088888888700505050600008850205088050707060000709898A893
:20B12000C8C870050808060000402088888888887005080806000010208888888888700514
:20B1400008080600002050008888888870050808060000500088888888887005080806003B
:20B1600000102088885020202005070706000080F088F0808080050707060000708890A01D
:20B180009088B005080806000040200070087888780508080600001020007008788878053C
:20B1A00008080600002050007008788878050808060000285000700878887805070706007D
:20B1C0000050007008788878050808060000205020700878887806050506000078147C90E6
:20B1E0007C0507070600FE708880887020400508080600004020007088F880700508080676
:20B2000000001020007088F880700508080600002050007088F8807005070706000050004A
:20B220007088F88070030808060100804000C0404040E0030808060100408000C04040409A
:20B24000E003080806010040A000C0404040E0030707060100A000C0404040E00507070683
:20B260000000C0307088888870050808060000285000B0C888888805080806000040200048
:20B280007088888870050808060000102000708888887005080806000020500070888888E0
:20B2A00070050808060000285000708888887005070706000050007088888870050505061D
:20B2C00000012000F800200505050600007898A8C8F005080806000040200088888898689D
:20B2E00005080806000010200088888898680508080600002050008888889868050707062F
:20B300000000500088888898680509090600FE1020888898680888700508080600FE80F061
:20B32000888888F080800509090600FE50008888986808887000090900FF06026603D800B0
:20B34000FFFF08FF06FF050505050000A8008800A80508080600000808082848F8402003F9
:20B36000030303000340A040050505060000F8F8F8F8F8050505060000F8888888F805080A
:20B38000080600002050505070F8F8700705050900001CFE8282FE05080806000088502076
:20B3A00088205088880807070800005EFFFFEF6634180807070800007EDFCFEF7E3C180857
:20B3C00007070800007EC381814224180804040800FF7E8181FF0809090800FF82D3590829
:20B3E000007EFFFFFF0809090800FF109ACB41007EFFFFFF0909120900FF73008A80DC807B
:20B400003E807700BE009D80A88067000909120900FF3C0043005C80BE80B680BE809D00B7
:20B4200061001E00FFFFFFFFFFFFFFFFFFFFFFFFFFFFFFFF00000005040001060605020080
:20B44000808080800080030303050103A0A0A005050505000050F850F85005050505000072
:20B4600070A070287004060605000080902040901004050505000040A040A0500103030560
:20B48000020380808002060605010040808080804002060605010080404040408003050572
:20B4A000050100A040E040A00505050500002020F820200303030501FF6040800301010522
:20B4C0000102E0020202050100C0C00404040500011020408003060605010040A0A0A0A026
:20B4E0004003060605010040C0404040E00406060500006090102040F0040606050000F0ED
:20B5000010601090600406060500002060A0F02020040606050000F080E0109060040606E1
:20B520000500006080E0909060040606050000F0102020404004060605000060906090906C
:20B5400060040606050000609090701060020505050100C0C000C0C00306060500FF606031
:20B56000006040800305050501002040804020040303050001F000F0030505050100804095
:20B5800020408003060605010040A0204000400406060500006090B0B080600406060500DC
:20B5A00000609090F09090040606050000E090E09090E0040606050000609080809060049D
:20B5C0000606050000E090909090E0040606050000F080E08080F0040606050000F080E0A0
:20B5E000808080040606050000609080B090700406060500009090F09090900306060501AC
:20B6000000E040404040E004060605000010101010906004060605000090A0C0C0A090042C
:20B6200006060500008080808080F005060606000088D8A888888804060605000090D0D08D
:20B64000B0B090040606050000609090909060040606050000E09090E080800407070500D9
:20B66000FF60909090D06010040606050000E09090E0A09004060605000060904020906001
:20B68000030606050100E040404040400406060500009090909090600406060500009090FB
:20B6A000909060600506060600008888A8A8A8D8040606050000909060609090030606058A
:20B6C0000100A0A0A0A04040040606050000F010204080F0030606050100E080808080E0AF
:20B6E00004040405000180402010030606050100E020202020E003020205010440A00401FD
:20B7000001050000F002020205010480400404040500007090B0500406060500008080E05D
:20B720009090E0030404050000608080600406060500001010709090700404040500006093
:20B74000B0C060040606050000205040E040400405050500FF70906080700406060500007D
:20B760008080E09090900306060501004000C04040E00307070501FF2000202020A040044A
:20B7800006060500008080A0C0A090030606050100C040404040E0050404060000F0A8A800
:20B7A000A8040404050000E0909090040404050000609090600405050500FFE09090E080DD
:20B7C0000405050500FF7090907010040404050000E090808004040405000070C030E00471
:20B7E00006060500004040E040403004040405000090909070030404050100A0A0A04005C1
:20B8000004040600008888A850040404050000906060900405050500FF9090502040040437
:20B8200004050000F02040F00306060501002040C0404020010606050200808080808080D6
:20B8400003060605010080406040408004020205000450A0FFFFFFFFFFFFFFFFFFFFFFFFBE
:20B86000FFFFFFFFFFFFFFFFFFFFFFFFFFFFFFFFFFFFFFFFFFFF040606050000F080E080F9
:20B8800080F00407070500FFE0406050501020040606050000F08080808080040606050038
:20B8A000006090C0809060040606050000609040209060030606050100E040404040E0033B
:20B8C0000606050100E040404040E004060605000010101010906005060605000060A0B08B
:20B8E000A8A8B0050606050000A0A0F0A8A8B0040606050000E04060505050040606050068
:20B900000090A0C0C0A090030101050103E0030606050100A0A0A04040800307070501FF4E
:20B92000A0A0A0A0A0E040040606050000609090F09090040606050000E080E09090E004C9
:20B940000606050000E090E09090E0040606050000F090808080800407070500FF3050500B
:20B960005050F090040606050000F080E08080F0050606050000A8A87070A8A804060605A7
:20B980000000E0106010906004060605000090B0B0D0D090040606050000D0B0B0D0D090AD
:20B9A00004060605000090A0C0C0A09004060605000030505050509005060606000088D806
:20B9C000A88888880406060500009090F09090900406060500006090909090600406060528
:20B9E0000000F09090909090040606050000E09090E080800406060500006090808090609D
:20BA0000050606050000F82020202020030606050100A0A0A04040800506060500002070DD
:20BA2000A8A870200406060500009090606090900407070500FF9090909090F0100406061B
:20BA4000050000909090701010050606050000A8A8A8A8A8F80507070500FFA8A8A8A8A8EC
:20BA6000F808040606050000C040605050600406060500009090D0B0B0D004060605000007
:20BA80008080E09090E0040606050000609030109060040606050000A0D0D0D0D0A00406F2
:20BAA000060500007090907050900404040500007090B0500405050500006080E0906004C3
:20BAC0000404050000E0A090E0040404050000F08080800405050500FF305050F09004047E
:20BAE0000405000060B0C060050404050000A87070A80305050400FFE02060A0C0040404EF
:20BB000005000090B0D090040606050000600090B0D09004040405000090E0A090040404AE
:20BB20000500003050509005040406000088D8A8A804040405000090F0909004040405001B
:20BB40000060909060040404050000F09090900405050500FFE09090E080030404050000D2
:20BB600060808060030404040000E04040400405050500FF90905020400505050600FF70F0
:20BB8000A8702020030404040000A04040A00405050500FF909090F010040404050000901B
:20BBA000907010050404060000A8A8A8F80505050600FFA8A8A8F808040404050000C06035
:20BBC000506004040405000090D0B0D003040404000080E0A0E0030404050100E06020E084
:20BBE000040404050000A0D0D0A003040404000060A060A0050606050000180890D0B0906F
:20BC0000040606050000A00060B0C0600407070500FF40E0406050102004060605000020B4
:20BC200040F080808003040405010060C0806004040405000070C030E0030606050100409D
:20BC400000C04040E0030606050100A000C04040E00307070501FF2000202020A040050470
:20BC60000405000060B8A8B0050404050000A0F0A8B005060605000040E0407048480406D1
:20BC800006050000204090E0A09003060605010060A0C06020C00407070500FF90600090EE
:20BCA0005020400305050501FFA0A0A0E04000050700FF06024803BA00FFFF08FF06FF059B
:20BCC0000505050000A8008800A80508080600000808082848F8402003030306010440A08E
:20BCE00040050505060000F8F8F8F8F8050505060000F8888888F80508080600002050509F
:20BD00005070F8F8700705050900001CFE8282FE05080806000088502088205088880608A4
:20BD200008060000489048FCFC783030060808060000244824FCFC78303006050506000073
:20BD4000FCFC783030060202060000FCFC06060606000048904890FCFC060606060000240F
:20BD6000482448FCFC07070707000082443828384482070707070000101038EE381010FF1E
:20BD8000FFFFFFFFFFFFFFFFFFFFFFFFFFFFFF000000050400010606050200808080800095
:20BDA00080030303050103A0A0A005050505000050F850F85005050505000070A0702870F1
:20BDC00004060605000080902040901004050505000040A040A0500103030502038080808A
:20BDE000020606050100408080808040020606050100804040404080030505050100A040A8
:20BE0000E040A00505050500002020F820200303030501FF604080040101050002F00202A7
:20BE200002050100C0C00404040500011020408003060605010040A0A0A0A040030606054F
:20BE4000010040C0404040E00406060500006090102040F0040606050000F0106010906067
:20BE60000406060500002060A0F02020040606050000F080E0109060040606050000608003
:20BE8000E0909060040606050000F010202040400406060500006090609090600406060573
:20BEA0000000609090701060020505050100C0C000C0C00306060500FF606000604080031A
:20BEC00005050501002040804020040303050001F000F00305050501008040204080030666
:20BEE0000605010040A0204000400406060500006090B0B08060040606050000609090F0EC
:20BF00009090040606050000E090E09090E004060605000060908080906004060605000092
:20BF2000E090909090E0040606050000F080E08080F0040606050000F080E08080800406BD
:20BF400006050000609080B090700406060500009090F0909090030606050100E04040402C
:20BF600040E004060605000010101010906004060605000090A0C0C0A09004060605000052
:20BF80008080808080F004060605000090F0F090909004060605000090D0D0B0B0900406BD
:20BFA00006050000609090909060040606050000E09090E080800407070500FF609090905B
:20BFC000D06010040606050000E09090E0A090040606050000609040209060030606050192
:20BFE00000E0404040404004060605000090909090906004060605000090909090606004C3
:20C000000606050000909090F0F090040606050000909060609090030606050100A0A0A0E5
:20C02000404040040606050000F010204080F0030606050100E080808080E0040404050075
:20C040000180402010030606050100E020202020E003020205010440A0040101050000F0AE
:20C0600002020205010480400404040500007090B0500406060500008080E09090E00304E3
:20C08000040500006080806004060605000010107090907004040405000060B0C060040657
:20C0A00006050000205040E040400405050500FF70906080700406060500008080E09090EE
:20C0C000900306060501004000C04040E00307070501FF2000202020A040040606050000D0
:20C0E0008080A0C0A090030606050100C040404040E0040404050000A0F090900404040529
:20C100000000E0909090040404050000609090600405050500FFE09090E080040505050019
:20C12000FF7090907010040404050000E090808004040405000070C030E004060605000009
:20C140004040E040403004040405000090909070030404050100A0A0A0400404040500005C
:20C160009090F0F0040404050000906060900405050500FF9090502040040404050000F0EB
:20C180002040F00306060501002040C0404020010606050200808080808080030606050151
:20C1A0000080406040408004020205000450A0FFFFFFFFFFFFFFFFFFFFFFFFFFFFFFFFFF6F
:20C1C000FFFFFFFFFFFFFFFFFFFFFFFFFFFFFFFF00000005040001060605020080008080D2
:20C1E00080800406060500FF2070A0A070200405050500003040E040B005050505000088DC
:20C2000070507088030606050100A0A040E040400105050502008080008080030707050148
:20C22000FF6080C0A06020C0030101050105A00507070500FF7088A8C8A8887003030305A2
:20C24000000360A060050303050001489048040202050001F010030101050102E00507073C
:20C260000500FF7088E8C8C88870040101050005F003030305010340A0400506060500000A
:20C280002020F82020F8020404050102C04080C0020404050102C0C040C00202020501043A
:20C2A00040800405050500FF909090E08004060605000070D0D0505050020202050102C0B9
:20C2C000C00202020501FF408003040405010240C040E003030305000340A040050303055F
:20C2E00000019048900407070500FF808080903070100407070500FF808080B01020300455
:20C3000007070500FFC0C040D030701003060605010040004080A0400406060500006090D1
:20C3200090F09090040606050000609090F09090040606050000609090F0909004060605FE
:20C340000000609090F09090040606050000906090F09090040606050000606090F0909033
:20C3600004060605000070A0B0E0A0B00407070500FF60908080906040040606050000F07D
:20C3800080E08080F0040606050000F080E08080F0040606050000F080E08080F004060693
:20C3A000050000F080E08080F0030606050100E040404040E0030606050100E0404040406E
:20C3C000E0030606050100E040404040E0030606050100E040404040E0040606050000E0DE
:20C3E00050D05050E0040606050000B090D0B0B09004060605000060909090906004060663
:20C4000005000060909090906004060605000060909090906004060605000060909090904D
:20C42000600406060500009060909090600404040500009060609004060605000070B0B0B1
:20C44000D0D0E00406060500009090909090600406060500009090909090600406060500BD
:20C4600000909090909060040606050000900090909060030606050100A0A0A0404040041E
:20C48000060605000080E090E080800406060500006090A09090A004060605000040207071
:20C4A00090B05004060605000020407090B05004060605000020507090B0500406060500DD
:20C4C0000050A07090B05004060605000050007090B05004060605000060607090B050042E
:20C4E000040405000070B0A0700305050501FF6080806040040606050000402060B0C06048
:20C50000040606050000204060B0C06004060605000040A060B0C060040606050000A0009C
:20C5200060B0C0600306060501008040C04040E00306060501004080C04040E003060605CD
:20C54000010040A0C04040E0030606050100A000C04040E0040606050000403060909060A0
:20C5600004060605000050A0E090909004060605000040206090906004060605000020405C
:20C580006090906004060605000060006090906004060605000050A060909060040606056C
:20C5A00000005000609090600405050500006000F0006004040405000070B0D0E004060697
:20C5C00005000040209090907004060605000020409090907004060605000060009090901C
:20C5E000700406060500005000909090700407070500FF204090905020400406060500FFEC
:20C6000080E09090E0800407070500FF50009090502040001A0111241FBECFEFD1E2DEBFC9
:20C62000CDBF00E00CBF24E1AEE0B4E001C01D92A43EB207E1F714E0A0E0B2E0E8E2F7E909
:20C6400002E00BBF02C007900D92AE30B107D9F713E6CBE0D3E600E006C021970109802F5C
:20C66000FE010F94064ACA30D10780E00807A9F70F9418380D94924B0C940000089580E0D9
:20C6800008950895AF92BF92CF92DF92EF92FF920F931F93CF93DF936C017B018B01040F3A
:20C6A000151FEB015E01AE18BF08C017D10759F06991D601ED91FC910190F081E02DC601C4
:20C6C0001995892B79F7C501DF91CF911F910F91FF90EF90DF90CF90BF90AF9008958150CA
:20C6E000823108F05AC0E82FF0E08827E558FC498F4F0D94064A9B639F638D6393639763AE
:20C70000CD63A263A863AC63B263B663BA63C063C463CD63C863CE63D263809180008F77DD
:20C72000809380000895809180008F7DF9CF80918000877FF5CF84B58F7784BD089584B5B3
:20C740008F7DFBCF8091B0008F778093B00008958091B0008F7DF9CF809190008F7780938D
:20C7600090000895809190008F7DF9CF80919000877FF5CF8091A0008F778093A0000895A5
:20C780008091A0008F7DF9CF8091A000877FF5CF809120018F77809320010895809120015E
:20C7A0008F7DF9CF80912001877FF5CFCF93DF93282F30E0F901EF5FFD478491F901E95B8F
:20C7C000F146D491F901E357F146C491CC23A1F081110E946F63EC2FF0E0EE0FFF1FE95137
:20C7E000FE47A591B491EC91ED2381E090E009F480E0DF91CF91089580E090E0FACF3FB7C2
:20C80000F8948091D50C9091D60CA091D70CB091D80C26B5A89B05C02F3F19F00196A11DAF
:20C82000B11D3FBFBA2FA92F982F8827BC01CD01620F711D811D911D42E0660F771F881F4B
:20C84000991F4A95D1F70895BF92CF92DF92EF92FF920F931F93CF93DF93DB01FC019F0106
:20C860002F5F3F4F8081803209F49EC01496FC93EE9313979F0189010E1B1F0B722F632F7A
:20C88000E90189919E01882379F08F3209F08EC0CF01800F911F782F692FEC012991CE0115
:20C8A0002032C9F32F32B9F3EA0178836983E801CE0FDF1F8E010E1B1F0BCE17DF0709F41D
:20C8C00095C08A918E32B1F38032A1F30F3F110511F00CF06DC012961C930E931197ED0122
:20C8E0002696CD01419620E229938C179D07E1F7EF019E012E1B3F0B89918E32D1F3803288
:20C90000C1F381E02115310509F080E0A80141505109EF01C00FD11F4F3F540709F069C0EF
:20C92000F12C67E0B12C70E0D8E0ED2E201731070CF0ACC06F01C20ED31EE60198819032C9
:20C9400009F483C09E3221F42417350709F07DC0D92F9232E1F09C37D1F0C6EDDC2ED90E30
:20C96000C5E0CD1510F09D3291F4C6ECDC2ED90EC5E0CD1560F4C5EADC2ED90EC2E0CD153A
:20C9800030F4CFEDDC2ED90ECDE5CD15C8F52417350709F076C06A3009F477C06AE098E03F
:20C9A000B92EC0E1EC2E52C0F90159CF8C3559F480E0DF91CF911F910F91FF90EF90DF9096
:20C9C000CF90BF900895982F977F923289F38A3379F3982F9F7B9C3359F392EC980F9230E3
:20C9E00038F380528F3508F446CFE2CF10E000E072CF9A919E3209F493CF415051098CCF03
:20CA00002417350741F26B15F0F1CFE9DC2ED90EC9E1CD1508F19052FE28DD24D394DB0C86
:20CA2000ED01CB0DD11D9E83D6E0DD1518F01596DC921597BD2C0AC04217530734F19A0186
:20CA40006AE0D8E0BD2E80E1E82E80E02F5F3F4F6DCF80E09FE5DFE5D154DA31F0F67E2955
:20CA6000DCCF81E08C9315966C911597A60FB11D8EE716968C93169781E317968C9381E036
:20CA800098CF6B1530F76A30B9F680E016969C911697903209F48CCF882319F37F2111F0E7
:20CAA000D2E0FD2EFC9285CF9FB79093CF0CF89498E011982091020187FF13C02160209375
:20CAC0000201880F0000000000000000119A0000000000000000915061F78091CF0C8FBF9E
:20CAE00008952E7FECCFCF93C62F811112C088EF0E9454658C2F807F0E9454658C2F8295BD
:20CB0000807F0E94546588E290E00197F1F7CF910895813079F78AEFEBCFCF93DF93EC014F
:20CB2000AE81BF819D81969596959695862F8770E0E8F0E002C0F595E7958A95E2F78A81D8
:20CB4000481B949F402D112470E083E0759567958A95E1F7640F711DA60FB71F8C912223FF
:20CB600029F0E82BEC93DF91CF910895E095E823F9CFFB014181DC0112962C911297421753
:20CB800068F013962C911397241740F0608115962C91621718F424810C948D6508952EE909
:20CBA0003FE0009729F0F9013197F1F70197F9CF0895DB011496ED91FC9130E020E065E019
:20CBC0001994DB011496ED91FC9130E020E062E01994DB011496ED91FC9130E020E063E034
:20CBE0001994FC0180819281980F92832181921760F494819F5F94839381890F821710F0AD
:20CC00008FEF820F838381E0089580E00895FC01128280818150838314820895FC01E60F76
:20CC2000F11D849190E0982F88273196E4918E0F911D08959F92AF92BF92CF92DF92EF92B1
:20CC4000FF920F931F93CF93DF937C018B01942E69018AE0481739F195E1491709F486C0DA
:20CC6000F801C281D381F2E39F1609F429C1F91508F4CBC085E1981609F427C197E19916FE
:20CC800009F433C1A4E19A12EFC0EE81FF818D818E0F9F2F911D11928E179F07E1F7CE0118
:20CCA0000E940766E1C0DB011496ED91FC9130E020E043E061E0C701199580E096E9A92E93
:20CCC00091E8B92EF501C491811110C081E0CF3F49F04C2FB801C7010E94D965882309F41B
:20CCE000BFCF80E0BFEFAB1ABB0AECCF4FEFCF3F89F3CE3F09F4B4CFC03F98F7C03E38F04A
:20CD00004C2F4F70B801C7010E94E165EACFC03D38F04C2F4F70B801C7010E94E965E1CF37
:20CD2000C03CF8F0D8011496ED91FC9130E020E040E064E0C7011995C295C07FCE5FD0E024
:20CD4000CE010E94CF65D8011496ED91FC9130E020E041E064E0C7011995CE010E94CF6510
:20CD6000C0CFC7FDBECF8C2F90E0F8CFFB01A280B38040E0C7010E94E16541E0B801C7011E
:20CD80000E94E965D5011296CC9112971696AD90BC90D8E0DC0F40E0B801C7010E94E165BE
:20CDA0004EE3B801C7010E94D965C03228F54C2F4068B801C7010E94D96540E8B801C701A5
:20CDC0000E94D96541E0B801C7010E94E165D8011496ED91FC91950140E166E0C7011995E8
:20CDE000B0E1AB0EB11CCF5FCD13D5CF40E0B801C7010E94E96534CF40EE4C0F4068B801EC
:20CE0000C7010E94D96548E8D9CFB6E49B1609F47BC0E7E49E1609F47BC0FBE39F1224C0E5
:20CE2000D60111969C91119713968C9138E0390F813031F0833011F0392F02C0392F985079
:20CE400021E04B81491708F420E041E0391708F040E091E05A81351708F490E0322F342B5C
:20CE6000932379F4242369F481E0DF91CF911F910F91FF90EF90DF90CF90BF90AF909F90D1
:20CE80000895F601128100E0F12C843048F490E0FC01E359FC4FF08087599C4FDC010C91D5
:20CEA00017FF04C0B601CE010E94B965F60180818F0D80838181800F8183110F89F7D4CFE3
:20CEC000B601CE010E94B965CFCFCE010E94F165882359F2EE81FF818D818E0F9F2F911D9B
:20CEE00011928E179F07E1F7BFCFD6011C928A8111968C9311978D81815012968C93129791
:20CF00008B8113968C93B0CF8D81F6018083ACCF8981D6018C93A8CF1092A10E8091CE0C88
:20CF2000809312058091520E9091530E2091760E23FF06C080619093530E8093520E089542
:20CF40008F7EF9CFDC01CB01BA01A901949FE12D969FF02D812D959FE00DF11D871FA49F95
:20CF6000E00DF11D871FA59FF00D811DB49FF00D811DA69F800DB59F800D8695F795E7956D
:20CF80008695F795E7951124CF0108959C01229FB001339FC001239F2227700D811D921F53
:20CFA000700D811D921F112408952F923F924F925F926F927F928F929F92AF92BF92CF9218
:20CFC000DF92EF92FF920F931F93CF93DF9300D01F92CDB7DEB79A838983FC01808180FD68
:20CFE000CEC0818180FDCBC0FC83EB83FD9680809180A280B380EB81FC81E35BFF4F20819D
:20D00000318142815381C501B4010F94AF442B013C012B803C80FDE62F0E311CF101008106
:20D020001181B80190E080E00F944E446B017C012B813C8121593F4F3A832983EB81FC81F4
:20D04000E75BFF4F2081318142815381C501B4010F94AF44A70196010F94AF440F9479470D
:20D06000E981FA8171836083AB80BC80F1E7AF0EB11CA7019601C301B2010F94AF440F943C
:20D080007947F50171836083C8010E94C6676B017C01E981FA8180819181F1012081318145
:20D0A0000B811C81035A1F4F8217930709F07EC0F8011082118212821382F50180819181C2
:20D0C000F101208131814B815C814F595F4F5A018217930709F08CC0FA0110821182128285
:20D0E0001382F8014081518162817381F5014080518062807380DB01CA01840D951DA61D2F
:20D10000B71DEB81FC81ED58FF4FC080D180E280F380C816D906EA06FB0664F58C199D0907
:20D12000AE09BF09B695A795979587956A017B0184179507A607B70714F46C017D014C19C0
:20D140005D096E097F09F8014083518362837383B301A20184159505A605B70514F4AC0159
:20D16000BD01441A550A660A770AF5014082518262827382EB81FC818081816080830F9072
:20D180000F900F900F90DF91CF911F910F91FF90EF90DF90CF90BF90AF909F908F907F90CB
:20D1A0006F905F904F903F902F9008950E94C667A7019601261B370B480B590BCA01B901AA
:20D1C000EB81FC81EB59FF4F2081318142815381220F331F441F551F0F94C9452F5F3F4FC3
:20D1E0004F4F5F4FF801208331834283538365CF0E94C667A7019601261B370B480B590B7C
:20D20000CA01B901EB81FC81EB59FF4F2081318142815381220F331F441F551F0F94C94519
:20D220002F5F3F4F4F4F5F4FF501208331834283538357CF0895CF93DC011E968C911E9716
:20D24000811118C01C96ED91FC911D97CF0101961D969C938E931C97C491C11107C0CD011A
:20D26000ED91FC910684F785E02D19958C2F90E0CF91089590E080E0FBCFFC01968581E0A7
:20D280008927089581E0089580E008950F931F93209174132130E1F400916C1310916D1363
:20D2A00020916E1330916F13409168135091691360916A1370916B130417150726073707C1
:20D2C00059F4DC01ED91FC910684F785E02D199580E01F910F91089581E0FBCF9091741338
:20D2E000915081E0933608F080E00895DC011C968D919C91DC01ED91FC910190F081E02D5D
:20D300001994CF93DF939C01EC01CC50DF4F9881992399F0D901AD50BF4FEC9141E04E0F7A
:20D320004C93E20FF32FF11D868547FD1C929150988390E0DF91CF9108958FEF9FEFFACF42
:20D34000FC01EC50FF4F81E09081911101C080E00895CF93C0E080914702C81784F4EC2FA6
:20D36000EE0FFF0BE15CFD4F80819181DC01ED91FC910288F389E02D1995CF5FECCFCF9118
:20D380000895CF93DF93682F809131028823B9F0C62FD0E080913E02D817F4F4ED2FEE0F07
:20D3A000FF0BEA5CFD4F80819181DC01ED91FC910088F189E02D6C2F1995DF5FEBCF809175
:20D3C0002E0290912F02DC01ED91FC910088F189E02DDF91CF911994DF91CF910895CF9388
:20D3E000DF938091470220912E0230912F02EFE3F2E0C0E0C817E4F0C0E0D0E080914702ED
:20D40000D817ECF4CF5FC8170CF0C0E0EC2FEE0FFF0BE15CFD4F80819181DC01ED91FC91EE
:20D420000284F385E02D1995811109C0DF5FE6CF419151914217530701F3CF5FDBCFEC2F97
:20D44000EE0FFF0BE15CFD4F8081918190932F0280932E021092770DDF91CF910895FC0102
:20D460004081518184E040FD86E043FD8C5F44FD8C5F45FD8C5F46FD8C5F50FD8C5F51FDDA
:20D480008F5F52FD8C5F53FD8C5FDA01A270BB27BA016470772754FF38C022813381AB2BB5
:20D4A00009F031C08E5F672B09F08E5F20FD8C5F21FD8C5F22FD8C5F23FD8C5F24FD8C5FEB
:20D4C00025FD8C5F26FD8C5F27FD8C5F30FD8C5F31FD8C5F32FD8C5F33FD8C5F34FD8C5FA0
:20D4E00035FD8C5F36FD8C5F37FD8C5F57FF15C0248130E02F5F3F4F2135310514F020E541
:20D5000030E0820F08958C5FCECFAB2B09F08F5F672B09F08F5F57FD805F08950895809191
:20D52000F20D9091F30D9C01181619060CF03AC0215031093093F30D2093F20D2091080111
:20D540002E7F209308012091C70E2E7F2093C70E209109012270181619063CF580910B01BF
:20D56000826080930B0183E290E0FC013197F1F730910B01386030930B01E3E0F0E0319799
:20D58000F1F788988E9830910B01377F30930B010197F1F780910B01222359F082608093EB
:20D5A0000B0108952F5F3F4FC5CF80910B018D7FD8CF8D7FF4CF4F925F926F927F928F926E
:20D5C0009F92AF92BF92CF92DF92EF92FF92CF93C82F6091560E7091570E8091580E9091F8
:20D5E000590E0F94504420918B0E30918C0E40918D0E50918E0E0F94AF444B015C018092AE
:20D60000DA0D9092DB0DA092DC0DB092DD0D60915A0E70915B0E80915C0E90915D0E0F9465
:20D62000504420918F0E3091900E4091910E5091920E0F94AF446B017C01C092DE0DD0929A
:20D64000DF0DE092E00DF092E10D60915E0E70915F0E8091600E9091610E40905A05509026
:20D660005B0560905C0570905D0564197509860997090F9450442091930E3091940E4091B0
:20D68000950E5091960E0F94AF442091F7043091F8044091F9045091FA040F9405462B019C
:20D6A0003C014092E20D5092E30D6092E40D7092E50D2091FB0C3091FC0C4091FD0C509187
:20D6C000FE0CC501B4010F9405464B015C018092660E9092670EA092680EB092690E2091FF
:20D6E000FF0C3091000D4091010D5091020DC701B6010F9405466B017C01C0926A0ED09200
:20D700006B0EE0926C0EF0926D0E2091030D3091040D4091050D5091060DC301B2010F9423
:20D72000054660936E0E70936F0E8093700E9093710ECC23C1F08092070D9092080DA0924D
:20D74000090DB0920A0DC0920B0DD0920C0DE0920D0DF0920E0D60930F0D7093100D80930A
:20D76000110D9093120DCF91FF90EF90DF90CF90BF90AF909F908F907F906F905F904F9055
:20D7800008959091C40E981779F02091D004211109C0981738F4853528F4992331F092E061
:20D7A0009093D0048093C40E089598E0F9CFCF93DF93FC0126853785D901A05CBF4F9C9167
:20D7C0009F5F9F73E901CF5BDF4F88818917E9F3AC91A20FB32FB11D6C93A685B785A05C72
:20D7E000BF4F9C93A689B7898C91958D21E030E001C0220F9A95EAF7822B8C9381E090E08E
:20D80000DF91CF910895DC011E968D919C91FC01E05CFF4F8F5B9F4F3081DC012C913213D0
:20D82000FBCF0895FC0184859585FC01E058FF4F308131962081321759F0A081A80FB92F73
:20D84000B11D8C9190819F5F9F77908390E008958FEF9FEF0895FC0184859585FC01E0589A
:20D86000FF4F308131962081321739F0E081E80FF92FF11D808190E008958FEF9FEF08958A
:20D88000FC0124853585F901E058FF4F80812F573F4FF901208190E080589F4F821B91098B
:20D8A0008F7799270895DC01CB01F894AA23E1F49F3FD1F010920E0410920F041092100470
:20D8C000A0918400B091850024E6A20FB11D8A179B0728F4B0938900A093880012C0909369
:20D8E0008900809388000DC09058A04080930E0490930F04A0931004B0E8B09389001092C7
:20D90000880008954F925F92EF92FF920F93811520E2920708F07FC0811522E0920708F0CB
:20D9200050C08A30910510F48AE090E040E054E264EF70E0EE24FF187723A1F4662309F0D6
:20D9400012C001E1441F551F0A9509F431C0EE1CFF1CE81AF90A20F4E80EF91E8894F2CF87
:20D960000894F0CF12C009E1441F551F661F0A9509F41EC0EE1CFF1CE81AF90A20F4E80E86
:20D98000F91E8894F1CF0894EFCF01E2441F551F661F771F0A9509F40BC0EE1CFF1CE81AD7
:20D9A000F90A20F4E80EF91E8894F0CF0894EECFCB01642F752F0F91FF90EF905F904F9090
:20D9C0000895E5EFFCE7282F2F71969587959695879596958795969587958E7FE80FF91FC4
:20D9E000459155912A010590401805905008249DC001259D900DE12D880F991FEE1F880F84
:20DA0000991FEE1F880F991FEE1F491B5E0B662777271124CDCFE3EDFCE79C013F709695F2
:20DA2000969596959E7FE90FF11D459155912A010590401805905008249DC001359DE02D4B
:20DA4000259D900DE11D349D900DE11D907F9295E2958E2F807F982BEF70491B5E0B662718
:20DA600077271124A5CF90E080E008954F925F926F927F92AF92BF92CF92DF92EF92FF9298
:20DA80000F931F93CF93DF93EC018981853308F0A4C0823308F0AAC08D3008F096C029E127
:20DAA00030E0813060F0EA81F0E0EE0FFF1FEF51F34F408151812CEF3FE0241B350B3D8371
:20DAC0002C836C817D81813108F09CC08E3030F48D3008F0D7C0813008F4BDC08150282F26
:20DAE00030E0F901EF5BF3489491990FF901EE0FFF1FEF5DF34825913491F901C590D49000
:20DB0000F9013296E590F4904CEF5FE0FA01E61BF70BBF0110E000E082E0891708F0A7C0E1
:20DB2000E82FF0E0EE0FFF1FE20FF31FA590B490E1E0E80FF0E08E5FEE0FFF1FE20FF31FD4
:20DB4000059114916A157B050CF08EC06C197D09072E000C880B990B0F9450442B013C011E
:20DB6000B8016E197F09072E000C880B990B0F9450449B01AC01C301B2010F94AF442B01AC
:20DB80003C01B5016C197D09072E000C880B990B0F9450449B01AC01C301B2010F9400472E
:20DBA0002B013C01B701FF0C880B990B0F9450449B01AC01C301B2010F94064620E030E00C
:20DBC00040E05EE30F94AF44E3C08D3079F0813108F469CF2FEF3FE072CF843680F481363C
:20DBE00008F061CF94EC980F9230A0F7EA81F0E0EE0FFF1FEF51F34F2081318160CF843669
:20DC0000A9F3E8CF8C3309F49AC098F49EEC980F9330C0F1DF91CF911F910F91FF90EF903C
:20DC2000DF90CF90BF90AF907F906F905F904F9008958E3309F4B1C008F492C0843651F790
:20DC4000072E000C880B990B0F94504420E030E04AEF53E47EC080E090E0A8ECB1E48E834D
:20DC60009F83A887B987D6CF7801650156CF073EF3E01F0779F2B801110F880B990B0F940E
:20DC800050449CCF823308F44FC08E5290E0FC01EF5BF3482491220FFC01EE0FFF1FEF5DA9
:20DCA000F34885919491FC01A590B490FC013296E590F49010E000E032E0321708F039C09E
:20DCC000E32FF0E0EE0FFF1FE80FF91FC590D490E1E0E30FF0E03E5FEE0FFF1FE80FF91F35
:20DCE000059114916C157D050CF56A197B09072E000C880B990B0F9450442B013C01B8010D
:20DD00006E197F09072E000C880B990B0F9450449B01AC01C301B2010F94AF442B013C0186
:20DD2000B6016A197B0930CF8150B0CF78015601C4CF073E83E0180709F09DCF6BCF072ED8
:20DD4000000C880B990B0F94504420E030E04AE754E40F94AF4420E030E040E859E332CFC5
:20DD6000072E000C880B990B0F94504420E030E04AE754E40F94AF4420E030E040E859E371
:20DD80000F94AF4420E030E04AE753E40F9405466E837F83888799873DCF072E000C880B85
:20DDA000990B0F94504420E030E04AEF53E40F94AF4420E030E040E859E30F94AF4420E068
:20DDC00030E048E452E4E2CFCF92DF92EF92FF92CF93DF93FC0123812130B1F5EC01C4A07F
:20DDE000D5A0E6A0F7A020E030E0A901C701B6010F944944882341F16E8D70E090E080E030
:20DE00000F944E4420E030E040E251E40F94AF44A70196010F9400476DA77EA78FA798ABF5
:20DE20006F8D70E090E080E00F944E4420E030E040E251E40F94AF44A70196010F9400476B
:20DE400069AB7AAB8BAB9CABDF91CF91FF90EF90DF90CF9008958F929F92AF92BF92EF925E
:20DE6000FF921F93CF93DF93FC0115A912FD2DC07B01EC0182849384A484B584A5019401B2
:20DE800066817781808591850F9405469F7720E030E040E85FE30F94064620E030E040EAE1
:20DEA00051E40F946648181684F0F70180819181A281B3818EAB9FABA8AFB9AF8AAE9BAE15
:20DEC000ACAEBDAE197F14601DABDF91CF911F91FF90EF90BF90AF909F908F900895FC01A5
:20DEE00095A991FD14C0DB014D915D916D917C9146AB57AB60AF71AF468157816085718533
:20DF000042AF53AF64AF75AF997F926095AB08950F931F93CF93DF931F92CDB7DEB700916D
:20DF2000D90E1091DA0EE091080FF091090F82E0199550E040E06AE0C8010F94D718182F04
:20DF4000E091080FF091090F83E01995E091080FF091090F80E01995112379F1AE014F5F65
:20DF60005F4F66E48091D90E9091DA0E0F94D71889818093D70EAE014F5F5F4F67E48091AD
:20DF8000D90E9091DA0E0F94D71889818093D80E50E040E068E48091D90E9091DA0E0F94BC
:20DFA000D7188093E20E4AE05FE067E18091D90E9091DA0E0F94D71811E0812F0F90DF917B
:20DFC000CF911F910F9108951F93CF93DF9310E0D0E0C0E0C836D10521F0CE010F94804512
:20DFE000180F2196C11588E0D807A1F7812FDF91CF911F9108950D94B94A0D94B94A0D94D8
:20E00000B94A0F94424B4F925F926F927F928F929F92AF92BF92EF92FF920F931F93CF933D
:20E02000DF93C6E6DEE02091FF0C3091000D4091010D5091020D6C817D818E819F810F94EE
:20E0400006462B013C012091030D3091040D4091050D5091060D688579858A859B850F94E4
:20E0600006462091F7043091F8044091F9045091FA040F9406464B015C012091FB0C30912D
:20E08000FC0C4091FD0C5091FE0C688179818A819B810F94064628E4E22E22E0F22EF70184
:20E0A00020813181428153810F94AF440F941A4906E51EE0F8016083718382839383C9E459
:20E0C000D5E0688379838A839B83F7012481358146815781C301B2010F94AF440F941A4974
:20E0E000F80164837583868397836C837D838E839F83F7012085318542855385C501B40196
:20E100000F94AF440F941A49F8016087718782879387688779878A879B87F70124853585EB
:20E12000468557856091E60D7091E70D8091E80D9091E90D0F94AF440F941A49F8016487C2
:20E140007587868797876C877D878E879F8710925A0510925B0510925C0510925D05DF91EC
:20E16000CF911F910F91FF90EF90BF90AF909F908F907F906F905F904F9008950F931F9338
:20E18000CF93DF931F921F92CDB7DEB78C010196F80120812032D1F34AE050E0BE016F5F75
:20E1A0007F4FC8010F94F14229813A810217130719F460E070E0CB010F900F90DF91CF91E3
:20E1C0001F910F9108950F931F93CF93DF931F921F92CDB7DEB78C010196F801208120329F
:20E1E000D1F3BE016F5F7F4FC8010F94934129813A810217130719F460E070E0CB010F9020
:20E200000F90DF91CF911F910F910895AF92BF92CF92DF92EF92FF921F93CF93DF93CDB722
:20E22000DEB72C970FB6F894DEBF0FBECDBF86E6A82E8EE0B82E9FE7C92E9EE0D92E22E99C
:20E24000E22E2FE0F22E10E0133009F448C0F50180819181A281B3818D839E83AF83B88745
:20E2600044E050E0B701CE0105960F949445F60180819181A281B38189839A83AB83BC83B5
:20E2800044E050E0B701605F7F4FCE0101960F949445F4E0AF0EB11C84E0E80EF11CE4E07A
:20E2A000CE0ED11C1F5F143079F680E89FE00F948045682F626080E89FE00F949E452C968D
:20E2C0000FB6F894DEBF0FBECDBFDF91CF911F91FF90EF90DF90CF90BF90AF90089580915F
:20E2E000E60D9091E70DA091E80DB091E90D89879A87AB87BC8744E050E06EE97FE0CE013A
:20E300000996C5CFCF92DF92EF92FF921F93CF93DF9300D000D01F921F92CDB7DEB787E0DE
:20E32000C82E8DE0D82E92E8E92E9FE0F92E10E01330F1F58091E60D9091E70DA091E80DE5
:20E34000B091E90D89839A83AB83BC8344E050E06EE87FE0CE0101960F949445F4E0CF0E54
:20E36000D11C84E0E80EF11C1F5F143009F7E091C80EF091C90E608181E89FE00F949E4599
:20E3800080E89FE00F948045682F616080E89FE00F949E4528960FB6F894DEBF0FBECDBF64
:20E3A000DF91CF911F91FF90EF90DF90CF900895F60180819181A281B3818D839E83AF83A0
:20E3C000B88744E050E0B701CE010596C5CF1F93CF93DF93282F30E0F901EF5FFD47849166
:20E3E000F901E95BF146D491F901E357F146C491CC23A9F0162F81110E946F63EC2FF0E0C5
:20E40000EE0FFF1FE353FE47A591B4918FB7F894EC91111108C0D095DE23DC938FBFDF911F
:20E42000CF911F910895DE2BF8CF90911A0289130DC0E7E4F2E8E4919FEF90931A02E230C0
:20E44000E1F038F4EE2381F0E13089F060E00C94E771E43049F110F1E530C1F790917300CB
:20E460009D7F90937300F2CF10926E00EFCF90916F009D7F90936F00E9CF909170009D7FB8
:20E480009093700091E09093B0009091B100987F94609093B1001092B300D8CF9091710066
:20E4A0009D7F90937100D2CF909172009D7F90937200CCCF1F920F920FB60F9211240BB67E
:20E4C0000F922F933F934F935F936F937F938F939F93AF93BF93EF93FF938091DC0C909109
:20E4E000DD0CA091DE0CB091DF0C892B8A2B8B2BE1F19091DB0CE091D90CF091DA0C808135
:20E50000892780838091DC0C9091DD0CA091DE0CB091DF0C181619061A061B069CF48091CF
:20E52000DC0C9091DD0CA091DE0CB091DF0C0197A109B1098093DC0C9093DD0CA093DE0C82
:20E54000B093DF0CFF91EF91BF91AF919F918F917F916F915F914F913F912F910F900BBEC5
:20E560000F900FBE0F901F90189580911A020E941572E8CF8091D70287FD07C061E0909190
:20E58000D802911160E00C94E7710895CF92DF92EF92FF92CF93C82F0E94BA72C090F902D4
:20E5A000D090FA02E090FB02F090FC0220E030E0A901C701B6010F9466481816A4F4E89448
:20E5C000F7F8F7FAF094F7F8F094C092F902D092FA02E092FB02F092FC02E091EF02F0E098
:20E5E000EF53F14F1082CC23C1F08091880290918902A0918A02B0918B02BF77B058809344
:20E60000880290938902A0938A02B0938B02E0917E02F0E0EF53F14F1082CF91FF90EF90F0
:20E62000DF90CF900895E091C80EF091C90E818987FD03C062890C94E7710895CF93DF932B
:20E6400090E0FC01E95BF146249183579146FC0184918823C9F090E0880F991FFC01E35DFA
:20E66000F146A591B491FC01E353FE47C591D49161110DC09FB7F8948C91209582238C93FE
:20E680008881282328839FBFDF91CF910895623051F49FB7F8943C91822F809583238C939F
:20E6A000E8812E2BEFCF8FB7F894EC912E2B2C938FBFEACFEF92FF920F931F93CF93DF9332
:20E6C0008C01C42F79016150673008F040C0E62FF0E08827E159FC488F4F0D94064A767336
:20E6E000F573B773AF73C173C773E7738FEFF80186A3E801A3967801F0E3EF0EF11C89916C
:20E700008F3F49F061E00E941E7361E0FE01319780810E94E771EC16FD0689F780910201E2
:20E720008D7F80930201119A809102018E7F8093020180910101816080930101099A809118
:20E7400002018E7F80930201119AF80116A281E0DF91CF911F910F91FF90EF900895F80112
:20E7600083A18F3FA1F3642F0E94E771F0CF80910201442321F0826080930201E8CF8D7F80
:20E78000FBCF642FF80186A10E947365E0CFF80186A1811113C088EF0E945465CC2391F00C
:20E7A000F7018081807F0E945465F70181917F018295807F0E945465C150F0CF813071F722
:20E7C0008AEFEACF88E290E00197F1F7C0CFCC2309F4BDCFF7016491F80186A10E9473651F
:20E7E000FFEFEF1AFF0AC150F2CFF80146A3AFCF2FB7F8946091D10C7091D20C8091D30CD8
:20E800009091D40C2FBF08951F920F920FB60F9211242F933F938F939F93AF93BF938091F2
:20E82000D10C9091D20CA091D30CB091D40C3091D00C23E0230F2D3758F50196A11DB11D25
:20E840002093D00C8093D10C9093D20CA093D30CB093D40C8091D50C9091D60CA091D70CFA
:20E86000B091D80C0196A11DB11D8093D50C9093D60CA093D70CB093D80CBF91AF919F915A
:20E880008F913F912F910F900FBE0F901F90189526E8230F0296A11DB11DD2CFCF93DF9388
:20E8A000EC01E981FA81908181819CBD8DBDE981FA8160E082810E94E77181E08B83DF91CF
:20E8C000CF9108958EBD0DB407FEFDCF08958FEF8EBD0DB407FEFDCF8EB50895CF93DF93B2
:20E8E000FC012381222361F0EC010180F281E02D61E082810E94E7718FEF0E9462741B8222
:20E90000DF91CF9108950F931F93CF93DF938C01862FEA010E94627488818EBD8981FE0160
:20E920003296DE5F0DB407FEFDCF8EBDEC17FD0711F08191F7CF0DB407FEFDCF8FEF0E9463
:20E9400062748FEF0E9462740E946774F80184838F71853059F087E58083C8010E946E74B4
:20E9600080E0DF91CF911F910F91089581E0F9CFDF92EF92FF920F931F93CF93DF938C0119
:20E98000C62FD22FF32EE42ED52EFC018381811103C0C8010E944E74CC2321F08CE291E0E9
:20E9A0000F94751C8C2F80640E9462748D2D0E9462748E2D0E9462748F2D0E9462748D2FB7
:20E9C0000E94627487E8C11101C085E90E9462740E946774CBE00E946774F801848387FFAC
:20E9E00002C0C150C1F7DF91CF911F910F91FF90EF90DF9008950F931F93CF93DF93EC013D
:20EA000089018D81833039F089E0440F551F661F771F8A95D1F79A01AB0168E1CE010E944F
:20EA2000B874882339F082E38883CE010E946E7410E021C0A8016EEFCE010E948374882329
:20EA4000A1F388E592E00F94751C182F8AE5112359F320E030E0A9016DE0CE010E94B87435
:20EA6000882311F089E2E0CF0E9467748111FACFCE010E946E74812FDF91CF911F910F91D5
:20EA800008950F931F93CF93DF93EC0189018D81833039F089E0440F551F661F771F8A95E6
:20EAA000D1F79A01AB0161E1CE010E94B874882339F080E38883CE010E946E7410E00AC019
:20EAC000B801CE010F94311C182F8823A1F3CE010E946E74812FDF91CF911F910F91089578
:20EAE000EF92FF921F93CF93DF93FC01208111E020FF14C0EC017C01F7E0EF0EF11C4B81E5
:20EB00005C816D817E81E981FA819701808191810E94FB74182F811108C010E0812FDF91D9
:20EB2000CF911F91FF90EF900895888181FD04C088818E7F8883F2CFE981FA814B815C815F
:20EB40006D817E8184859585A685B785480F591F6A1F7B1F9701808191810E94FB748111FE
:20EB6000E7CFDBCFCF92DF92EF92FF921F93CF93DF93EC016A017B01122F8B819C81AD815F
:20EB8000BE818C159D05AE05BF05B1F0CE010E94707581110AC090E080E0DF91CF911F91D9
:20EBA000FF90EF90DF90CF90089512FF0CC01882CB82DC82ED82FE8213708881182B188361
:20EBC000CE010796EACFE981FA819E01295F3F4FB701A601808191810E9441758111E7CF64
:20EBE000DACF8F929F92AF92BF92CF92DF92EF92FF920F931F93423051056105710560F458
:20EC000080E01F910F91FF90EF90DF90CF90BF90AF909F908F900895FC01C08CD18CE28CDB
:20EC2000F38CC416D506E606F70650F3480159016A017B018581803241F584899589A689A2
:20EC4000B78917E076956795579547951A95D1F7480F591F6A1F7B1F23E0CF0180960E94BA
:20EC6000B275009769F2E894C7F8DD24EE24FF24CC0CDD1CCC0CDD1C8C0D9D1DFC01808216
:20EC80009182A282B38281E0BCCF803109F0B8CF44895589668977894D0D511D611D711D7D
:20ECA00023E0CF0180960E94B275009709F4A8CFDD24EE24FF24CC0CDD1CC80ED91EF601CC
:20ECC00011830083E0CFCF92DF92EF92FF920F931F93CF93DF93423051056105710550F47A
:20ECE0008FEFDF91CF911F910F91FF90EF90DF90CF900895FC01C08CD18CE28CF38CC41690
:20ED0000D506E606F70660F389016A017B01EC0185818032B9F584899589A689B789E7E0B7
:20ED20007695679557954795EA95D1F7480F591F6A1F7B1F22E0CE0180960E94B275009784
:20ED400079F2E894C7F8DD24EE24FF24CC0CDD1CCC0CDD1C8C0D9D1DFC0180819181A281AF
:20ED6000B381BF70488D598D6A8D7B8D481759076A077B0738F1F80180839183A283B38330
:20ED800081E0AFCF803109F0ABCF44895589668977894D0D511D611D711D22E0CF0180961A
:20EDA0000E94B275009709F49BCFDD24EE24FF24CC0CDD1CC80ED91EF60180819181B0E01E
:20EDC000A0E0D0CF80E08DCF9F92AF92BF92CF92DF92EF92FF920F931F93CF93DF9300D0B9
:20EDE0001F92CDB7DEB75C016A017B019E012F5F3F4FB701A601C5010E946376982E87FD60
:20EE000034C000E010E09801B701A601C5010E94F175882351F1F50140855185628573850B
:20EE20004C155D056E057F0550F0F1E0CF1AD108E108F108F501C086D186E286F386C980A6
:20EE4000DA80EB80FC809110D1CF0F900F900F900F90DF91CF911F910F91FF90EF90DF9017
:20EE6000CF90BF90AF909F90089580E0EECF3F924F925F926F927F928F929F92AF92BF9223
:20EE8000CF92DF92EF92FF920F931F93CF93DF9300D01F92CDB7DEB74C01FC018281806897
:20EEA0008283A680B7804484558466847784F501C084D184E284F384C414D504E604F70468
:20EEC00010F011E003C07301620110E0FFEFCF1ADF0AEF0AFF0AF501808D918DA28DB38D65
:20EEE0008C159D05AE05BF0538F4111131C0C084D184E284F384E5CF4C145D046E047F0439
:20EF000039F19E012F5F3F4FB701A601C5010E94637687FD1DC08823C9F289819A81AB8154
:20EF2000BC81892B8A2B8B2B89F6112329F0F501C086D186E286F3860FEF1FEF2FEF3FE0EC
:20EF4000B701A601C5010E94F175382E811118C0312C832D0F900F900F900F90DF91CF915B
:20EF60001F910F91FF90EF90DF90CF90BF90AF909F908F907F906F905F904F903F90089541
:20EF8000411451046104710431F4F401C486D586E686F786DECF97018601B301A201C5015C
:20EFA0000E94F1758111F1CFD3CFAF92BF92CF92DF92EF92FF920F931F93CF93DF93EC01CA
:20EFC000888185FF0DC010E0812FDF91CF911F910F91FF90EF90DF90CF90BF90AF90089510
:20EFE00088899989AA89BB8981159E4FAF41B10550F7CE010E943777182F882321F3EE8163
:20F00000FF81CC84DD84EE84FF8432E0C31AD108E108F108848104C0CC0CDD1CEE1CFF1C61
:20F020008A95D2F780899189A289B389C80ED91EEA1EFB1E25E0B701A601CF0180960E9484
:20F04000B2755C01892B09F4BECF80E092E0F5019C01119221503040E1F701E0EE81FF815D
:20F060008281081780F49501B701A601400F511D611D711D808191810E94FB74882309F470
:20F08000A2CF0F5FEBCF90E0B0E0A0E029E0880F991FAA1FBB1F2A95D1F7488959896A892F
:20F0A0007B89840F951FA61FB71F888B998BAA8BBB8B8ACFFC019C01255F3F4F80E080FBD8
:20F0C000879587F99191890F2E173F07C1F708954F925F926F927F928F929F92AF92BF9232
:20F0E000CF92DF92EF92FF920F931F93CF93DF93EC014A015B014C845D846E847F84A881A1
:20F10000AA2309F486C0488959896A897B89481559056A057B0569F081149104A104B104AE
:20F1200051F41C861D861E861F86888A998AAA8ABB8A81E073C0A3FF59C0088D198D2A8D0D
:20F140003B8D081519052A053B0508F462C0EE81FF81848190E009968A019B01015011098A
:20F1600021093109082E04C036952795179507950A94D2F775016401B1E0CB1AD108E108E8
:20F18000F10804C0F694E794D794C7948A95D2F7C016D106E206F30628F0452B462B472B06
:20F1A00009F052C0A6FF4BC0848D958DA68DB78D8C879D87AE87BF878E01045F1F4FC11403
:20F1C000D104E104F10409F4B0CF4C855D856E857F8598018E819F810E94637691E0C91AC3
:20F1E000D108E108F108181654F313C0A5FFAFCFEE81FF818681978125E0880F991F2A95C9
:20F20000E1F7B0E0A0E088159905AA05BB0508F08CCF4C865D866E867F8680E0DF91CF912B
:20F220001F910F91FF90EF90DF90CF90BF90AF909F908F907F906F905F904F9008958C8D34
:20F240009D8DAE8DBF8DB4CFC01AD10AE20AF30AB3CFEF92FF920F931F93CF93DF931F926F
:20F26000CDB7DEB77C01962FF70140895189628973898A019B0185E0369527951795079556
:20F280008A95D1F70F7011F0911129C0BE016F5F7F4FC7010F94901C813051F090E080E048
:20F2A0000F90DF91CF911F910F91FF90EF900895F70180899189A289B3894F96A11DB11DF1
:20F2C000808B918BA28BB38BF701868197818796F0E20F9F90011124820F931FE1CF405E91
:20F2E0005F4F6F4F7F4F408B518B628B738BECCFFC01808181110FC080E2DF01982F1D9270
:20F300009A95E9F777836683DB0115969C91903129F0903211F080E0089580E4808381E0E5
:20F3200082830895CF92DF92EF92FF920F93CF93DF93EC0180E2DE011D928A95E9F7FB01F9
:20F34000868197819F838E835D834C83C48CD58CE68CF78CC886D986EA86FB86FA01EF700E
:20F36000FF27DC01979645E0EE0FFF1F4A95E1F7BD016E0F7F1FDB011B963C9133FD4FC0F4
:20F38000AC014E0F5F1FDA01D2963C9137713883DB011B964C91487111F4386038830B8369
:20F3A000322F327319F038813171C9F5322F3F703A83DC0193964D915D916D917C9196974E
:20F3C0004C8B5D8B6E8B7F8BE80FF91F43AD54AD70E060E0BA0155274427DF01AF5BBF4F41
:20F3E000CD90DC90F12CE12C4C295D296E297F2924FF18C0411551056105710561F48A81FD
:20F4000080688A8381E0DF91CF910F91FF90EF90DF90CF9008950E94E4768111F0CF1882C6
:20F4200080E0F1CF4C8F5D8F6E8F7F8FED5BFF4F80819181A281B381888F998FAA8FBB8F18
:20F44000E1CFCF93DF93EC01262F4C895D896E897F898E819F8180960E94B275009771F026
:20F460002C813D812F70332745E0220F331F4A95E1F7820F931FDF91CF91089590E080E049
:20F48000FACF9F92AF92BF92CF92DF92EF92FF920F931F93CF93DF93CDB7DEB7A0970FB6BF
:20F4A000F894DEBF0FBECDBF19821A82DC012C9123FF16C012962C9121FF12C08C01FC0120
:20F4C000448D558D668D778D411551056105710549F461E0C8010E94217A7C01009749F425
:20F4E00080E076C0868197810E94E4768111F1CFF7CF0E945A78982E85EEF7018083D801C2
:20F500001C9216968D919C9180960E947075882339F3F8019381992309F45AC080859185D7
:20F52000A285B385668177819E012F5F3F4F69010097A105B10509F05DC0C9010E94787902
:20F54000882371F2EE24E394F12C25EEA22ED80113968C9113978E1518F214964D915C91A9
:20F560004E195F0970E060E085E0440F551F661F771F8A95D1F7C6010E946878882309F40D
:20F58000AFCF60E0C6010E942979FC01892B09F4A7CF83858F3009F0A3CF9081892F8F7183
:20F5A000E8129ECF858589119BCFA082D8011696ED91FC9180A1816080A3BFEFEB1AFB0A47
:20F5C00096FFC5CFF8018681978180960E947075A0960FB6F894DEBF0FBECDBFDF91CF9100
:20F5E0001F910F91FF90EF90DF90CF90BF90AF909F9008952CE1F60111922A95E9F720E13E
:20F60000298321E02B8378876F838D8F9E8FAF8FB8A398CFCF93DF93FC012081211104C0ED
:20F6200081E0DF91CF910895EC01828187FF27C061E0CF010E94217AFC01892B29F4898179
:20F640008160898380E0EDCF8081853EC1F3888183FF08C0888D998DAA8DBB8D848F958FE5
:20F66000A68FB78F8C8D9D8D938F828F8C8D9D8DAE8DBF8DB58BA48B8A818F778A838E8133
:20F680009F8180960E9470758823C9F2C9CF2F923F924F925F926F927F928F929F92AF92A6
:20F6A000BF92CF92DF92EF92FF920F931F93CF93DF9300D000D000D01F92CDB7DEB79E8392
:20F6C0008D833B015A834983DC018C9183FFEBC012968C9181FFE7C082FDD8C0E981FA8126
:20F6E000AF0170E060E0ED81FE8180899189A289B38980959095A095B09584179507A607BB
:20F70000B70708F4D0C0C980DA8022242A94322C21013C96FC83EB83ED81FE814089518929
:20F7200062897389C114D10409F47CC1868197818A019B0169E036952795179507956A95A1
:20F74000D1F7DC011396EC910E237A01B1E0FB2201111FC0ED81FE8144855585668577851C
:20F76000E114F10409F097C1411551056105710509F4A4C02B813C810E94637687FD93C0AA
:20F78000811107C08D819E810E943777882309F48AC0AD81BE811696ED91FC9117971C961D
:20F7A0004D915D916D917C911F974250510961097109848104C0440F551F661F771F8A9522
:20F7C000D2F780899189A289B389840F951FA61FB71FAC01BD01400F511D611D711DE114CB
:20F7E000F10429F4C114B2E0DB0608F088C080E092E08E199F0986018C159D0508F48C01FB
:20F80000E114F104A1F4AD81BE8150968D909D90AD90BC90539758968D919D910D90BC9135
:20F82000A02D25E088169906AA06BB0608F421E0CF0180960E94B2750097A9F1A801B3010E
:20F840008E0D9F1D0F94544BE00EF11EE114B2E0FB0649F4ED81FE818681978180960E9489
:20F860007075882301F1ED81FE8180899189A289B389800F911FA11DB11D808B918BA28B70
:20F88000B38B600E711EC01AD10A46CFAD81BE8158964D915D916D917C915B97CD010E94CF
:20F8A000687881111BCFAD81BE8111968C911197816011968C938FEF9FEFCDC0ED81FE81E6
:20F8C000848D958DA68DB78D0097A105B10581F4CF010E943777882331F3ED81FE81848531
:20F8E0009585A685B785848F958FA68FB78F51CFED81FE8184879587A687B7874ACF83A1F9
:20F9000094A1A5A1B6A1C11424E0D20608F470C09601232F332726958280801A912C2815A4
:20F92000390508F44901481759076A077B0770F0880D991DA11DB11D481759076A077B07A8
:20F9400028F410A223A234A245A256A2AD81BE811696ED91FC91E080F180F70185818330B9
:20F9600039F099E0440F551F661F771F9A95D1F79A01AB0169E1C7010E94B874882351F0F9
:20F9800083E3D7018C93C7010E946E74C7010E946E7489CF530110E000E088E592E00815FA
:20F9A0001905A1F00F94751C811104C08AE5F7018083E9CFA5016CEFC7010E9483748823DF
:20F9C00011F30F5F1F4FFEEFBF1AE7CF0F94751C882351F0102F0027110F8DEF0E94627431
:20F9E000C7010E946E743FCF86E5D7018C93CECF481759076A077B0729F410A223A234A292
:20FA000045A256A2AD81BE811696ED91FC919301808191810E94FB74882309F444CF00E090
:20FA200012E021CFED81FE81808D918DA28DB38D84179507A607B70738F48281408F518FDD
:20FA4000628F738F80688283ED81FE81828183FD1BC089819A812A960FB6F894DEBF0FBEDB
:20FA6000CDBFDF91CF911F910F91FF90EF90DF90CF90BF90AF909F908F907F906F905F9025
:20FA80004F903F902F9008958D819E810E940A7B8111DFCF08CFFC01425051096109710924
:20FAA000848104C0440F551F661F771F8A95D2F780899189A289B389480F591F6A1F7B1F37
:20FAC00096CE04960C94477BCF93DF931F92CDB7DEB7698341E050E0BE016F5F7F4F0496F6
:20FAE0000E94477B0F90DF91CF910895CF93DF93EC010E940A7B1882DF91CF91089504960D
:20FB00000C940A7BE091540EF0E0EE0FFF1FED54FE4725913491FC01EE0FFF1FE20FF31FE6
:20FB2000859194910895EDEAF1E89FEF482F880F550B24912F3F49F09F3F21F024171506A0
:20FB400009F0292F3196922FF4CF9093540E08958D3FD1F1482F8E3F60F48E37A1F060917A
:20FB6000D50E8091D60E0F949C1A9091D60E890F2EC08E3F19F18F3F91F78DE395E80F940C
:20FB8000C71B47EB05C08DE395E80F94C71B42E56091D50E8091D60E0F949C1A9091D60ECC
:20FBA000890F8093D60E8091540E8C3021F084EF98EA0D94C71B83E49FE9FBCF8DE395E858
:20FBC0000F94C71B46EBE4CF8091D60E8F5F8093D60E0895CF93DF938093D60E6093D50EA4
:20FBE000EA018991882319F00E94A87DFACFDF91CF9108950B96FC01849108950A96FC0162
:20FC00008491089568E00C940E6666E00C940E66FC01849108950E94087E882321F0823037
:20FC200011F083E0089586E00895FC013596E4910E2E000CFF0B309749F02091520E30915F
:20FC4000530E2E233F232E173F0779F4FC01379685919491009759F02091520E3091530E80
:20FC60002823392381E0232B19F080E0089581E0089540E050E0BA010C9468782F923F920D
:20FC80004F925F926F927F928F929F92AF92BF92CF92DF92EF92FF920F931F93CF93DF9390
:20FCA00000D000D000D0CDB7DEB74C017F836E83FA01DB018C918077D1F480E029960FB6E7
:20FCC000F894DEBF0FBECDBFDF91CF911F910F91FF90EF90DF90CF90BF90AF909F908F90CA
:20FCE0007F906F905F904F903F902F900895D4018C918111E2CFA180B2808081837033242A
:20FD00003394882349F0C5010C966DE070E00F94BF4933243394360E2A837F01EE81FF810A
:20FD2000F987E887CF010E94397E1C821D821982212C10E000E01B8297012A5F3F4F3F83A8
:20FD40002E83A885B98550964D905D906D907C90539795E076946794579447949A95D1F7AD
:20FD6000620161E0CD010E942979009709F05DC0E885F98581818111A0CF8A81827482347B
:20FD800009F09BCF112311F0CC80DD801315F8F460E0888599850E942979892B09F0E3C00F
:20FDA000E885F9858181811188CF888599850E94D577882309F481CFA885B9851696ED91C7
:20FDC000FC918281823018F4105F131570F3BB81BB2309F4F8C0F701558002E010E08EE7F8
:20FDE000482E3701F6E06F0E711CD70111962D913C911297C801820F931F1396ED91FC9102
:20FE00002E0F3F1F2E173F0709F4AFC0AC01B5E0440F551FBA95E1F7840F951F4191042ED5
:20FE2000000C550B84279527EDCFDC012C91253E11F021110EC0111102C04C825D8213157C
:20FE400008F41F5F222309F498CF253E21F400E078CF131550F12E32D1F3FC0133853F302F
:20FE600009F05AC0011123C026FF6BCF022F0F71F585F983202EE22DE150FF0BAF01FDE04F
:20FE8000F49F9001F59F300D11242A153B05F8F6FC01D12C64E06D1590F081819281A216BE
:20FEA000B306B1F4892B99F64CCF10E0D4CF2A942211CDCF2585B9812B17E9F2C8CF8AE064
:20FEC0008D1518F084819581EACF86819781E7CF8F3F910511F008F0BACF4FEB480F4A31DD
:20FEE00008F4805EB9016F5F7F4FD70113964D915C91240F351FD9019C912FEB290F2A314B
:20FF000008F4905E9813A3CFD3943296BDE0DB1609F417CF9B01BECF33FD99CF002399F0CD
:20FF2000E1E02E12CACE0E945A78F9818F13C5CEBA81B7FDC2CE2A81A60168857985C40184
:20FF40000E949279BBCE4BE050E06E817F810F94474B892B09F0F5CED7018C9180FFE8CF51
:20FF600031E03B83EECE1F5F11CFB3E0B51510F4A3E05A2E34E0350D282F2F702A3008F08E
:20FF80008AC0205DF701E30FF11D2683F4E096958795FA95E1F73150531670F3F701E50D40
:20FFA000F11D4682888599850E94397E61E0888599850E942979009709F06FC0E885F9858D
:20FFC000818181117ACEA60170E060E0E5E0440F551F661F771FEA95D1F7888599850E9453
:20FFE0006878882309F469CE0FEF030D102F3FE0532E3701B6E06B0E711C4DE0442E1123AE
:020000040001F9
:2000000009F477C060E0888599850E9429796C01892B09F452CEA885B9851696ED91FC919D
:2000200080A1816080A3312E101302C0689436F8F601308253861486C3010E945A78D60102
:200040001D968C931D975B961C921E925A97F70123813481832D8F718150990B489EA001DD
:20006000499E500D1124F60160E04A155B0570F5D901A40FB51F8C91082E000C990B6530B3
:2000800080F5928381836F5F4F5F5F4F32966D3061F71150B4CF295C75CFDC012C9122235F
:2000A00009F491CF1B962C9123FD80CF4BE050E0BC01C3010F94474B892B09F077CF0F5F94
:2000C0001F4F0436110509F090CEF7CD81E090E0A416B50611F490E080E091958195910956
:2000E000CECF6B3018F495838483CDCF97838683CACFA885B98550964D905D906D907C9021
:20010000539760E0CD010E942979009709F4D5CD25E076946794579447942A95D1F76201B3
:2001200020E2FC0111922A95E9F7F70136962BE0DC0101900D922A95E1F7D7012C912871DD
:20014000FC01248721E238E2318B208B40E058E057874687338B228B318F208F578B468BE3
:20016000A885B9851696ED91FC9180A1816080A3E2CEDF92EF92FF920F931F93CF93DF93DD
:20018000CDB7DEB7E3970FB6F894DEBF0FBECDBF7C018B015BAB4AABD22E19821A82FC014D
:2001A0008081882379F080E0E3960FB6F894DEBF0FBECDBFDF91CF911F910F91FF90EF90DC
:2001C000DF900895FB018081807769F3EAA9FBA980818F32D9F4EAA9FBA980818F3221F4EF
:2001E0003196FBABEAABF7CFF80166817781811104C0C7010E947879D7CFCE0101960E9400
:200200007879882381F28E010F5F1F4FAE014E5C5F4FBE016F5D7F4F8AA99BA90E94246463
:20022000882309F4C0CFEAA9FBA980818823B9F021E0AE014F5D5F4FB801C7010E943E7E12
:20024000882309F4B0CF80E2F701DE01119601900D928A95E1F7C7010E94767DD4CF2D2D16
:20026000AE014F5D5F4FB801C7010E943E7E9CCF08950895E0914702AFE3B2E050E040E0C3
:200280004E17CCF49A016D917D914F5F5F4F68177907B1F7E150E0934702F0E0EE0FFF1FB7
:2002A000E15CFD4F40815181F901EE0FFF1FE15CFD4F51834083E0913E02A6E3B2E050E0F1
:2002C00040E04E17CCF49A016D917D914F5F5F4F68177907B1F7E150E0933E02F0E0EE0F7E
:2002E000FF1FEA5CFD4F40815181F901EE0FFF1FEA5CFD4F5183408320912E0230912F02AA
:200300002817390711F40C94EF690895CF93DF93FC01268521110DC0EC0181E08687CF011E
:200320000E943A8161E08F859889DF91CF910D94CD28DF91CF91089508951F920F920FB663
:200340000F9211240BB60F928F939F93EF93FF939091DB138091DC13981310C08091C100A1
:200360008F7D8093C100FF91EF919F918F910F900BBE0F900FBE0F901F901895E091DC130E
:20038000F0E0E556FC4E80818093C6008091DC138F5F8F738093DC13E6CF1F920F920FB670
:2003A0000F9211240BB60F922F938F939F93EF93FF939091C60080915D148F5F8F772091CD
:2003C0005E14821741F0E0915D14F0E0E352FC4E908380935D14FF91EF919F918F912F91F9
:2003E0000F900BBE0F900FBE0F901F9018951F920F920FB60F9211240BB60F921F932F936B
:200400003F934F935F936F937F938F939F93AF93BF93CF93DF93EF93FF9388B5805C88BDF4
:200420008091CF04811111C08091C10E8093C90481112C9A8091C20E8093CA04882329F0D7
:20044000809102018062809302018091C80481110BC08091C40E8093CC04882329F08091BB
:2004600002018064809302018091C9049091CF04891303C08F3F09F02C988091D00481114C
:200480000DC08091CC049091C804891307C08F3F29F0809102018F7B809302018091CA0464
:2004A0009091CF04891307C08F3F29F0809102018F7D809302018091C6049091C70401966A
:2004C000863821E0920708F0D9C09093C7048093C60480917A0086FD52C02091780030915E
:2004E00079008091E00CE82FF0E0AF01440F551FDA01AB51B34F6D917C911197260F371F11
:200500002D933C93E751F34F90819F5F9083903288F19091C504992311F0823058F093E061
:20052000369527959A95E1F7DA01AF51B34F11963C932E934B51534FDA011D921C92108211
:200540008F5F823008F0AAC08093E00CE091E00CF0E0E357FD47E49180917B00E3FFA1C0AB
:20056000886080937B0080917C00807EE770E82BE0937C0080917A00806480937A00809114
:20058000C6049091C70483709927039709F056C01FB7F89480910E0F8A7009F04EC08091A7
:2005A0000E0F886080930E0F8091990FB4E08B02C00111248F708093990F349903C082600A
:2005C0008093990F369905C08091990F81608093990FE091990F0E2E000CFF0BE950F1489A
:2005E000E4918091980F8E1B8093980F329B5BC0D0E0C0E0909902C0CAE4D4E080914E0F78
:2006000090914F0F8C179D0799F00E94F8736093500F7093510F8093520F9093530FD0936D
:200620004F0FC0934E0F80910E0F816080930E0F80910E0F877F80930E0F1FBF8091C8044E
:200640008F5F8093C8048091CF048F5F8093CF04FF91EF91DF91CF91BF91AF919F918F9155
:200660007F916F915F914F913F912F911F910F900BBE0F900FBE0F901F9018951092C7041E
:200680001092C60481E08093C5048091D004882309F41FCF81508093D0041BCF1092E00C06
:2006A00055CF877F5ECFC9EED3E0A4CFF0E0E0E01994E091C80EF091C90E818987FD06C0D6
:2006C00061E09289911160E00C94E7710895CF930E94E46FC82F88E690E00F9480458C1710
:2006E00031F06C2F88E690E0CF910D949E45CF910895CF93DF93EC018991882319F00E944E
:20070000C169FACFDF91CF9108954F925F926F927F92BF92CF92DF92EF92FF920F931F930C
:20072000CF93DF9300D000D000D01F921F92CDB7DEB76B017C011B868E01055F1F4F8AE0A5
:20074000482E512C612C712C9AE0B92EC701B601A30192010F94C94580E3C80EB29EC01853
:200760001124F801C2928F0169017A01C114D104E104F10459F7CF010E9479832B960FB6BA
:20078000F894DEBF0FBECDBFDF91CF911F910F91FF90EF90DF90CF90BF907F906F905F908F
:2007A0004F900895CF92DF92EF92FF926B017C01F7FE0BC08DE20E94C169F094E094D09499
:2007C000C094C11CD11CE11CF11CC701B601FF90EF90DF90CF900C948583BC01990F880BF6
:2007E000990B0C94D283CF93DF93EC01FE0184912196882319F00E94C169F8CFDF91CF91BD
:2008000008958F929F92AF92BF92CF92DF92EF92FF92CF93DF936B017C01D42FAC019B016A
:200820000F949F49882371F08DE49BE7DF91CF91FF90EF90DF90CF90BF90AF909F908F90A6
:200840000C94F38346015701E894B7F82FEF3FEF4FE75FE7C501B4010F949F4981110DC08B
:200860002FEF3FEF4FE75FE7C501B4010F94494418161CF489E49BE7D9CF20E030E0A90176
:20088000C701B6010F94494487FF07C08DE20E94C169F7FAF094F7F8F094C0E060E070E009
:2008A00080E09FE3DC1741F020E030E040E251E40F940047CF5FF6CFA70196010F940646C0
:2008C0006B017C010F9479474B015C010E948583CC2381F1C501B4010F944E449B01AC011F
:2008E000C701B6010F9405466B017C018EE20E94C169C150F8F020E030E040E251E4C7013E
:20090000B6010F94AF444B015C010F9472476B01CB010E94ED83B601DD0C880B990B0F94C1
:2009200050449B01AC01C501B4010F9405466B017C01DFCFDF91CF91FF90EF90DF90CF902E
:20094000BF90AF909F908F900895CF92DF92EF92FF92CF936A017B01C22F0E94F3834C2F6D
:20096000C701B601CF91FF90EF90DF90CF900C940184CF92DF92EF92FF926A017B010E942A
:20098000F383C701B601FF90EF90DF90CF900C94D283CF93DF93EB010E94F383CE01DF917A
:2009A000CF910C94ED83885C9109883522E0920768F464E670E00F94BF496F5F7F4F8FEA3B
:2009C0009BE70E94C98480E20C94C16908958DE00E94C1698AE00C94C169CF93DF93EC01AF
:2009E000888180FF0CC08EE40E94C1696C817D8190E080E00E94D28380E20E94C16988817C
:200A000081FF0AC08DE40E94C1698E819F810E94ED8380E20E94C169888182FF0AC087E421
:200A20000E94C169888599850E94ED8380E20E94C1698881998191FF0DC084E50E94C169CA
:200A4000FE01EC5AFF4F808190E00E94ED8380E20E94C169888183FF09C04A855B856C855E
:200A60007D8522E088ED90E80E94A584888184FF09C04E855F856889798922E085ED90E8CF
:200A80000E94A584888185FF09C04A895B896C897D8922E082ED90E80E94A584888186FF41
:200AA00009C04E895F89688D798D24E08FEC90E80E94A5848881998190FF09C04A8D5B8DB7
:200AC0006C8D7D8D22E08CEC90E80E94A5848881998192FF08C04E8D5F8D68A179A189EC7B
:200AE00090E80E94B9848881998193FF08C04AA15BA16CA17DA186EC90E80E94B9848A813C
:200B000080FF09C04EA15FA168A579A522E083EC90E80E94A5848A8181FF09C04AA55BA57C
:200B20006CA57DA522E080EC90E80E94A5848A8182FF09C04EA55FA568A979A922E08DEBD8
:200B400090E80E94A5848A8183FF09C04AA95BA96CA97DA922E08AEB90E80E94A5848A8105
:200B600084FF09C04EA95FA968AD79AD22E087EB90E80E94A5848A8185FF09C04AAD5BADE1
:200B80006CAD7DAD22E084EB90E80E94A5848A8186FF0BC0FE01FE96408151816281738106
:200BA00022E081EB90E80E94A5848A8187FF0CC0FE01EE5BFF4F408151816281738122E025
:200BC0008EEA90E80E94A5848A819B8190FF0CC0FE01EA5BFF4F408151816281738122E0DA
:200BE0008BEA90E80E94A5848A819B8191FF0CC0FE01E65BFF4F408151816281738122E0C0
:200C000088EA90E80E94A5848A819B8192FF0CC0FE01E25BFF4F408151816281738122E0A5
:200C200085EA90E80E94A5848881998197FF06C0CE5ADF4F888199810E947983DF91CF919C
:200C40000C94E784CF93DF932091420320FF0AC0EC018AE490E80E94F383CE01DF91CF914C
:200C60000C94ED84DF91CF9108950E9422868091D10D8F5F813041F08093D10D8091D20D0C
:200C800081508093D20D08951092D10DF7CF8CEE9BE70E94F38385EE9BE70E94F38380917C
:200CA000CC0E80FD1EC088ED9BE70E94F3838EED9BE70E94F3838091CC0E82FD15C088ED27
:200CC0009BE70E94F38381ED9BE70E94F3838091CC0E84FD0CC088ED9BE70E94F3830C948B
:200CE000E7848BED9BE7E1CF8BED9BE7EACF8BED9BE7F3CFCF93DF9380910301C4E081FD65
:200D0000C0E0659BC1604B9BC061DFB7F8948091B4048C238093B4049091CC0E891761F0BA
:200D20008093CC0E9091B304892B8093B3048091420386FD0E944786C093B404DFBFDF910F
:200D4000CF9108951F920F920FB60F9211240BB60F924F925F926F927F928F929F92AF92D0
:200D6000BF92CF92DF92EF92FF920F931F932F933F934F935F936F937F938F939F93AF93D8
:200D8000BF93CF93DF93EF93FF9380E070911004772381F470910F04772319F460910E04D7
:200DA00091F0709389006093880010920E0410920F0408C060910F046058704060930F0408
:200DC0007093100481E0811139C080916F008D7F80936F0088E49EEE9093890080938800C3
:200DE0008091A10E882309F419C4C091C304D091C404209709F050C1E091120527E7E29F95
:200E0000F0011124E25AFA4FF093C404E093C304818187FF36C01092C4041092C304E0ED84
:200E2000CE2EE7E0DE2EE12CF12CC701B6010E94536C80916F00826080936F00FF91EF91E5
:200E4000DF91CF91BF91AF919F918F917F916F915F914F913F912F911F910F91FF90EF9014
:200E6000DF90CF90BF90AF909F908F907F906F905F904F900F900BBE0F900FBE0F901F90CA
:200E8000189578948091420385FF2DC0809112058F3028F58F5F809312051092C4041092AA
:200EA000C304F8948091A10E81508093A10E8091A10E81110DC08091520E9091530E2091C9
:200EC000760E23FF0EC080619093530E8093520E88EEC82E83E0D82EE12CF12CA6CF80E0F2
:200EE000DACF8F7EF1CFE091C304F091C404818180FF31C08091A10E9381981708F08BCFB4
:200F0000C580D680E780F084809112058F30F8F48F5F809312051092C4041092C304F89411
:200F20008091A10E81508093A10E8091A10E81117CCF8091520E9091530E2091760E23FF77
:200F400008C080619093530E8093520E6ECF80E0E0CF8F7EF7CF848184FD5F98E091C3041D
:200F6000F091C404848185FD8A98E091C304F091C404848186FF05C0809108018E7F809375
:200F80000801E091C304F091C404848187FD1298E091C304F091C40480818660808378941D
:200FA000C091C304D091C404EB8144E0E402F0011124EC0FFD1F81859285A385B4858093AC
:200FC000BF049093C004A093C104B093C204888180FD03C0CE010E94D567C159DF4F88811F
:200FE00099819093BE048093BD041092B9041092BA041092BB041092BC041092B50410929F
:20100000B6041092B7041092B804F894E091C304F091C404848181718131A1F5899AE0917B
:20102000C304F091C40484818272823269F58F9AE091C304F091C40484818474843431F510
:2010400080910B01826080930B01E091C304F091C404848188788838E9F4169A8091550E2B
:20106000811107C0E091C304F091C40482810E94C16BC0902602D0902702E0902802F090AA
:201080002902D3CE8998CBCF8F98D2CF80910B018D7FD9CF1698E2CF898184FF21C00E94C1
:2010A0007A869091CC0E9923D9F08C81282F2171203121F490FF02C08F7E8C838C81282F83
:2010C0002272203221F492FF02C08F7D8C838C81282F2474203421F494FF02C08F7B8C83D4
:2010E000F0902502E091C304F091C404ED58FF4F80819181A281B3814F2D0F2C000C550BA8
:20110000660B770B84179507A607B7070CF4F82E20E02F150CF0E4C0E091C304F091C404AF
:2011200085A196A1A7A1B0A5458956896789708D841B950BA60BB70B85A396A3A7A3B0A767
:20114000B7FF19C0149AE091C304F091C40485A196A1A7A1B0A54091BF045091C0046091AD
:20116000C1047091C204840F951FA61FB71F85A396A3A7A3B0A7E091C304F091C404848179
:2011800084FF2BC0818D928DA38DB48D4185528563857485841B950BA60BB70B818F928FE2
:2011A000A38FB48FB7FF19C0889AE091C304F091C404818D928DA38DB48D4091BF04509175
:2011C000C0046091C1047091C204840F951FA61FB71F818F928FA38FB48FE091C304F0918D
:2011E000C404848185FF2BC0858D968DA78DB0A14585568567857089841B950BA60BB70BBD
:20120000858F968FA78FB0A3B7FF19C08E9AE091C304F091C404858D968DA78DB0A1409149
:20122000BF045091C0046091C1047091C204840F951FA61FB71F858F968FA78FB0A3E091B4
:20124000C304F091C404848186FF2FC081A192A1A3A1B4A14189528963897489841B950B4A
:20126000A60BB70B81A392A3A3A3B4A3B7FF1DC080910B01886080930B01E091C304F09195
:20128000C40481A192A1A3A1B4A14091BF045091C0046091C1047091C204840F951FA61FD6
:2012A000B71F81A392A3A3A3B4A31498E091C304F091C404ED58FF4F80819181A281B38138
:2012C0000197A109B10980839183A283B38388988E9880910B01877F80930B012F5F19CFA2
:2012E0007894C091C304D091C4048090B9049090BA04A090BB04B090BC04FE01E35AFF4F7D
:2013000080819181A281B3818E010D581F4F88159905AA05BB0508F4D3C04090B50450905F
:20132000B6046090B7047090B8043C962081318142815381C301B2010E94A267FE01E15975
:20134000FF4F20813181820F931F9093BE048093BD043297208131812817390720F430937E
:20136000BE042093BD048091BD049091BE04813E6EE2960708F4A0C0813C7DE5970708F4C1
:2013800095C024E02093250296958795969587950E94826C60932602709327028093280278
:2013A00090932902460E571E681E791E4092B5045092B6046092B7047092B8048F2DFF0CA0
:2013C000990BAA0BBB0B880D991DAA1DBB1D8093B9049093BA04A093BB04B093BC04C0900E
:2013E0002602D0902702E0902802F0902902F80180819181A281B381181619061A061B0606
:2014000024F48C81807F09F046C0809112058F3008F000C18F5F809312051092C4041092E5
:20142000C304F8948091A10E81508093A10E8091A10E81110DC08091520E9091530E209143
:20144000760E23FFE9C080619093530E8093520E8091A10E811113C08091760E83FD07C064
:2014600087E090E00E94827D60E00F94B8188091550E811104C0809159050E94C16BF594B1
:20148000E794D794C794C0922602D0922702E0922802F09229028091F20D9091F30D892BD8
:2014A00009F4C3CCF8940E948F6ABFCC22E020932502969587956CCF21E02093250268CF7E
:2014C000F8014081518162817381FE01EF59FF4F80819181A281B38184179507A607B70708
:2014E0000CF468C0898182FD0BC01092B5041092B6041092B7041092B80489818460898304
:20150000C090B504D090B604E090B704F090B804FE01E759FF4F2081318142815381C70102
:20152000B6010E94A2672091BD043091BE04FE01EF58FF4F2817390740F580819181813E3A
:201540007EE2970798F1813CEDE59E0748F124E02093250296958795969587950E94826C9B
:2015600060932602709327028093280290932902C60ED71EE81EF91EC092B504D092B6048C
:20158000E092B704F092B8042ACF40815181B901681B790BCB016417750788F6CA01CFCFE9
:2015A00022E02093250296958795D8CF21E020932502D4CFFE01E359FF4F208131817497FC
:2015C00080819181A281B381213EFEE23F07F0F0213C3D4598F024E02093250232E0880F4E
:2015E000991FAA1FBB1F3A95D1F78093260290932702A0932802B0932902F1CE22E0209333
:201600002502880F991FAA1FBB1FEFCF21E020932502EBCF80E0FFCE8F7E16CF8091F20D2F
:201620009091F30D892B59F00E948F6A60912602709127028091280290912902F8CB809153
:20164000130590911405892B49F080911305909114050197909314058093130510920E0435
:2016600010920F0410921004109211048CED9FEF9093890080938800DCCBCF92DF92EF9200
:20168000FF92CF936A017B01C22F0E94F3834C2FC701B6010E940184CF91FF90EF90DF9069
:2016A000CF900C94E7842F923F924F925F926F927F928F929F92AF92BF92CF92DF92EF9213
:2016C000FF920F931F93CF93DF93CDB7DEB768970FB6F894DEBF0FBECDBF409048025090F8
:2016E000490260904A0270904B024D865E866F86788A8090EF0C9090F00CA090F10CB090D4
:20170000F20C2091F70C3091F80C4091F90C5091FA0CC501B4010F940646A30192010F9451
:20172000AF440F94724769837A838B839C836093DF047093E0048093E1049093E2044090B6
:201740004C0250904D0260904E0270904F02498A5A8A6B8A7C8AC090EB0CD090EC0CE090BA
:20176000ED0CF090EE0C2091F30C3091F40C4091F50C5091F60CC701B6010F940646A301BE
:2017800092010F94AF440F9472476D837E838F8398876093E7047093E8048093E9049093B2
:2017A000EA04409050025090510260905202709053024D8A5E8A6F8A788E4090EE0D5090E4
:2017C000EF0D6090F00D7090F10D2091EA0D3091EB0D4091EC0D5091ED0DC301B2010F9402
:2017E00006462D893E894F89588D0F94AF440F94724769877A878B879C876093EF04709362
:20180000F0048093F1049093F204A50194016D857E858F8598890F94AF440F9472474B0110
:201820005C018092E3049092E404A092E504B092E604A701960169897A898B899C890F94F1
:20184000AF440F9472476B017C01C092EB04D092EC04E092ED04F092EE04A30192016D89B9
:201860007E898F89988D0F94AF440F9472476093F3047093F4048093F5049093F604209173
:20188000C7023091C8024091C9025091CA022D8B3E8B4F8B588F09811A812B813C814D8806
:2018A0005E886F88788C041915092609370949805A806B807C80041515052605370514F471
:2018C0009301820100930E0510930F052093100530931105950184014D885E886F88788C22
:2018E000041915092609370980169106A206B30614F4950184010093D9041093DA042093E9
:20190000DB043093DC048090CB029090CC02A090CD02B090CE020D811E812F8138850819B0
:2019200019092A093B094D805E806F807884041515052605370514F49301820100930A051D
:2019400010930B0520930C0530930D0597018601081919092A093B09C016D106E206F306D4
:2019600014F4970186010093D5041093D6042093D7043093D804C090CF02D090D002E09067
:20198000D102F090D20209851A852B853C850C191D092E093F0969847A848B849C84061583
:2019A00017052805390514F494018301009306051093070520930805309309058B019C0178
:2019C0000C191D092E093F09601771078207930714F48B019C010093D1041093D204209366
:2019E000D3043093D40428E432E03A8329838BE8A82E8EE0B82E93E5C92E93E0D92E25E261
:201A0000E22E25E0F22E03E413E035E1832E35E0932E48E5242E42E0342EA981BA814D90D5
:201A20005D906D907D90BA83A983A301920160E070E080E89FE30F940047F50161937193BD
:201A4000819391935F01D6012D913D914D915D916D01C301B2010F94AF440F947947F701E9
:201A600061937193819391937F01D8012D913D914D915D918D01C301B2010F94AF440F9447
:201A80007947F40161937193819391934F0149805A802414350409F600914303109144033F
:201AA000509045035D82609046036982C0905303D0905403E0905503F09056039601A701BE
:201AC000B801852D962D0F94664818161CF08601ED82F98298014D8159816D857E858F8592
:201AE00098890F94AF449B01AC0160E070E080E090E40F9400470F945B496B017C0121EE59
:201B00003AE744EB5FE3B8018D8199810F94AF44A70196010F94AF448B018D839983C090DF
:201B20004703D0904803E0904903F0904A038090570390905803A0905903B0905A03940184
:201B4000A501B601C7010F946648181614F0640175019601A70169897A898B899C890F94F2
:201B6000AF449B01AC0160E070E080E090E40F9400470F945B494B015C0121EE3AE744EB8C
:201B80005FE3B601C7010F94AF44A50194010F94AF446B017C019B01AC01B8018D8199810A
:201BA0000F94494487FF03C08601ED82F98298014D815981B8018D8199810F9406466B01BE
:201BC0007C012091D10E3091D20E4091D30E5091D40E0F94664818167CF4C092D10ED09260
:201BE000D20EE092D30EF092D40E22E0B701A60185E69FE70E943D8B00914B0310914C03C3
:201C000070904D037D8280904E038982C0905B03D0905C03E0905D03F0905E039601A701AC
:201C2000B801872D982D0F94664818161CF08601ED82F9822091500230915102409152023A
:201C400050915302B8018D8199810F94AF449B01AC0160E070E080E090E40F9400470F949D
:201C60005B496B017C0120E030E040E05FE3B8018D8199810F94AF44A70196010F94AF4419
:201C80009B01AC010F9406466B017C012091CD0E3091CE0E4091CF0E5091D00E0F9466483C
:201CA00018167CF4C092CD0ED092CE0EE092CF0EF092D00E22E0B701A60185E49FE70E947A
:201CC0003D8B8091C70E8D7F8093C70E68960FB6F894DEBF0FBECDBFDF91CF911F910F91FD
:201CE000FF90EF90DF90CF90BF90AF909F908F907F906F905F904F903F902F900895AF92E4
:201D0000BF92CF92DF92EF92FF920F931F93CF93DF938B01D82FC92FA42E20E030E04CE5C8
:201D200052E40F94664818160CF45BC020E030E0A901B8018D2F9C2F0F94494487FF04C05F
:201D400000E010E0D0E0C0E098014D2F5C2F609188027091890280918A0290918B020F94CE
:201D60004944882399F180917F0281113FC0B12CC12CD12CE12C8B2D9C2DAD2DBE2D809351
:201D8000880290938902A0938A02B0938B028091B302897FF82EA1102EC0F092B30220E0B2
:201DA0004B2D5C2D6D2D7E2D86E19CE70E943D8B20E030E040E751E4B8018D2F9C2F0F943A
:201DC0006648181644F58FEF8093C30EDF91CF911F910F91FF90EF90DF90CF90BF90AF9002
:201DE000089500E010E0DCE5C2E4AECFB02EC12EDD2EEC2EC0CF20E030E040EF51E4B801E4
:201E00008D2F9C2F0F94664818163CF68F2D81608093B302C4CF8091C70E80FFD7CF1092E5
:201E2000C30ED4CFCF92DF92EF92FF921F93CF93DF93EC016A017B01122F84E39BE70E9424
:201E4000F383212FB701A601CE01DF91CF911F91FF90EF90DF90CF900C943D8B4F925F92F8
:201E60006F927F928F929F92AF92BF92CF92DF92EF92FF922091660E3091670E4091680EE6
:201E80005091690E60917F0E7091800E8091810E9091820E0F9406462B013C0120916A0E0B
:201EA00030916B0E40916C0E50916D0E6091830E7091840E8091850E9091860E0F940646E4
:201EC0004B015C0120916E0E30916F0E4091700E5091710E6091870E7091880E8091890E7A
:201EE00090918A0E0F9406466B017C018091DD0420E030E040E85FE3882321F020E732E40C
:201F000041E25DE3C301B2010F94AF44AB01BC0122E08AE29CE60E94A5848091DD0420E03B
:201F200030E040E85FE3882321F020E732E441E25DE3C501B4010F94AF44AB01BC0122E06F
:201F400086E29CE60E94A5848091DD0420E030E040E85FE3882321F020E732E441E25DE324
:201F6000C701B6010F94AF44AB01BC0123E082E29CE60E94A5846091620E7091630E80914B
:201F8000640E9091650E0F9450442091970E3091980E4091990E50919A0E0F94AF442091FF
:201FA000DD04211119C020E030E040E85FE30F94AF44AB01BC0124E08EE19CE6FF90EF90B9
:201FC000DF90CF90BF90AF909F908F907F906F905F904F900C943D8B20E732E441E25DE393
:201FE000E6CF4F925F926F927F928F929F92AF92BF92CF92DF92EF92FF920F931F93CF93CA
:20200000DF9300D01F92CDB7DEB72B013C0149015A01E982FA820B831C83C090EF0CD090E7
:20202000F00CE090F10CF090F20C2AE037ED43E25CE3C701B6010F940546A30192010F94E0
:20204000494418160CF485C02091F70C3091F80C4091F90C5091FA0CC701B6010F940646DC
:202060002AE037ED43E25CE30F9406469B01AC01C301B2010F94494418160CF46AC0C09047
:20208000EB0CD090EC0CE090ED0CF090EE0C2AE037ED43E25CE3C701B6010F940546A50169
:2020A00094010F94494418160CF453C02091F30C3091F40C4091F50C5091F60CC701B60175
:2020C0000F9406462AE037ED43E25CE30F9406469B01AC01C501B4010F9449441816CCF1B1
:2020E000C090EE0DD090EF0DE090F00DF090F10D2AE037ED43E25CE3C701B6010F9405464F
:2021000029813A814B815C810F94494418160CF12091EA0D3091EB0D4091EC0D5091ED0D50
:20212000C701B6010F94064620E030E0A9010F9406462AE037ED43E25CE30F9406469B016B
:20214000AC0169817A818B819C810F9449441816DCF481E00E94DB6A0E942E8F80E00F90F0
:202160000F900F900F90DF91CF911F910F91FF90EF90DF90CF90BF90AF909F908F907F909B
:202180006F905F904F90089581E0E9CFCF92DF92EF92FF926A017B010E94F383C701B6015A
:2021A0000E948583FF90EF90DF90CF900C94E784CF93DF93EB010E94F383CE010E94ED83D5
:2021C000DF91CF910C94E78490914203981719F18093420383FF1FC01092F9021092FA0211
:2021E0001092FB021092FC02E091EF02F0E0EF53F14F1082109288021092890210928A02D3
:2022000010928B02E0917E02F0E0EF53F14F10829FEF90930902682F70E087E09FE70C948A
:20222000D8900F931F93CF93DF93EC018B0184E39BE70E94F383B801CE01DF91CF911F918C
:202240000F910C94D890CF93DF932091590528171906C1F12091520E3091530E97FD2EC02E
:20226000EC018F3F910519F014F0CFEFD0E0892B39F128603093530E2093520E8C2FC093E7
:2022800059059091A10E992311F0662381F09091550E91110AC0EEE5F5E02EEC3CE0828386
:2022A000E958FF4F2E173F07D1F70E94C16BBE018CE69CE6DF91CF910C94D890C0E0D0E093
:2022C000277FD8CFDF91CF9108958F929F92AF92BF92CF92DF92EF92FF92CF93DF93893CE3
:2022E000910514F088EC90E0EC01499714F4C9E1D0E0D093A00EC0939F0EE091C80EF09158
:20230000C90EE958FF4FC080D180E280F380BE010D2E000C880B990B0F9450442AE037ED4F
:2023200043E25CE30F94AF444B015C0120E030E0A901C701B6010F9449441816BCF08092A5
:20234000320290923302A0923402B0923502BE018EE59CE6DF91CF91FF90EF90DF90CF90B1
:20236000BF90AF909F908F900C94D89020E030E040E850E4C501B4010F94AF444B015C0153
:20238000A7019601C701B6010F94AF442BED3FE049E450E40F94AF449B01AC01C501B401F7
:2023A0000F94004760933202709333028093340290933502CCCFCF92DF92EF92FF92CF9350
:2023C000DF93853F21E0920714F084EF91E0EC01499714F4C9E1D0E0BE010D2E000C880B7D
:2023E000990B0F9450446B017C0160919D0E70919E0E072E000C880B990B0F9450449B0185
:20240000AC01C701B6010F9400479B01AC016091F80D7091F90D8091FA0D9091FB0D0F947C
:20242000AF446093F80D7093F90D8093FA0D9093FB0DD0939E0EC0939D0EBE018FE49CE6A2
:20244000DF91CF91FF90EF90DF90CF900C94D8900E94F3830C94E784109274130E943A811F
:202460008091760E877F8093760E8091520E9091530E897E9093530E8093520E83E891E855
:202480000C942892CF93C091310221E0209331020E942892C0933102CF910895CF92DF9264
:2024A000EF92FF92CF93DF93EC010E94F8736B017C01209711F18091FB049091FC04A09138
:2024C000FD04B091FE04A7019601281B390B4A0B5B0BDA01C901803D9740A105B105A8F00A
:2024E00089EF9FE7C230D10531F08CEE9FE7239711F08CED9FE70E944292C092FB04D09212
:20250000FC04E092FD04F092FE04DF91CF91FF90EF90DF90CF90089582EE90E10E948681F1
:202520008091520E81FF0DC08091751381110F9445248091F31084FD09C01092100F0D94E6
:20254000B61D87EA9FE70E944292F3CF089581E08093310287E391E80E94F3838091040520
:20256000909105050E94F3838BED90E80E94289261E080910405909105050D94B8188FE561
:2025800094E10E94036C1092770DE0912E02F0912F028091150D8823C1F08EE183870E9492
:2025A000E784E0912E02F0912F0242815381648175814F5F5F4F6F4F7F4F8AE190E80E947E
:2025C000C69087E490E80C9428928EE0E7CFBF92CF92DF92EF92FF920F931F93CF93DF93E7
:2025E000EC01888181FF2EC08E819F818E36910521F5E0912E02F0912F028091000590914E
:202600000105A0910205B091030582839383A483B58387E490E80E942892E0912E02F09158
:202620002F028FEF8387DF91CF911F910F91FF90EF90DF90CF90BF9008958037910511F4A7
:202640000E945683B880B0FE68C0E0912E02F0912F0282819381A481B5816C017D012FEF23
:20266000C21AD20AE20AF20A40910005509101056091020570910305970186010427152776
:202680002627372722273327012B022B032B09F440C0841B950B889798F41092770D81E4F3
:2026A00090E80E94C69087E490E8DF91CF911F910F91FF90EF90DF90CF90BF900C94289222
:2026C000838587FF23C08091420382FF14C08CE290E80E94F383C701B6010E9485834091E6
:2026E000000550910105609102057091030586E290E80E94C690DF91CF911F910F91FF9066
:20270000EF90DF90CF90BF900C94BF9281508387C4CF428353836483758380910405909109
:202720000505892B39F0B1FE24C08E819F81873E9340F9F41092130D8091D20D8F5F8093B8
:20274000D20D4091000550910105609102057091030582E290E80E94C690E0912E02F091E6
:202760002F028091150D868390E080E00E944E9254CF0E94A792E5CF8091520E9091530EF5
:202780008F779C7F9093530E8093520E2091550E213069F018F0223091F0089580689093E0
:2027A000530E8093520E85E39FE70C94289291609093530E8093520E83E29FE7F6CF926073
:2027C0009093530E8093520E83E19FE7EECFCF93DF93EC0182E49BE70E94F383CE01DF915B
:2027E000CF910C9428920F931F93CF93DF931F92CDB7DEB78C01BE016F5F7F4F88E493E165
:202800000F94901C019799F185E791E80E94289261E087E691E80F94B81840916C1350913B
:202820006D1360916E1370916F1388E493E10E946878BE016F5F7F4F88E493E10F94901C37
:20284000019759F18EE391E80E94E793D801ED91FC910684F785E02DC801199510E000E052
:20286000C8010F90DF91CF911F910F910895098110E080916C1390916D13A0916E13B09195
:202880006F130196A11DB11D80936C1390936D13A0936E13B0936F13E3CF098110E061E078
:2028A00088E591E80F94B818E4CF2F923F924F925F927F928F929F92AF92BF92CF92DF92E1
:2028C000EF92FF920F931F93CF93DF93CDB7DEB72C970FB6F894DEBF0FBECDBF9C878B8766
:2028E0007B01D42EDC0111961C921E9213961C921E921297FC01EB5AFF4F81E08427808329
:202900005B01C12C772473944D01BEE48B0E911CEB85FC85E65BFF4FFA83E9838B859C85FC
:202920008A5B9F4F9C838B83AB85BC85AE5BBF4FBE83AD83EB85FC85FE96F887EF838B8518
:202940009C858C5A9F4F9A8789872B843C8492E5290E311C87010F5F1F4FD701EC91EE231D
:2029600009F448C2E83209F445C2E53209F442C2EA52E13508F05DC00E2E000CFF0B8827B2
:20298000EB53FB468F4F0D94064AE2961995199519951995199519951995199519951995A5
:2029A0001995199519951995199519951995199519951995199519958E969F9670965F969B
:2029C000E095ED9530957D9627963996B096C1964C951B95D2961796199552960A96FD9591
:2029E000199519951995B395C395D0951995199519951995199519958E969F9670965F9660
:202A0000E095ED9530957D9627963996B096C1964C951B95D2961796199552960A96FD9550
:202A2000199519951995B395C395D0955701CC24C39478018FCFC8010E94BE706093000580
:202A4000709301058093020590930305EB85FC852081318121603183208375836483E9CF75
:202A6000C8010E94BE70AB85BC8519967C936E9318972D913C911197C9016F3F710509F0C4
:202A800020F484608D939C93D4CF84609061EB85FC8591838083CDCFC8010E94BE70DB015E
:202AA000EB85FC857783668320813181A9014260518340836F3F7105F1F0E8F0226030611C
:202AC000318320839B012C51310923303105C8F09B012B7F20323105A1F02B01F5E74F1A3B
:202AE000510822E04216510460F0A33182E0B80709F09FCF06C06431710519F0673171053A
:202B000009F7F8012191222351F020532A3038F198012F5F3F4FF8014081403211F1F101B9
:202B200011830083F8018F012191222371F0A537B10549F0A431B10531F0A33182E0B80731
:202B400011F0203211F02A3271F7D8011C927092780DEB85FC858081918190689ACF8F015A
:202B6000D0CF8901D5CFC8010E94E370AB85BC851A966D937D938D939C931D978D919C914B
:202B8000119788607FCFC8010E94E370EB85FC8566877787808B918B80819181806179CF5A
:202BA000C8010E94E370AB85BC8552966D937D938D939C9355978D919C911197806262CFAD
:202BC000C8010E94E370EB85FC85668B778B808F918F8081918180645CCFC8010E94E37044
:202BE000AB85BC855A966D937D938D939C935D978D919C911197916045CFC8010E94BE7090
:202C0000E985FA856083AB85BC858D919C911197926038CFC8010E94BE70EB85FC85668F08
:202C2000778F80A391A380819181946032CFC8010E94BE70AB85BC8592966D937D938D93CD
:202C40009C9395978D919C91119798601BCFC8010E94E370EB85FC8566A377A380A791A713
:202C60008281938181609383828380819181906110CFC8010E94E370AB85BC859A966D93FF
:202C80007D938D939C939D9712968D919C911397826013969C938E9312978D919C9111978D
:202CA0009061F0CEC8010E94E370EB85FC8566A777A780AB91AB828193818460D4CFC801BD
:202CC0000E94E370AB85BC85D2966D937D938D939C93D59712968D919C9113978860D9CF2E
:202CE000C8010E94E370EB85FC8566AB77AB80AF91AF828193818061B6CFC8010E94E37048
:202D0000AB85BC85DA966D937D938D939C93DD9712968D919C9113978062BBCFC8010E948B
:202D2000E370EF81F8856083718382839383AB85BC8512968D919C9113978064AACFC8012D
:202D40000E94E370ED81FE816083718382839383AB85BC8512968D919C911397806899CF41
:202D6000C8010E94E370EB81FC816083718382839383AB85BC8512968D919C9113979160BB
:202D800088CFC8010E94E370E981FA816083718382839383AB85BC8512968D919C91139739
:202DA000926077CFC8010E94E370F4016083718382839383AB85BC8512968D919C91139728
:202DC000946067CFC8010E94BE70F50180E0EE16FF0619F091918927FACF861709F426CE9F
:202DE0008091420382FF04C086E990E80E94E79310E013C0E0912E02F0912F02868188236D
:202E000029F1C11023C0DD2009F11091780D11111DC08DE590E80E94E793812F2C960FB68B
:202E2000F894DEBF0FBECDBFDF91CF911F910F91FF90EF90DF90CF90BF90AF909F908F9038
:202E40007F905F904F903F902F900895EB85FC858281938197FF13C08091FF048F5F8093E4
:202E6000FF048091420382FF04C080E590E80E94E79311E08091FF04833078F6B9CF10926B
:202E8000FF0411E0CACFCF92DF92EF92FF920F931F93CF93DF93DC01EB01FC01EB5AFF4F40
:202EA00081E02827208342507B0170E060E090E080E0442309F1242F463108F025E1421BCB
:202EC0008701322FF80151918F01850F911D8F3F910510F08F5F9109680F791F6F3F71053D
:202EE00010F06F5F7109315069F7215030E02F5F3F4FE20EF31EDDCFF7012081821B91098F
:202F00002181621B7109862B972B892B51F08091420382FF04C086E990E80E94E79380E0B2
:202F20003BC18881998111969C938E937C01EE24F0E1FF2294FF39C12A813B8113963C938E
:202F40002E931297FE0197FD03C0349640E102C035964C8180FF10C00191119115961C938F
:202F60000E93149730E020E0009300051093010520930205309303059C0122703327BC01E9
:202F800064707727EF2809F417C1232B31F02191319117963C932E931697672B31F02191A1
:202FA000319119963C932E93189783FF0AC001911191219131911A960D931D932D933C93DE
:202FC0001D9784FF0AC001911191219131911E960D931D932D933C93519785FF0AC00191ED
:202FE00011912191319152960D931D932D933C93559786FF0AC00191119121913191569625
:203000000D931D932D933C93599790FF0AC001911191219131915A960D931D932D933C9311
:203020005D9791FF06C02081ED01CC5ADF4F2883319692FF0AC001911191219131915E96FA
:203040000D931D932D933C93919793FF0AC0019111912191319192960D931D932D933C935E
:20306000959712962D913C91139720FF0AC0C190D190E190F1909696CD92DD92ED92FC92B3
:20308000999721FF0AC0C190D190E190F1909A96CD92DD92ED92FC929D9722FF0AC0C190F7
:2030A000D190E190F1909E96CD92DD92ED92FC92D19723FF0AC0C190D190E190F190D2964E
:2030C000CD92DD92ED92FC92D59724FF0AC0C190D190E190F190D696CD92DD92ED92FC92D1
:2030E000D99725FF0AC0C190D190E190F190DA96CD92DD92ED92FC92DD9726FF0AC0C190CF
:20310000D190E190F190ED01EE96C882D982EA82FB8227FF0BC0C190D190E190F190ED01D9
:20312000CE5BDF4FC882D982EA82FB8230FF0BC0C190D190E190F190ED01CA5BDF4FC88281
:20314000D982EA82FB8231FF0BC0C190D190E190F190ED01C65BDF4FC882D982EA82FB82C1
:2031600032FF0BC00191119121913191ED01C25BDF4F088319832A833B8397FF0AC0AE5A78
:20318000BF4FED93FC93E40FF11D108281E08093780D1092FF0481E0DF91CF911F910F9160
:2031A000FF90EF90DF90CF900895FE01329613961C921E921297CACE232B39F0208130E05F
:2031C00017963C932E9316973196672B09F4EDCE208130E019963C932E9318973196E5CEDB
:2031E000FF920F931F93CF93DF938091C70E82FF43C001E713E0F12C70E060E08EEB9CE728
:203200000E94C984F801C191D1918F016E817F81888599850F947247665F7F4F89EA9CE783
:203220006D32714010F48FE99CE70E94F3838DA983FF04C080E99CE70E94F3838DA984FFEE
:2032400004C08EE79CE70E94F3830E94E78481E0F8120BC081E59CE70E94E79381E0DF9181
:20326000CF911F910F91FF900895FF24F39488EC9CE70E94F383C6CF80E0F1CFCF93DF9330
:20328000EC018CE39BE70E94F383CE01DF91CF910C942892CF93DF93EC018FE29BE70E94E9
:2032A000F383CE01DF91CF910C942892CF93C82FE091C80EF091C90EDF01A25ABF4F8C91A0
:2032C00040E050E866EA73EC83FD0AC040E050E06EED73EC84FD04C047A550A961A972A944
:2032E00022E08CE49CE60E94A584E091C80EF091C90E43A954A965A976A920E089E49CE66B
:203300000E94A5848091B30240E050E866EA73EC83FD0EC040E050E06EED73EC84FD08C074
:203320004091840250918502609186027091870222E085E49CE60E94A584409188025091D7
:20334000890260918A0270918B0220E089E49CE60E94A5848091B30283FD66C084FD66C00A
:2033600080E0682F082E000C770B882321F080E49CE60E94C984CC2391F061E070E08BE392
:203380009CE60E94C98480918202909183026CEF7FE0681B790B8EEB9FE70E94C984E09161
:2033A0007E02F0E0EF53F14F608170E086E39CE60E94C984E0910902EF3F29F4E091C80E22
:2033C000F091C90EE081F0E0EF53F14F608170E082E39CE60E94C9848091240383FD28C03B
:2033E00084FD28C080E0682F082E000C770B882321F08DE29CE60E94C984CC2391F070E04D
:2034000060E08BE39CE60E94C9848091F3029091F4026CEF7FE0681B790B8EEB9FE70E940E
:20342000C984CF910C94E78481E09BCF82E099CF81E0D9CF82E0D7CFCF93DF9300D01F92D9
:20344000CDB7DEB744E050E0BC01CE0101960F94704569817A818B819C810F900F900F9099
:203460000F90DF91CF910895EF92FF920F931F93CF93DF9380E89FE00F948045182F8EECF6
:203480009FE70E94F38310FF2BC080ECE82E8FE7F82EC2E8DFE080E20E94C1698CE40E94CD
:2034A000C169F701819191917F010E94F383CE010E941C9AAB01BC0122E08EEB9FE70E94EB
:2034C000A5842496C239FFE0DF0729F781E89FE00F948045682F70E089EB9FE70E94C98409
:2034E00011FF24C000EC1FE7C2E9DFE080E20E94C169F801819191918F010E94F383CE01AA
:203500000E941C9AAB01BC0122E08EEB9FE70E94A5842496C23AFFE0DF0741F7DF91CF919B
:203520001F910F91FF90EF900C94E7841111F6CF84EB9FE70E942892F1CF4F925F926F9257
:203540007F928F929F92AF92BF92CF92DF92EF92FF92CF93DF93CDB7DEB7C458D1090FB6EA
:20356000F894DEBF0FBECDBF412C512C80E2682E82E4782E49825A826B827C8244E050E0F5
:2035800068E273E0CE0101960F94944580E090E0A0E0B0E48D839E83AF83B88744E050E0D2
:2035A0006CE273E0CE0105960F94944580E090E0A6E1B3E489879A87AB87BC8744E050E09C
:2035C00068E473E0CE0109960F9494451D861E861F86188A44E050E060E273E0CE010D9679
:2035E0000F949445198A1A8A1B8A1C8A44E050E064E273E0CE0141960F9494451D8A1E8A5F
:203600001F8A188E44E050E060E074E0CE0145960F949445C12CD12C90EAE92E91E4F92E36
:20362000C98EDA8EEB8EFC8E44E050E060E373E0CE0149960F949445CD8EDE8EEF8EF8A2D6
:2036400044E050E064E373E0CE014D960F949445812C912C20E2A22E23E4B22E89A29AA2C4
:20366000ABA2BCA244E050E068E373E0CE0181960F949445CDA2DEA2EFA2F8A644E050E0D9
:203680006CE373E0CE0185960F949445C9A6DAA6EBA6FCA644E050E060E473E0CE01899627
:2036A0000F9494458DA69EA6AFA6B8AA44E050E064E473E0CE018D960F94944519AA1AAA7C
:2036C0001BAA1CAA44E050E060ED73E0CE01C1960F9494451DAA1EAA1FAA18AE44E050E057
:2036E00064ED73E0CE01C5960F94944519AE1AAE1BAE1CAE44E050E068ED73E0CE01C99634
:203700000F949445812C912C30E2A32E31E4B32E21968CAE9DAEAEAEBFAE219744E050E0D9
:2037200061EA73E0CE01CD960F94944580E094E00E941C9A60939713709398138093991307
:2037400090939A1325961CAE1DAE1EAE1FAE259744E050E060ED73E0CE018F5B9F4F0F94B6
:20376000944529961CAE1DAE1EAE1FAE299744E050E064ED73E0CE018B5B9F4F0F949445AC
:203780002D961CAE1DAE1EAE1FAE2D9744E050E068ED73E0CE01875B9F4F0F94944560E01D
:2037A0008CED93E00F949E4580E090E0A0E4B0E461968CAF9DAFAEAFBFAF619744E050E01A
:2037C00060EE73E0CE01835B9F4F0F94944580E090E0A0E5B1E465968CAF9DAFAEAFBFAFFA
:2037E000659744E050E064EE73E0CE018F5A9F4F0F94944569964CAE5DAE6EAE7FAE699765
:2038000044E050E068EE73E0CE018B5A9F4F0F9494456D961CAE1DAE1EAE1FAE6D9744E034
:2038200050E06CEE73E0CE01875A9F4F0F949445A1961CAE1DAE1EAE1FAEA19744E050E0A0
:2038400060EF73E0CE01835A9F4F0F949445A5961CAE1DAE1EAE1FAEA59744E050E064EF64
:2038600073E0CE018F599F4F0F949445A996CCAEDDAEEEAEFFAEA99744E050E068EF73E009
:20388000CE018B599F4F0F94944560E08CEF93E00F949E45AD961CAE1DAE1EAE1FAEAD97A2
:2038A00044E050E06CE074E0CE0187599F4F0F949445E1961CAE1DAE1EAE1FAEE19744E0BA
:2038C00050E060E174E0CE0183599F4F0F949445E5961CAE1DAE1EAE1FAEE59744E050E095
:2038E00064E174E0CE018F589F4F0F94944580E090E0A8ECB2E4E9968CAF9DAFAEAFBFAF44
:20390000E99744E050E068E074E0CE018B589F4F0F949445ED961CAE1DAE1EAE1FAEED97E6
:2039200044E050E060E274E0CE0187589F4F0F949445C358DF4F188219821A821B82CD57AA
:20394000D04044E050E064E274E0CE0183589F4F0F949445CF57DF4F88829982AA82BB8273
:20396000C158D04044E050E068E274E0CE018F579F4F0F949445CC57DF4F0FB6F894DEBFCE
:203980000FBECDBFDF91CF91FF90EF90DF90CF90BF90AF909F908F907F906F905F904F906A
:2039A00008951F93CF93DF93CDB7DEB7CC59D1090FB6F894DEBF0FBECDBF182F4091580213
:2039C0005091590260915A0270915B028BE490E00F94AC454091BD0E5091BE0E6091BF0E86
:2039E0007091C00E8FE490E00F94AC4540915E0250915F02609160027091610283E590E07F
:203A00000F94AC458091480290914902A0914A02B0914B0289A79AA7ABA7BCA744E050E0C6
:203A200063E070E0CE0189960F94944580914C0290914D02A0914E02B0914F028DA79EA72E
:203A4000AFA7B8AB44E050E067E070E0CE018D960F9494458091500290915102A0915202F8
:203A6000B091530289AB9AABABABBCAB44E050E06BE070E0CE01C1960F94944580916E0268
:203A800090916F02A0917002B09171028DAB9EABAFABB8AF44E050E06FE070E0CE01C596DE
:203AA0000F9494458091720290917302A0917402B091750289AF9AAFABAFBCAF44E050E076
:203AC00063E170E0CE01C9960F9494458091760290917702A0917802B091790221968CAF2C
:203AE0009DAFAEAFBFAF219744E050E067E170E0CE01CD960F949445809162029091630262
:203B0000A0916402B091650225968CAF9DAFAEAFBFAF259744E050E06BE170E0CE018F5BF4
:203B20009F4F0F9494458091660290916702A0916802B091690229968CAF9DAFAEAFBFAFC0
:203B4000299744E050E06FE170E0CE018B5B9F4F0F94944580916A0290916B02A0916C02E8
:203B6000B0916D022D968CAF9DAFAEAFBFAF2D9744E050E063E270E0CE01875B9F4F0F9491
:203B800094458091D10E9091D20EA091D30EB091D40E61968CAF9DAFAEAFBFAF619744E0C1
:203BA00050E067E270E0CE01835B9F4F0F9494458091CD0E9091CE0EA091CF0EB091D00E0F
:203BC00065968CAF9DAFAEAFBFAF659744E050E06FE270E0CE018F5A9F4F0F949445809174
:203BE000530390915403A0915503B091560369968CAF9DAFAEAFBFAF699744E050E063E3E9
:203C000070E0CE018B5A9F4F0F9494458091570390915803A0915903B0915A036D968CAFE6
:203C20009DAFAEAFBFAF6D9744E050E067E370E0CE01875A9F4F0F94944580915B039091D1
:203C40005C03A0915D03B0915E03A1968CAF9DAFAEAFBFAFA19744E050E06BE370E0CE0150
:203C6000835A9F4F0F9494458091430390914403A0914503B0914603A5968CAF9DAFAEAF1C
:203C8000BFAFA59744E050E06FE370E0CE018F599F4F0F9494458091470390914803A0916B
:203CA0004903B0914A03A9968CAF9DAFAEAFBFAFA99744E050E063E470E0CE018B599F4FCD
:203CC0000F94944580914B0390914C03A0914D03B0914E03AD968CAF9DAFAEAFBFAFAD97AD
:203CE00044E050E067E470E0CE0187599F4F0F949445609181028AE690E00F949E456091F1
:203D0000C4027091C50288E194E00F94B44560919C028BE690E00F949E4560919D028CE7A3
:203D200090E00F949E4580919E0290919F02A091A002B091A102E1968CAF9DAFAEAFBFAF9A
:203D4000E19744E050E06CE670E0CE0183599F4F0F9494458091A2029091A302A091A4028E
:203D6000B091A502E5968CAF9DAFAEAFBFAFE59744E050E060E770E0CE018F589F4F0F94E0
:203D800094458091A6029091A702A091A802B091A902E9968CAF9DAFAEAFBFAFE99744E08B
:203DA00050E064E770E0CE018B589F4F0F9494456091AA0288E790E00F949E458091EF0C0E
:203DC0009091F00CA091F10CB091F20CED968CAF9DAFAEAFBFAFED9744E050E065E870E00F
:203DE000CE0187589F4F0F9494458091EB0C9091EC0CA091ED0CB091EE0CC358DF4F8883D1
:203E00009983AA83BB83CD57D04044E050E069E870E0CE0183589F4F0F9494458091EE0DD2
:203E20009091EF0DA091F00DB091F10DCF57DF4F88839983AA83BB83C158D04044E050E095
:203E40006DE870E0CE018F579F4F0F9494458091F70C9091F80CA091F90CB091FA0CCB57C6
:203E6000DF4F88839983AA83BB83C558D04044E050E061E970E0CE018B579F4F0F9494454C
:203E80008091F30C9091F40CA091F50CB091F60CC757DF4F88839983AA83BB83C958D0406D
:203EA00044E050E065E970E0CE0187579F4F0F9494458091EA0D9091EB0DA091EC0DB0916D
:203EC000ED0DC357DF4F88839983AA83BB83CD58D04044E050E069E970E0CE0183579F4F4C
:203EE0000F949445CF56DF4F188219821A821B82C159D04044E050E06DE970E0CE018F56AD
:203F00009F4F0F949445CB56DF4F188219821A821B82C559D04044E050E061EA70E0CE018E
:203F20008B569F4F0F949445C756DF4F188219821A821B82C959D04044E050E065EA70E058
:203F4000CE0187569F4F0F9494456091540E84E094E00F949E458091D3029091D402A0918C
:203F6000D502B091D6028D839E83AF83B88744E050E068EC70E0CE0105960F9494458091C0
:203F8000D9029091DA02A091DB02B091DC0289879A87AB87BC8744E050E06CEC70E0CE01AB
:203FA00009960F9494458091E1029091E202A091E302B091E4028D879E87AF87B88B44E0DA
:203FC00050E060ED70E0CE010D960F9494458091DD029091DE02A091DF02B091E002898BEC
:203FE0009A8BAB8BBC8B44E050E064ED70E0CE0141960F9494456091F20288ED90E00F949B
:204000009E45609135037091360386E291E00F94B44560910D0389ED90E00F949E45609187
:204020000E0385EF90E00F949E4580910F0390911003A0911103B09112038D8B9E8BAF8B98
:20404000B88F44E050E06AED70E0CE0145960F9494458091130390911403A0911503B0910F
:204060001603898F9A8FAB8FBC8F44E050E06EED70E0CE0149960F949445809117039091EC
:204080001803A0911903B0911A038D8F9E8FAF8FB8A344E050E062EE70E0CE014D960F942F
:2040A000944560911B0386EE90E00F949E454091C7025091C8026091C9027091CA0287EE6B
:2040C00090E00F94AC454091CB025091CC026091CD027091CE028BEE90E00F94AC454091B0
:2040E000CF025091D0026091D1027091D20282E291E00F94AC456091E9027091EA028FEEF4
:2041000090E00F94B4456091EB027091EC028AEF90E00F94B4456091ED027091EE028CEFF5
:2041200090E00F94B44560913B038EEF90E00F949E4519A21AA21BA21CA244E050E061EF3B
:2041400070E0CE0181960F9494451DA21EA21FA218A644E050E066EF70E0CE0185960F9429
:2041600094451123A9F040E050E0BA018DE790E00F94AC4519821A821B821C8244E050E050
:2041800061E870E0CE0101960F9494450E949D9A64E189E690E00F949E450E94E46F682F95
:2041A00088E690E00F949E45C456DF4F0FB6F894DEBF0FBECDBFDF91CF911F9108958F92CE
:2041C0009F92AF92BF92CF92DF92EF92FF921F93CF93DF93CDB7DEB7C857D1090FB6F8944F
:2041E000DEBF0FBECDBFF82E89E690E00F948045182F682F70E086E99BE70E94D8908BE4C4
:2042000090E00F948845609358027093590280935A0290935B028FE490E00F9488456093DE
:20422000BD0E7093BE0E8093BF0E9093C00E83E590E00F94884560935E0270935F02809301
:2042400060029093610283E090E00E941C9A609348027093490280934A0290934B0287E08A
:2042600090E00E941C9A60934C0270934D0280934E0290934F028BE090E00E941C9A6093E6
:2042800050027093510280935202909353028FE090E00E941C9A60936E0270936F02809376
:2042A00070029093710283E190E00E941C9A6093720270937302809374029093750287E160
:2042C00090E00E941C9A609376027093770280937802909379028BE190E00E941C9A6093DD
:2042E00062027093630280936402909365028FE190E00E941C9A60936602709367028093DD
:2043000068029093690283E290E00E941C9A60936A0270936B0280936C0290936D0287E22D
:2043200090E00E941C9A6093D10E7093D20E8093D30E9093D40E8FE290E00E941C9A6093DB
:20434000CD0E7093CE0E8093CF0E9093D00E83E390E00E941C9A60935303709354038093CE
:2043600055039093560387E390E00E941C9A60935703709358038093590390935A038BE32F
:2043800090E00E941C9A60935B0370935C0380935D0390935E038FE390E00E941C9A60937E
:2043A000430370934403809345039093460383E490E00E941C9A60934703709348038093D9
:2043C000490390934A0387E490E00E941C9A60934B0370934C0380934D0390934E038AE614
:2043E00090E00F9480458093810288E194E00F948E459093C5028093C4028BE690E00F94B5
:20440000804580939C028CE790E00F94804580939D028CE690E00E941C9A60939E02709359
:204420009F028093A0029093A10280E790E00E941C9A6093A2027093A3028093A402909316
:20444000A50284E790E00E941C9A6093A6027093A7028093A8029093A90288E790E00F942E
:2044600080458093AA0285E890E00E941C9A6093EF0C7093F00C8093F10C9093F20C89E8F4
:2044800090E00E941C9A6093EB0C7093EC0C8093ED0C9093EE0C8DE890E00E941C9A609316
:2044A000EE0D7093EF0D8093F00D9093F10D81E990E00E941C9A6093F70C7093F80C80938F
:2044C000F90C9093FA0C85E990E00E941C9A6093F30C7093F40C8093F50C9093F60C89E9D8
:2044E00090E00E941C9A6093EA0D7093EB0D8093EC0D9093ED0DFF2009F4BFC088EC90E067
:204500000E941C9A6093D3027093D4028093D5029093D6028CEC90E00E941C9A6093D902AF
:204520007093DA028093DB029093DC0280ED90E00E941C9A6093E1027093E2028093E302C1
:204540009093E40284ED90E00E941C9A6093DD027093DE028093DF029093E00288ED90E086
:204560000F9480458093F20286E291E00F948E45909336038093350389ED90E00F94804588
:2045800080930D0385EF90E00F94804580930E038AED90E00E941C9A60930F03709310032E
:2045A00080931103909312038EED90E00E941C9A60931303709314038093150390931603CF
:2045C00082EE90E00E941C9A60931703709318038093190390931A0386EE90E00F948045BD
:2045E00080931B0387EE90E00F9488456093C7027093C8028093C9029093CA028BEE90E0F6
:204600000F9488456093CB027093CC028093CD029093CE028FEE90E00F948E459093EA0252
:204620008093E9028AEF90E00F948E459093EC028093EB028CEF90E00F948E459093EE0298
:204640008093ED02123008F007C24091CF025091D0026091D1027091D20282E291E00F94EF
:20466000AC4582E291E00F9488456093CF027093D0028093D1029093D202143109F419C271
:2046800082E79BE70E943E99133008F0EFC180E090E0A0E2B2E461968CAF9DAFAEAFBFAF9A
:2046A000619744E050E068E273E0CE01835B9F4F0F94944580E090E0A0E0B0E465968CAFE0
:2046C0009DAFAEAFBFAF659744E050E06CE273E0CE018F5A9F4F0F94944580E090E0A6E159
:2046E000B3E469968CAF9DAFAEAFBFAF699744E050E068E473E0CE018B5A9F4F0F949445C1
:204700006D961CAE1DAE1EAE1FAE6D9744E050E060E273E0CE01875A9F4F0F949445A1962A
:204720001CAE1DAE1EAE1FAEA19744E050E064E273E0CE01835A9F4F0F949445C12CD12C26
:2047400080EAE82E81E4F82EA596CCAEDDAEEEAEFFAEA59744E050E060E373E0CE018F59E8
:204760009F4F0F949445A996CCAEDDAEEEAEFFAEA99744E050E064E373E0CE018B599F4F73
:204780000F949445812C912C90E2A92E93E4B92EAD968CAE9DAEAEAEBFAEAD9744E050E063
:2047A00068E373E0CE0187599F4F0F949445E196CCAEDDAEEEAEFFAEE19744E050E06CE362
:2047C00073E0CE0183599F4F0F949445E596CCAEDDAEEEAEFFAEE59744E050E060E473E041
:2047E000CE018F589F4F0F949445E9968CAE9DAEAEAEBFAEE99744E050E064E473E0CE018E
:204800008B589F4F0F94944580E090E0A0E2B1E42D968CAF9DAFAEAFBFAF2D9744E050E037
:2048200061EA73E0CE01875B9F4F0F94944521961CAE1DAE1EAE1FAE219744E050E060ED81
:2048400073E0CE01CD960F94944525961CAE1DAE1EAE1FAE259744E050E064ED73E0CE01EB
:204860008F5B9F4F0F94944529961CAE1DAE1EAE1FAE299744E050E068ED73E0CE018B5B86
:204880009F4F0F94944560E08CED93E00F949E4580E090E0A0E4B0E489A39AA3ABA3BCA3FE
:2048A00044E050E060EE73E0CE0181960F94944580E090E0A0E5B1E48DA39EA3AFA3B8A795
:2048C00044E050E064EE73E0CE0185960F94944580E090E0A0E2B2E489A79AA7ABA7BCA76B
